:020000041008E2
:4000000000780408EB0208100D0000005103081051030810510308105103081000000000000000000000000000000000917408104D03081000000000317508109575081015
:400040004D0308104D0308104D0308104D0308104D0308104D0308104D0308104D0308104D0308104D0308104D0308104D0308104D0308104D0308104D0308104D03081000
:400080004D0308104D0308104D0308104D0308104D0308104D0308104D0308104D0308104D0308104D0308104D0308104D0308104D0308104D0308104D0308104D030810C0
:4000C0004D0308104D0308104D0308104D0308104D0308104D0308104D0308104D0308104D0308104D0308104D0308104D0308104D0308104D0308104D0308104D03081080
:400100004D0308104D0308104D0308104D0308104D0308104D0308104D0308104D0308104D0308104D0308104D0308104D0308104D0308104D0308104D0308104D0308103F
:400140004D0308104D0308104D0308104D0308104D0308104D0308104D0308104D0308104D0308104D0308104D0308104D0308104D0308104D0308104D0308104D030810FF
:400180004D0308104D0308104D0308104D0308104D0308104D0308104D0308104D0308104D0308104D0308104D0308104D0308104D0308104D0308104D0308104D030810BF
:4001C0004D0308104D0308104D0308104D0308104D0308104D0308104D0308104D0308104D0308104D0308104D0308104D0308104D0308104D0308104D0308104D0308107F
:400200004D0308104D0308104D0308104D0308104D0308104D0308104D0308104D0308104D0308104D0308104D0308104D0308104D0308104D0308104D0308104D0308103E
:400240004D0308104D0308104D0308104D0308104D0308104D0308104D0308104D0308104D0308104D0308104D0308104D0308104D0308104D0308104D0308104D030810FE
:400280004D0308104D0308104D03081010B5054C237833B9044B13B10448AFF300800123237010BDBC4B0208000000006CA30910084B10B51BB108490848AFF30080084834
:4002C000036803B910BD074B002BFBD0BDE81040184700BF00000000C04B02086CA309108C450208000000007047FFF7FDFF72B6104C114DAC4209DA21686268A368043B9E
:40030000A2BFC858D050FAE70C34F3E70B490C4A00209142BCBF41F8040BFAE709480A490860BFF34F8F00F073F900F04DF900F01DF8FEE770A3091088A30910BC4B020847
:4003400014F903080040020808ED00E0FEE7FEE700B504207146084202D0EFF3098001E0EFF30880043005F0C1FBFEE700B583B009F07CFC62B607F02DFA07F0C1FE0BF010
:4003800065FE142002F002FB012002F007FB00200BF096FD6FF07F400BF088FD0BF024FE00221146104600F0A5FA0225154B9D600822A3F5B0639A60002401940323009316
:4003C000234680221049114806F04AFA01940095234680220E490F4806F042FA01940095234680220C490D4806F03AFA0194009523464FF480620A490A4806F031FA06F074
:4004000061FAFEE780053240B4470910C10C0810C84709108D0C0810D8470910211A0810E4470910A11E081008B5012003F0B8FC08BD00BF704700BF5C4AD2F8803303F078
:400440000F0303F1D00152F8212002F00702032A04D0042A05D092B9554914E0554A116811E003F1C002514951F8222002F01F02112A06D0132A04D04FF4FA4103E04E492D
:4004800001E04FF400418BBB484BD3F8902502F00100D3F88825C2F30172D3F8883513F0405F07D0414BD3F88835C3F30173012B02D102E0012300E0002303B108B9032A02
:4004C00046D13A48D0F88025C2F31103D0F88425C2F30C02D0F88005C0F300600130B1FBF2F202FB03F2B2FBF0F131E0012B2FD12E4BD3F8402602F00100D3F80026C2F3D8
:400500000172D3F8003613F0405F07D0274BD3F80036C3F30173012B02D102E0012300E0002303B108B9032A12D12048D0F8002602F07F02D0F80036C3F30423D0F8000632
:40054000C0F3044002FB01F2B2FBF3F2B2FBF0F1164BD3F88033C3F3011321FA03F215494A601648D0F89030C3F3072301330069000E0130B2FBF0F08860B2FBF3F3CB60DE
:400580000B6103F5742202F23F220D48A0FB0202C2F387420A7503F2E7330A4AA2FB03239B098B61DB03CB61704700BF0000264000127A008C42020800366E0100002140F5
:4005C00083DE1B43D34D621008B50D4805F078FBFFF730FFFFF730FF00221146042003F0A7F9084803F03AFA074B1B6893F8513013B1064803F0A2FA03F068F808BD00BFE6
:40060000704F0910D84B0208D0F50308F447091008B505F0C6FA074AD2F8883043F47003C2F88830BFF34F8FBFF36F8F05F0BDFA08BD00BF00ED00E0F8B506460F4602F0B3
:4006400031FF0546064C3B4632460146204602F0B1F941F2B0622946204612F009F8F8BD584D020870B5ADF57A7D04460BF0BCFC01200BF0E3FB00239FED2C7A11E003EB01
:4006800043018A002244D2ED007A0DEB8302C2ED007AB4EEE77AF1EE10FA01D5B0EE677A0133F92BEBDD002210E00DEB8203D3ED007A77EE277ADFED1E6A67EEA67A37EE09
:4006C000076AC7EE866AC3ED006A0132F92AECDD0024254621E00DEB8403186811F0A2F909F046FC11F0A2FC0646014628460BF09FFEF82C0FDC631C0DEB8303186811F080
:4007000091F909F035FC11F091FC03466A1C314628460CF0CDF801350134F92CDBDD01210846FFF789FF0DF57A7D70BD000000000000164310B504460BF056FC06200BF0D0
:400740007DFB0B480BF0C6FB032C04D150224B2108480BF047FE042C04D150224B2106480BF040FE01210846FFF766FF10BD00BFD8520910284809104048091070B584B0F9
:400780000E461446254D0246294602A812F010FC32462946684612F00BFC08200BF04EFBAF23FF229B210A200AF038FD06200BF045FB1B480BF08EFBA022142119480BF0FD
:4007C00011FEA022732102A80BF00CFEA022822115480BF007FEA022962114480BF002FEA022D22168460BF0FDFDA022E62110480BF0F8FD032C04D100226E210D480BF0E5
:40080000F1FD042C04D1002269210B480BF0EAFD01210846FFF710FF04B070BD5C480910D852091060480910744809107848091084480910884809109448091010B582B065
:4008400004460BF0D1FB22460F49684612F0B0FB12200BF0F3FA0D480BF03CFB5A22732168460BF0BFFD07200BF0E8FA08480BF031FB1422502107480BF0B4FD01210846A9
:40088000FFF7DAFE02B010BD5C4809109C7109100C610910A448091010B582B004460BF0A3FB22460F49684612F082FB12200BF0C5FA0D480BF00EFB5A22732168460BF0B8
:4008C00091FD07200BF0BAFA08480BF003FB1422502107480BF086FD01210846FFF7ACFE02B010BD5C4809109C7109100C610910BC48091070B504460D4616460BF074FB3A
:4009000007200BF09BFA37480BF0E4FA74B91422114635480BF066FD3222142133480BF061FD5022142132480BF05CFD012C34D1002250212F480BF055FD32221E212E48AF
:400940000BF050FD50221E212C480BF04BFD6E221E212B480BF046FD8C221E2129480BF041FD012D04D1052237210F200BF042F9022D04D1052255210F200BF03BF9032D9A
:4009800004D1052273210F200BF034F9042D04D1052291210F200BF02DF9022C1CD10022502119480BF01EFD32221E2117480BF019FD50221E2116480BF014FD012E04D1DA
:4009C000052237210F200BF015F9022E04D1052255210F200BF00EF901210846FFF72CFE70BD00BF0C610910D4480910004909103049091060490910744909108C490910BC
:400A0000B4490910C8490910E0490910F4490910104A091010B506F0F7FE002007F032F9134BC3F8B805D3F8B8254FF6FD739A420CD80F4BD3F8B8456400E4B221460C20D7
:400A400001F018F921460D2001F014F90022084BC3F8B82507F042FA07F052FB012007F0FDF818B10122024B83F8BC2510BD00BF505E020810B506F0C7FE002007F002F9E6
:400A8000254B18601A684FF6FD739A4207D8224B1B684F2B03D9204A5368023353601E4B1B684F2B07D81C4B1B68322B03D91A4A536801335360184B1B68312B07D8164B19
:400AC0001B68142B03D9144A5368013B5360124B1B68142B03D8104A5368023B53600E4C3223236007F0FAF907F00AFB6268A3689A4202D06068FFF7A1FE074B5A689A604B
:400B000006F082FE012007F0A9F818B10122034B83F8BD2510BD00BFAC420208505E020810B506F071FE002007F0ACF8254BD860DA684FF6FD739A4207D8224BDB684F2B4A
:400B400003D9204A1369023313611E4BDB684F2B07D81C4BDB68322B03D91A4A136901331361184BDB68312B07D8164BDB68142B03D9144A1369013B1361124BDB68142B91
:400B800003D8104A1369023B13610E4C3223E36007F0A4F907F0B4FA226963699A4202D02069FFF779FE074B1A695A6106F02CFE012007F053F818B10122034B83F8BE2502
:400BC00010BD00BFAC420208505E020808B50BF00BFA07200BF032F90D480BF07BF90D4B1B7E13F0FF0F04D0502211460A480BF0F9FB084B1B7E13F0FF0F04D15022114670
:400C000006480BF0EFFB01210846FFF715FD08BD0C610910AC4202082C4A09103C4A091008B506F0F1FD002007F02CF8154BD861DA694FF6FD739A4208D8124BDB69322B71
:400C400004D901220F4B1A76FFF7C0FF0D4BDB69312B04D800220B4B1A76FFF7B7FF3222084BDA6107F03AF907F04AFA06F0CCFD012006F0F3FF18B10122034B83F8BF25A5
:400C800008BD00BFAC420208505E020808B50A4B1A6A1B699A4204DC074B1A6A5B689A4203DA0222054B5A6002E00222034B9A60C82005F04BFFEAE7AC4202088005324075
:400CC00010B582B03223019306F09EFD012006F0C5FFF0B1B34BD3F8C035D3B9B14BD3F8C435B3B9AF4BD3F8C825013AC3F8C825D3F8C835002B03DA0222AA4BC3F8C8256B
:400D0000A84BD3F8C805D3F8C015D3F8C425FFF7F1FD022006F0A2FFF0B1A24BD3F8C035D3B9A04BD3F8C435B3B99E4BD3F8C8250132C3F8C825D3F8C835022B03DD0022CF
:400D4000984BC3F8C825974BD3F8C805D3F8C015D3F8C425FFF7CEFD924BD3F8C835012B40F0CB8006F050FD002006F08BFF0190019B322B1BDD019A4FF6FE739A4216DC89
:400D8000884BD3F8C0250132C3F8C025D3F8C035042B03DD0022834BC3F8C025814BD3F8C805D3F8C015D3F8C425FFF7A3FD019B312B16DC7B4BD3F8C025013AC3F8C025F5
:400DC000D3F8C035002B03DA0422764BC3F8C025744BD3F8C805D3F8C015D3F8C425FFF789FD704BD3F8C035012B1DD106F00CFD022006F033FF28B916E0FFF70BFE0A209F
:400E000005F0A4FE674B93F8BC3513F0FF0FF4D0644B002283F8BC25D3F8C805D3F8C015D3F8C425FFF766FD5E4BD3F8C035022B1FD106F0E9FC022006F010FFC8B1FFF7AF
:400E4000C5FE04E0FFF7ECFEC82005F07FFE554B93F8BF3513F0FF0FF4D0524B002283F8BF25D3F8C805D3F8C015D3F8C425FFF741FD4C4BD3F8C035032B1CD106F0C4FC37
:400E8000022006F0EBFEB0B10122474B83F82420444C002384F8CC350320FFF74BFC4FF4FA7005F053FED4F8C805D4F8C015D4F8C425FFF71FFD3B4BD3F8C035042B1CD176
:400EC00006F0A2FC022006F0C9FEB0B1354C012384F8CC350022344B83F824200420FFF729FC4FF4FA7005F031FED4F8C805D4F8C015D4F8C425FFF7FDFC2A4BD3F8C83571
:400F0000022B40F0918006F07FFC002006F0BAFE0190019B322B1BDD019A4FF6FE739A4216DC204BD3F8C4250132C3F8C425D3F8C435022B03DD00221A4BC3F8C425194B0D
:400F4000D3F8C805D3F8C015D3F8C425FFF7D2FC019B312B16DC134BD3F8C425013AC3F8C425D3F8C435002B03DA02220D4BC3F8C4250C4BD3F8C805D3F8C015D3F8C425B7
:400F8000FFF7B8FC074BD3F8C435012B25D106F03BFC022006F062FEF8B1034B5868FFF74DFC08E0505E0208AC420208FFF762FDC82005F0CBFD204B93F8BD3513F0FF0F29
:400FC000F4D01D4B002283F8BD25D3F8C805D3F8C015D3F8C425FFF78DFC174BD3F8C435022B21D106F010FC022006F037FED8B1124B1869FFF750FC04E0FFF791FDC8204E
:4010000005F0A4FD0C4B93F8BE3513F0FF0FF4D0094B002283F8BE25D3F8C805D3F8C015D3F8C425FFF766FC06F058FF07F068F8C82005F08BFD45E6505E0208AC42020874
:401040002DE9F04F2DED028BA1B002AFFFF7BCFAFFF7F2F9B84CB94D22462968B84809F0E9FB2268B74B1A6022462968B64809F0E1FBD4ED006AB54BC3ED006A002114E0D9
:401080008B00AF4A1A44D2ED007AAE4890ED007A77EEC77AC2ED007AAB4A1344D3ED007A77EEE67AC3ED007A0131A44B1B689942E6D3A24DB5F8CC10A54C0093A54B2A1D79
:4010C000204609F08BFCDFF898829D4E2B6842463146204609F094FCDFF888922B684A469949204609F08CFCD6F8900110F09AFCDFF874A202460B46514607F1680011F05D
:4011000057FF954C07F16801204602F0E7FE934E3146204602F0E2FED8F8900110F082FC02460B46514607F1580011F041FF07F15801204602F0D2FE3146204602F0CEFE96
:4011400000267E65002407F1780343F8284D07F154022968404609F0A9FBFE6407F1780343F8304D07F14C022968404609F0CAFA7E6407F1780343F8384D07F14402296892
:40118000484609F093FBFE6307F1780343F8404D07F13C022968484609F0B4FAD7ED158A97ED137A38EEC77AD7ED116AD7ED0F7A76EEE77AB6EE008A27EE087A78EEC78ADA
:4011C00067EE887A36EEE78AB5F8CE3007EE903AF8EEE77A95ED347A67EE877A17EE900A10F020FC08F03CFE10F048FF800000F10A0323F00703ADEB030D0DF1080AADEBAD
:40120000030D02ADADEB030D02A8ADEB030D02AEADEB030D0DF10808ADEB030D0DF108090123FEE14E4901EB8302D2ED007A03F1FF3E01EB8E0191ED007AF4EEC77AF1EEEE
:4012400010FA40F393805A1C454901EB8202D2ED006AF4EEE67AF1EE10FA40F387809A1E01EB820292ED007AF4EEC77AF1EE10FA40F3ED809A1C01EB820292ED007AF4EE4E
:40128000C77AF1EE10FA40F3E280DA1E01EB820292ED007AF4EEC77AF1EE10FA40F3D780DA1C01EB820292ED007AF4EEC77AF1EE10FA40F3CC801A1F01EB820292ED007AEC
:4012C000F4EEC77AF1EE10FA40F3C1801A1D01EB820292ED007AF4EEC77AF1EE10FA40F3B680A3F10A0201EB820292ED007AF4EEC77AF1EE10FA40F3AA8003F10A01184A86
:4013000002EB810292ED007AF4EEC77AF1EE10FA40F39D80F4EEE78AF1EE10FA40F197804AF824300E4A02EB8302116805EB8402116001348BE000BFF06D0308D4420208BD
:4013400090270308F86D030848330308FC6D0308E46D0308006E030800006640584A091074560308043F03084C4A0910F4EEC77AF1EE10FA6BD55A1CDB4901EB820292ED64
:40138000007AF4EEC77AF1EE10FA60D59A1E01EB820292ED007AF4EEC77AF1EE10FA56D59A1C01EB820292ED007AF4EEC77AF1EE10FA4CD5DA1E01EB820292ED007AF4EE8B
:4013C000C77AF1EE10FA42D5DA1C01EB820292ED007AF4EEC77AF1EE10FA38D51A1F01EB820292ED007AF4EEC77AF1EE10FA2ED51A1D01EB820292ED007AF4EEC77AF1EEE1
:4014000010FA24D5A3F10A0201EB820292ED007AF4EEC77AF1EE10FA19D503F10A01B24A02EB810292ED007AF4EEC77AF1EE10FA0DD5F4EEE78AF1EE10FA08DD40F82430A7
:40144000A94A02EB8302116806EB84021160A74A02EB8301D1ED007A02EB8E0292ED007AF4EEC77AF1EE10FA6EDD5A1C9F4901EB8202D2ED006AF4EEE67AF1EE10FA63DDDD
:401480009A1E01EB820292ED007AF4EEC77AF1EE10FA40F3C5809A1C01EB820292ED007AF4EEC77AF1EE10FA40F3BA80DA1E01EB820292ED007AF4EEC77AF1EE10FA40F34F
:4014C000AF80DA1C01EB820292ED007AF4EEC77AF1EE10FA40F3A4801A1F01EB820292ED007AF4EEC77AF1EE10FA40F399801A1D01EB820292ED007AF4EEC77AF1EE10FA55
:4015000040F38E80A3F10A0201EB820292ED007AF4EEC77AF1EE10FA40F3828003F10A01724A02EB810292ED007AF4EEC77AF1EE10FA75DDB4EEE78AF1EE10FA70D508EB6A
:401540008402C2ED007A6BE0F4EEC77AF1EE10FA66D55A1C654901EB820292ED007AF4EEC77AF1EE10FA5BD59A1E01EB820292ED007AF4EEC77AF1EE10FA51D59A1C01EB6C
:40158000820292ED007AF4EEC77AF1EE10FA47D5DA1E01EB820292ED007AF4EEC77AF1EE10FA3DD5DA1C01EB820292ED007AF4EEC77AF1EE10FA33D51A1F01EB820292ED6C
:4015C000007AF4EEC77AF1EE10FA29D51A1D01EB820292ED007AF4EEC77AF1EE10FA1FD5A3F10A0201EB820292ED007AF4EEC77AF1EE10FA14D503F10A013C4A02EB8102D4
:4016000092ED007AF4EEC77AF1EE10FA08D5B4EEE78AF1EE10FA03DD09EB8402C2ED007A0133334A1268013A9342FFF4FBAD2246304907F1280011F0BBFCDFF8C4B007F177
:401640002801584602F04AFC2B49584602F046FC04F1FF3B4FEA8B037B600A3323F00703ADEB030D02A8A3000A3323F00703ADEB030D02A9002310E05AF8232007EE902A01
:40168000F8EEE77ADFF868E0DEED356A87EEA67A01EB830E8EED007A01339C42ECD8002313E05C1C01EB840EDEED007A9B0001EB030E9EED007A77EEC77ADFED106A86EE2F
:4016C000A77A034483ED007A23465B45E9D37B680A3323F00703ADEB030D02A9ADEB030D02AC4FF0000E2AE074560308043F0308D44202085C4A0910584A09100000704227
:40170000000066404FEA8E0305EB030CDCED007A06EB030C9CED007A77EEC77A01EB030CCCED007A08EB030ADAED007A4B4493ED007A77EEC77ACCED007A0EF1010EDE454C
:40174000E0D37B680A3323F00703ADEB030D0DF1080CADEB030D0DF1080EADEB030D02AD002239E09300CE18D6ED007A4D4ED6ED006A86EEA77AE618D6ED006A4A4E96ED18
:40178000006AC6EE267AC7EE276A0CEB0306C6ED006A464E96ED367A66EE877A26EEA77AD6ED377A66EEA77A77EE277A96ED387A77EE877A0EEB0306C6ED007AF7EE006AAF
:4017C00086EEA77A77EE267ADFED396A86EEA77A2B4483ED007A01325A45C3D3354C2246594609F027F8344E32465946284609F021F8306810F016F908F0BAFB10F016FC6B
:40180000DFF8D880C8F80000206810F00BF908F0AFFB10F00BFC294B18601A68284E314607F1180011F0C4FB264C07F11801204602F054FB244D2946204602F04FFBD8F8DD
:401840000020314607F1080011F0B2FB07F10801204602F043FB2946204602F03FFB1B4B1B68CBB91A4B1B7813F0FF0F0AD01948FEF7F8FED8F80000104B19680322FEF729
:401880007DFF09E01448FEF7EDFE144B18680B4B19680422FEF772FF7C37BD46BDEC028BBDE8F08FF86D0308FC6D0308D44202080000C842F46D0308003F0308CC42020859
:4018C0005C4A091000006640584A091018640208D042020874560308043F03082064020810B5642005F032F9104C114BE361114B2362114B636268236370204601F0ECFC71
:401900000B2363730423A3730023E373152222730C2262710322A271E37111232371204601F02AFD636A3220984710BD24640208991908103D1908104D6B08102DE9F041A2
:4019400082B0884616461D46114C124F009700231A460146204603F009F93B4600224146204603F071FA002406E00A4B0022315D074803F069FA0134AC42F6DB054A002128
:40198000034803F0D5F9002002B0BDE8F08100BF00006440D0F603082DE9F04383B08046894616461D461B4C1B4F009700231A460146204603F0DAF83B460022494620463A
:4019C00003F042FA0097002301224146204603F045F9002408E0104B00930023321919460C4803F0D7F901346B1E9C42F3DB1A46084C094D0095002332440121204603F0C2
:401A0000C9F92A460021204603F092F9002003B0BDE8F08300006440D0F60308000000002DE9F04F95B008F095F8FFF759FF744B002211A9012001F0C1FCBDF944000FF03F
:401A4000DFFF00224FF07C5310F040F806460F46BDF946000FF0D4FF00224FF07C5310F035F882468B46BDF948000FF0C9FF00224FF07C5310F02AF880468946304639461A
:401A800008F0C4FA00225F4B10F020F85AA3D3E9002310F045F9CDE90C015046594608F0B5FA0022574B10F011F853A3D3E9002310F036F9CDE908014046494608F0A6FA96
:401AC0000022504B10F002F84BA3D3E9002310F027F9CDE904014FF0000A642005F036F8474B002211A9012001F068FCBDF944000FF086FF00224FF07C530FF0E7FF0646D4
:401B00000F46BDF946000FF07BFF00224FF07C530FF0DCFF804689463046394608F076FA0022384B0FF0D2FF33A3D3E9002310F0F7F806460F464046494608F067FA002295
:401B4000304B0FF0C3FF2CA3D3E9002310F0E8F88046894632463B46DDE90C010FF002FE21F000450022284B294610F03FFA08BB42464B46DDE908010FF0F4FD009021F06C
:401B8000004301930022204BDDE9000110F02EFA80B9DDE90623DDE904010FF0E3FD029021F0004303930022174BDDE9020110F01DFA10B104F0CEFE8246CDE90C67CDE9F8
:401BC0000889DDE90623CDE9042304F0C3FECAEB0000B0F5FA7F03D908220C4B9A607CE70B4B1B7813F0FF0F3FF477AF0822074B5A6072E7AFF30080FC8E7065959E26404A
:401C000024640208008076400000044000003240C442020870B584B00646144C144D0095642300225721204602F0A0FF2B4664223146204603F008F9009564230122572184
:401C4000204603F00BF8002104AA02F8011D00956423204603F09EF82A466421204603F067F89DF80F0004B070BD00BF000063401CF70308F0B583B007460E460D4C0E4D37
:401C80000095642300225721204602F06FFF2B4664223946204603F0D7F82B4664223146204603F0D1F82A466421204603F040F803B0F0BD000063401CF703082DE9F0418C
:401CC00082B080460D4616461A4C1B4F0097642300225721204602F049FF3B4664224146204603F0B1F80097642301225721204602F0B4FF002409E00F4B009364232A19FD
:401D000000210C4803F046F80134E4B2731E9C42F2DB084E084F009764232A190121304603F038F83A466421304603F001F802B0BDE8F081000063401CF7030808B507F089
:401D40004FFF40210220FFF795FF4FF47A7003F099FEC0210220FFF78DFF00210320FFF789FF00210420FFF785FF00210520FFF781FF00210620FFF77DFF0F210820FFF788
:401D800079FF03210920FFF775FF27210A20FFF771FF24210C20FFF76DFF24210D20FFF769FF0020FFF736FF08BD00BF30B583B005460C46062269460720FFF77FFF9DF8EE
:401DC00000301B0403F440339DF8012003EB02239DF8022013442B609DF803301B0403F440339DF8042003EB02239DF805201344236003B030BD00BF70B58EB0204C208841
:401E00008000204E204D31182844FFF7CFFF228856F8223055F822201C4901A811F0C8F801A91B4802F05AF8238801339BB2238040F2EE22934203D10121A1700021A180A6
:401E400040F2DC52934205D10D4B01229A709A8000221A800F4B5A6920225A615B690E4BB3F90030002B09DB5A0903F01F03012101FA03F36032094941F822300EB070BDF5
:401E8000506402087C7A0308EC910308644A09100000664080043240E84A091000E100E010B5374C3749204603F0B2FDB4F90030002B08DB5A0903F01F00012181406032C7
:401EC000314840F82210002B08DB590903F01F03012202FA03F32C4A42F82130FFF72EFF2A4B9B78002BFBD0284B9888C8B11DE0274A52F8232007EE902AF8EE677A9A00AC
:401F000024491144C1ED007A234951F8231007EE901AF8EE677A21490A44C2ED007A013300E0002340F2ED229342E1DD012820D11AE003F2EE20164A52F8202007EE902ACD
:401F4000F8EE677A9A0013491144C1ED007A124951F8201007EE901AF8EE677A0F490A44C2ED007A013300E0002340F2ED229342DFDDFFF765F80022044B9A70B0E700BFF1
:401F8000E84A0910F91D081000E100E050640208EC910308902703087C7A0308483303082DE9F04180460E4617460A4C08256560702000F06FFD404600F06CFDA5606560BD
:401FC000722000F067FD3946304600F0C7FDA560BDE8F0810006324000B583B002AB03F8011D01221946FFF7DBFF03B05DF804FBF8B507460E46094C08256560702000F0A3
:4020000049FD384600F046FDA5606560732000F041FD304600F06EFDA560F8BD0006324038B50425084B5D60084C402363601023636000F0FFFC0822054B5A60656020235E
:40204000636000F0E1FC38BD00003240800232400006324010B5434C6F220021204610F02DFB631C236704F14E03636704F12203A36700F0C9FC03E000F0D0FC032868D86D
:4020800000F0AEFD0028F7D100F0CEFC00217220FFF7AEFF00F00F0002285CD14021FFF79BFF00210F20FFF7A3FF10F0800F54D002210B20FFF790FF08222B490120FFF71B
:4020C0006FFFD1210720FFF787FF02210820FFF783FFC2210920FFF77FFF03210420FFF77BFF01210320FFF777FF00210320FFF773FF0A2003F0C6FC002400E01C4601211E
:402100000520FFF769FF642003F0BCFC03210520FFF762FF322003F0B5FC0F210520FFF75BFF322003F0AEFC00210F20FFF760FF10F0400F05D040210220FFF74DFF2346CC
:4021400003E0631C9BB2042CD8D1032B07D9052010BD012010BD022010BD032010BD002010BD00BF58640208744A091010F1090F0EDB10F1040F0EDB05280FDD0A2810DD8A
:402180000F2811DD142811DD282811DC5A2210E04FF496620DE04FF461720AE04FF4167207E04FF4A57204E0DC2202E0B42200E03C22034BA3F87C20A3F87E20704700BFE7
:4021C000586402082DE9F84F06460D46047828B1CA4B984205D10127002403E00127FF2400E0002700F010FC4FF00008D0E1C8EBC80AC8EB0A1ADFF80C930AEB090B6F2222
:402200000021584610F05AFA0BF1010EBC4BC3F870E00AF148004844063058670AF1200AD14409F10209C3F878902022002397E10FB934780136032D00F29081DFE815F021
:4022400004006500C600270100EB030C14F0400F01D0C02100E080218CF8001049B214F0100F02D04FF0300A01E04FF0200A4AEA01018CF8001014F0040F02D04FF00C0A38
:4022800001E04FF0080A4AEA01018CF8001014F0010F02D04FF0030A01E04FF0020A4AEA01018CF800100EEB020C14F0800F01D0032100E002218CF8001049B214F0200FA6
:4022C00002D04FF00C0A01E04FF0080A4AEA01018CF8001014F0080F02D04FF0300A01E04FF0200A4AEA01018CF80010013A92B214F0020F02D06FF03F0A01E06FF07F0A6A
:402300004AEA01018CF8001028E100EB030C14F0400F01D0802100E040218CF8001049B214F0100F02D04FF0200A01E04FF0100A4AEA01018CF8001014F0040F02D04FF0B1
:40234000080A01E04FF0040A4AEA01018CF8001014F0010F02D04FF0020A01E04FF0010A4AEA01018CF800100EEB020C14F0800F01D0022100E001218CF8001049B214F00A
:40238000200F02D04FF0080A01E04FF0040A4AEA01018CF8001014F0080F02D04FF0200A01E04FF0100A4AEA01018CF80010013A92B214F0020F02D06FF07F0A01E04FF00B
:4023C000400A4AEA01018CF80010C7E000EB030C14F0400F01D0C02100E040218CF8001049B214F0100F02D04FF0300A01E04FF0100A4AEA01018CF8001014F0040F02D0F8
:402400004FF00C0A01E04FF0040A4AEA01018CF8001014F0010F02D04FF0030A01E04FF0010A4AEA01018CF800100EEB020C14F0800F01D0032100E001218CF8001049B208
:4024400014F0200F02D04FF00C0A01E04FF0040A4AEA01018CF8001014F0080F02D04FF0300A01E04FF0100A4AEA01018CF80010013A92B214F0020F02D06FF03F0A01E0B1
:402480004FF0400A4AEA01018CF8001066E000EB030C14F0400F01D0802100E0C0218CF8001049B214F0100F02D04FF0200A01E04FF0300A4AEA01018CF8001014F0040FDB
:4024C00002D04FF0080A01E04FF00C0A4AEA01018CF8001014F0010F02D04FF0020A01E04FF0030A4AEA01018CF800100EEB020C14F0800F08D0022107E000BFFFFF0F1039
:40250000586402085CA9030803218CF8001049B214F0200F02D04FF0080A01E04FF00C0A4AEA01018CF8001014F0080F02D04FF0200A01E04FF0300A4AEA01018CF8001042
:40254000013A92B214F0020F02D06FF07F0A01E06FF03F0A4AEA01018CF8001001339BB2202B7FF665AEC8F1AF031BB299101A4A134003D5013B63F003030133174A02FAD0
:4025800083F31B7A09F8013008F101081FFA88F8B8F1AF0F7FF62BAE00240FE0C4EBC403C4EB03136F220E4919440A20FFF7F8FC07210220FFF710FD0134A4B2AF2CEDD96E
:4025C000084BB3F87C4000F029FA8442E4D800F02BFABDE8F88F00BF03000080744A09105CA90308586402082DE9F04706460D4600F00AFAD2210920FFF7EEFC0024C6E0B6
:40260000C4EBC407C4EB0717DFF8008207EB08096F220021484610F051F809F1010C784BC3F870C007F1480EC6440EF1060EC3F874E02037B84408F10208C3F878802020F6
:4026400000218EE0771C32786E1C95F800900EEB010582EA090212F0400F04D019F0400F03D0802302E0402300E0C0232B705BB212F0100F05D019F0100F05D04FF0200A72
:4026800004E04FF0100A01E04FF0300A4AEA03032B7012F0040F05D019F0040F05D04FF0080A04E04FF0040A01E04FF00C0A4AEA03032B7012F0010F05D019F0010F05D071
:4026C0004FF0020A04E04FF0010A01E04FF0030A4AEA03032B700CEB000512F0800F04D019F0800F03D0022302E0012300E003232B705BB212F0200F05D019F0200F05D0A7
:402700004FF0080A04E04FF0040A01E04FF00C0A4AEA03032B7012F0080F05D019F0080F05D04FF0200A04E04FF0100A01E04FF0300A4AEA03032B70013880B212F0020FD6
:4027400005D019F0020F04D06FF07F0203E0402201E06FF03F0213432B70013189B235463E4620297FF66EAFC4F1AF031BB29910244A134003D5013B63F003030133224A0D
:4027800002FA83F31B7A08F801300134A4B2AF2C7FF636AF002421E0C4EBC405C4EB05151A4B1D446F2229460A20FFF7F9FB07210220FFF711FCC4F1AF0343F38D032B44F8
:4027C000002283F822206F2229460A20FFF7E8FB07210220FFF700FC0134A4B2AF2CDBD9074BB3F87E4000F019F98442D2D800F01BF9C2210920FFF7EFFBBDE8F08700BFA9
:402800005864020803000080744A09105CA90308002307E01349086F5522C254496FCA5401339BB2202BF5D970B5002416E0A6080C4DAA6F04F003030B490B441B7A935515
:402840006F2229460A20FFF7ABFB07210220FFF7C3FBAB6F00229A550134A4B2AF2CE6D970BD00BF58640208744A091008B5002304E00021094AD1540133DBB2152BF8D98C
:4028800000210420FFF7A8FB6F2204490A20FFF787FB07210220FFF79FFB08BD5864020838B50E4C1023A360142003F0EBF800F0D9F808220A4B9A604023A3600425A56000
:4028C0000A2003F0DFF865600A2003F0DBF8A5600A2003F0D7F8FFF7BDFB38BD800232400006324038B5FFF793FFFFF7BFFF1E2003F0C8F8234C40256560322003F0C2F87D
:40290000A56000210F20FFF773FB10F0400F36D000210B20FFF760FB01210320FFF75CFB03210520FFF758FB01210520FFF754FB322003F0A7F880210420FFF74DFB002134
:402940000520FFF749FB01210720FFF745FB1E2003F098F800F094F8102363606560142003F090F80822084B5A60042363602025A5601E2003F086F86560002038BD0420BA
:4029800038BD00BF800232400006324010B50446FFF746FB2046FFF7E9FB10BD08B510B1FFF77EFF01E0FFF79DFF08B9012008BD002008BDF8B507460E4614461D4613B1E5
:4029C0000120FFF7EBFF24B931463846FFF70CFE15E0631EDBB2012B11D800213846FFF7F1FB012C07D101213846FFF7EBFB02213046FFF7E7FB03213046FFF7E3FB15B145
:402A00000020FFF7CBFFF8BD08B50022024BC3F8082100F07FFD08BD00003840014BD3F808017047000038400122014B5A6070470000384010B5074C074A0849204602F08F
:402A4000FBFA236843F0004323600822044B9A6010BD00BF00006740ACF50308F04A0910000632400822044B9A60044A136843F000431360704700BF000632400000674006
:402A800008B50249024802F00BFC08BDACF503080000674008B50146154801F0C1F9144BD3F8C03F13F0040FF9D0114BD3F8042242F48032C3F80422D3F8042222F48032D0
:402AC000C3F80422D3F80422D3F8042342F48032C3F80423D3F8042322F48032C3F80423D3F804230422C3F8C02FD3F8C03F08BD0000674008B50146174801F091F9164B75
:402B0000D3F8C03F13F0040FF9D0134BD3F84003D3F8042242F48032C3F80422D3F8042222F48032C3F80422D3F80422D3F8042342F48032C3F80423D3F8042322F48032C5
:402B4000C3F80423D3F804230422C3F8C02FD3F8C03FC0B208BD00BF0000674038B50C46054600B121B940F2E6511B4802F0AEFF22462946194801F099F9184AD2F80832A9
:402B8000C3F30803D2F80822C2F3C032D342F4D1124BD3F8042242F48032C3F80422D3F8042222F48032C3F80422D3F80422D3F8042342F48032C3F80423D3F8042322F479
:402BC0008032C3F80423D3F804230422C3F8C02FD3F8C03F204638BD804A091000006740044B1B6913F0080F01D0012070470020704700BF8002324040B1C2694AB1026A2D
:402C000052B1436A5BB94FF0FF3070474FF0FF3070474FF0FF3070474FF0FF3070470020704700BF0222C271082343711021017103218171C2734373142303730023837306
:402C400043688360C3680361704700BF4B790C2B0BD84A7A93420BD0027802F0F00203F00F0313430370002070476FF00300704700207047CB79072B0CD8CA7A93420CD02D
:402C8000027802F08F021B0103F0700313430370002070476FF0030070470020704700BF8B790C2B0BD88A7A93420BD0027802F0F00203F00F0313430370002070476FF012
:402CC00003007047002070474B7B0D2B0BD84A7C93420BD0027802F0F00203F00F0313430370002070476FF00300704700207047CB7B022B09D8027802F0CF021B0103F059
:402D0000300313430370002070476FF0030070478B7B042B0BD88A7C93420BD0027802F0F80203F0070313430370002070476FF003007047002070477BB138B51C46DD6925
:402D400075B182B19B78012B01D140F0800013460A4601466078A84738BD4FF0FF3070474FF0FF3038BD6FF00B0038BD38B504460D460B46022201464020FFF7DDFF0346E5
:402D800080B929462046FFF761FF034650B929462046FFF76FFF034620B92946601CFFF77FFF0346184638BD38B504460D460B46022201464220FFF7BFFF034680B92946BA
:402DC0002046FFF781FF034650B929462046FFF78FFF034620B92946601CFFF799FF0346184638BD00B583B002A9002301F8013D034601220220FFF79FFF9DF80730C3F384
:402E00004303012B06D0022B07D0032B08D0072B0BD108E06FF0050007E06FF0060004E06FF0070001E06FF0080003B05DF804FB30B585B005460C460023019302938DF879
:402E40000C301346821D01A91220FFF775FF48BB02469DF805301B021BB29DF804100B4323809DF807301B021BB29DF806100B4363809DF809301B021BB29DF808100B43FA
:402E8000A380032D0BD19DF80A009DF80B309DF80C10090441EA03230343A36004E00023A36001E06FF00102104605B030BD00BF10B584B00C46134600210091019102919D
:402EC000CDF80B1010BB062269460C20FFF734FF0146002846D19DF801301B021BB29DF80020134323809DF803301B021BB29DF80220134363809DF805301B021BB29DF82C
:402F000004201343A3800023A36030E002460C3269460C20FFF710FF014630BB9DF801301B021BB29DF80020134323809DF803301B021BB29DF80220134363809DF805305C
:402F40001B021BB29DF804201343A3809DF80C009DF80D309DF80E20120442EA03230343A36004E06FF0010101E06FF00101084604B010BD70B584B006460D461446002284
:402F8000009201920292CDF80B2000F10C0269460C20FFF7D1FE002843D102469DF801301B021BB29DF800100B4323809DF803301B021BB29DF802100B4363809DF80530AB
:402FC0001B021BB29DF804100B43A3809DF807301B021BB29DF806100B432B809DF809301B021BB29DF808100B436B809DF80B301B021BB29DF80A100B43AB80032E0CD1E5
:403000009DF80C009DF80D309DF80E10090441EA03230343AB60A36005E00023AB60A36001E06FF00102104604B070BD2DE9F843002B34D00546894690461E461C6A002CA2
:4030400030D0002A31D09B78012B01D100F07F05337A112B02D0337C152B19D143464A4629467078A0470746736A0120984714E0376A012309EB040229467078B847074635
:403080000135EDB2736A012098470134E4B201E000242746A3B29845EAD85FB108E04FF0FF3707E04FF0FF3704E06FF00B0701E06FF001073846BDE8F88300BF10B582B073
:4030C000044602A8002320F8043D2146FFF74EFE0346B0B92346012201A94020FFF7A6FF034670B963796372E379E372234601220DF105014120FFF799FF034608B9A2795C
:40310000A272184602B010BD10B582B0044602A8002320F8043D2146FFF746FE0346B0B92346012201A94220FFF780FF034670B9637B6374E37BE374234601220DF105016B
:403140004320FFF773FF034608B9A27BA274184602B010BD30B583B004460D4600238DF807300B46012201464020FFF7E5FD034628BB2A79122A14D1237863F07F032370F0
:403180002B46012221464020FFF750FF0346B0B92B4602220DF107015820FFF747FF03460DE0227812F0800F09D002F07F0222702B46012221464020FFF738FF0346184600
:4031C00003B030BD30B583B000238DF807300279A2F11003DBB2022B1AD8037A9A421AD0044601460DF10700FFF7B4FF054698B923460122211D7E20FFF718FF0546237AF0
:40320000102B02D1636A052098472379237203E06FF0030500E00025284603B030BD00BF38B5027BA2F11403DBB2012B01D9172A1DD1037C9A421DD004460346012200F19D
:403240000C017E20FFF7F2FE0546237C142B03D1636A5120984707E0172B05D1237B152B02D1636A0A209847237B237403E06FF0030500E00025284638BD00BF30B583B05F
:40328000B6238DF80730F0B10446436AF3B1034601220DF107017E20FFF7C8FE0546636A0120984755B9A378012B07D1234601220DF107017F20FFF73FFD054645B920461A
:4032C000FFF7B0FC04E04FF0FF3501E04FF0FF35284603B030BD00BF30B583B00446FFF78BFC014650B9A378012B07D1234601220DF107017F20FFF71FFD014609BB0023F5
:403300002370032207E02346012221460020FFF713FD01462A46531EDDB212B12378D12BF1D149B92378D12B09D1FF23E3702046FFF7A4FF014604E06FF0020101E06FF04E
:403340000201084603B030BD60B1426A6AB110B50446FFF737FF034658B92046FFF760FF034606E04FF0FF3301E04FF0FF3318467047184610BD00BFB0B1426ABAB110B506
:403380000446FFF79BFE0346A8B92046FFF7BCFE034680B92046FFF7D7FF034658B92046FFF720FD034606E04FF0FF3301E04FF0FF3318467047184610BD00BF38B500F01F
:4033C000030510F0040F01D1002000E00320B3B11446022D08D0032D0CD0012D12D1A1B11A46FFF725FD38BD92B11A462146FFF75FFD38BD7AB189B1FFF7BCFD38BD4FF083
:40340000FF3038BD6FF0040038BD4FF0FF3038BD4FF0FF3038BD4FF0FF3038BD4FF0FF3038BD00BF10B582B002AC012344F8043D00231A461449154808F026FF21460AF0C4
:40344000EAFB0BF049F860B14FF48472B02100200BF027F94FF48472B02100200BF04DF90BE0B0224FF4847100200BF01AF9B0224FF4847100200BF040F9054900200BF080
:4034800027F902B010BD00BF989F0910CC9F091088440208012901D1002070474FF0FF30704700BF00487047D864020808B5012002F048FE014B186008BD00BF887B02089D
:4034C00008B500231A4619460248006802F066FD08BD00BF887B020808B54FF0FF31024B186802F059FF08BD887B020808B503F087FC08BD704700BF08B54FF40041034886
:4035000007F0DCFF024808F037FD08BD8C7B02081098091008B5084B1B783BB9074A0021074802F045FB0122034B1A70044B01229A609A6108BD00BF8CFB0208244B091023
:40354000000038401F4B98422DD00CD840282ED003D8E8B1102828D02FE0802829D0B0F5807F28D029E0184B984228D006D8B0F1204F0DD0154B984212D01EE0144B9842FC
:403580000AD00133984209D0023B984215D101E0002070470F4870470F4870470F4870474FF4A0007047074870470D4870470D4870470D487047034870470C4870474FF457
:4035C000A400704706005200010000F0090000A0040000F0010052000200520003005200010050000200500005005200FF00520038B5124B1B6893F83130012B04D840F250
:40360000C3110F4802F062FA0C4B1D682A6AB5F8B03013442C46D5F8B420D358002B0BDB084B1868FFF78EFF6B6801229A6063689B68002BFBD138BD034838BDD0F503085E
:40364000704B091090FB0208020050001A4B186128B102230370FF23437000234380174B1B6893F850202AB300B583B0B3F93830ADF80030002301931149684602F0C8F985
:40368000BDF90030002B08DB590903F01F03012202FA03F30B4A42F82130084B1B6893F8513023B102220849012000F0F3FA03B05DF804FB704700BF90FB0208D0F503089F
:4036C000FD45020800E100E0B546020808B50248FFF7BCFF08BD00BFA4FB02082DE9F04104460D46174698469DF81860072903D9D921354802F0EAF937F00F0303D0DA2148
:40370000314802F0E3F9B8F1010F03D9DB212E4802F0DCF936F01F0303D0DC212A4802F0D5F922680123AB4022EA030308F0010808FA05F843EA08032360244B1B6893F847
:403740007D100B59A8000F22824023EA020207F00F0303FA00F717430F51072D04D94FF422711B4802F0B2F936F01F0304D040F28921174802F0AAF9144B1B689A69A41A7F
:40378000E4095B6924011919032D0DD81959ED001F22AA4021EA020206F01F0606FA05F515431D51BDE8F081043D4A68ED001F23AB4022EA030306F01F0606FA05F51D43CE
:4037C0004D60BDE8F08100BFB04B0910D0F50308F04B091038B50B4B1B68D3F8B4301B58002B0DDA0D4604460B0C1B0423B140F2D521054802F06AF9A9B26160002038BD73
:40380000024838BDD0F50308304C091001008A0038B50368002B01DA002300E0094B73B90D460446C2600B0C1B0423B140F2BB21054802F04BF9A9B2A160002038BD014864
:4038400038BD00BF01008A00304C091038B504460D4619B99921084802F038F9074B1B68D3F8B4301B59002B03DAE3682B60002038BD034838BD00BF704C0910D0F503085C
:4038800001008A00254B1B6893F8313083423AD900293AD00B6813F01F0F38D170B50D4604461E4B1B6893F83130984204D340F2C3111B4802F00AF9184B1B68186AB3F82A
:4038C000B03004FB0304174E34602A68D208002168680EF0F3FE00212046FFF77BFF346825B940F293310E4802F0F0F82A4600212046FFF78DFF60B900210A4B1868FFF788
:4039000069FF40B970BD084870470748704706487047064870BD054870BD00BFD0F50308304C0910A8FB020803018A0001018A0010B504461346B2B9A9B9124B1B6893F867
:403940003130984204D340F2C3110F4802F0BEF80C4B1B681A6AB3F8B03004FB03240B4B1C60002010BD43B149B1084A51609360111D2046FFF786FF10BD054810BD04483C
:4039800010BD00BFD0F50308304C0910A8FB020803018A002DE9F0411B4B1B68DC68236883422CD90D464609A0EB4610012303FA00F819B902F0F5F8074600E00027124B14
:4039C00018680368002B01DA002300E00F4B83B9626852F8263018EA030F05D023EA080342F82630002400E0094C0021FFF7F2FE00E0084C25B9384602F0D7F800E0064C5F
:403A00002046BDE8F08100BFA8FB020801008A00020188000301880004018A000B4B1B68DB681A6882420CD94109A0EB4110012202FA00F05B6853F82130184203D0044819
:403A40007047044870470448704700BFA8FB02080101880004018A0000018800024B1B680BB9014B18607047B4FB02082DE9F8430446884691461D46089F2C4B1B681BB99B
:403A8000B5212B4802F022F8284B1B682C2000FB04F01C18EEB21E50C5F3072363602D0CA560244B1B6893F831309E4204D340F2C311214802F00AF81E4B1B68196AB3F849
:403AC000B02006FB02162661666893F832309E4204D340F2DF11184801F0F8FF154B1B681D6A803605EB46156561A668330C1B0423B14FF4FF71104801F0E8FF330C1B04C8
:403B000023B140F2FF110C4801F0E0FFB3B243EA0646AE60C4F81C90C4F820800023A36117B1B7F90030A381BDE8F883B4FB0208B04C0910D0F50308304C0910F0B58FB071
:403B4000044618B95221274801F0C0FFA369072B03D95621234801F0B9FFE36A1BB95821204801F0B3FF236B1BB959211D4801F0ADFF07AD04F114060FCE0FC537682F60CE
:403B800002AD26460FCE0FC533682B60164B1B68B3F93620079B1344ADF83030089B0D93A26AE16A0CAD00953B460A98FFF75EFF00210091069B0A460598FFF757FF216BB9
:403BC000284601F025FFBDF93030002B08DB590903F01F03012202FA03F3044A42F821300FB0F0BDB04C0910D0F5030800E100E0F8B506460F461D4614461AB9FD211F4844
:403C000001F064FF1E4B1B681BB9FE211B4801F05DFF1B4B1B682C2101FB063001FB07314B68012202FA03F31B04466802FA06F60269EAB18F69EFB91268002A01DA002231
:403C400000E0104AC2B92288134323600369DC6001238B614D620469330C1B0423B140F2BB21094801F032FFB2B2A2600020F8BD0648F8BD0648F8BD0548F8BDB04C09102D
:403C8000B4FB020801008A00304C091004028A0007028A00F8B505460F4616460E4B1B6823B94FF4AF710D4801F010FF0A4B1B682C2404FB0534236A23B94FF4B171074872
:403CC00001F004FFE369B34204D9236A43F826700020F8BD0248F8BDB4FB0208B04C09100A028A0070B582B000230193044620B940F2D111284801F0E9FE236923B94FF4E4
:403D0000E971254801F0E2FE636923B940F2D311214801F0DBFE236A23B94FF4EA711E4801F0D4FE6369DD682A0C20D012041A601B682069194B1B68D3F8B430C358002B1B
:403D400015DA01A9FFF782FD60B9019803681E0CDBB2E269934206D2226A52F8233013B1984700E0002631462069FFF733FDADB275B16369ADB21D601B68636A1BB1984749
:403D80000023636202E0A36A03B198470023A36163691B6802B070BDB04C0910D0F5030810B50446074B1B6823B940F2B111064801F08CFE034B1B682C2000FB0430FFF7A0
:403DC00091FF10BDB4FB0208B04C091010B4D0F8003303F00F03072B06D900230DE0D0F84043CC54013300E000239342F7D306E0D0F8404321F8134001339342F8D35DF8AC
:403E0000044B704710B51446D0F80833C3F308039A4200D31C462246FFF7D8FF204610BD036813F4006F01D0802200E04022D0F80832C3F30803934203D0C0F840120120F4
:403E400070470020704700BF10B4D0F8003203F00F03072B06D900230DE0CC5CC0F84042013300E000239342F7D306E031F81340C0F8404201339342F8D35DF8044B70470E
:403E800010B51446036813F4006F01D0802200E04022D0F80832C3F30803D31AA34200D81C462246FFF7D0FF204610BDF8B507460D461446D0F8006206F00F060BE02246EF
:403EC00029463846FFF7DCFF072E01D9430000E003461D44241A002CF1D1F8BD30B4036813F4006F01D0802200E04022002408E0D0F80832C3F308039A42F9D0C0F840520F
:403F000001340D5D002DF3D130BC704702E0C0F84012013A002AFAD1704700BF10B51446036813F4006F01D0802200E04022D0F80832C3F30803D31AA34200D81C462246D0
:403F4000FFF7E4FF204610BD10B54A6841F201039A4231D1D0F80833C3F30803B3B10B6A43F040030B620B7873B1D0F8043343F48033C0F80433D0F8043323F48033C0F829
:403F80000433D0F8043301E0D0F840330B6A43F020030B620B6A23F010030B62036E23F4204303660023C0F8C83F0123C0F8C03FD0F8C03F202221E0D0F80832C3F3080292
:403FC000D0F80832C3F3C03313440A6BD21A4A630A6A12F0080F05D1CA6A1A44CA628A6AD31A8B620B6A43F004030B620B6A23F001030B620023C0F8883F1022D0F84C4F76
:4040000040F201131C420DD0036823F00043036000238366C366036843F000430360036842F040024FF080534B604B6C0BB11046984710BDD0F80C3F13F0020F1DD0022219
:40404000C0F8002FD0F8002FD0F8002F12F0040F02D04FF4001001E04FF480108A6802438A604A68B2F5B81F07D00A7B12B14FF4C01201E04FF4B0124A6013F4807F03D08F
:404080008A6842F400028A6013F0010F03D08A6842F480028A6040F21112134202D04FF4C0134B60704700BF0023C0F8C83FC0F8883F836E23B140F21713C0F8083F704787
:4040C00040F21313C0F8083F182383664FF4B8134B60704738B5D0F80C4F036E23F4807303660023C0F8C83FC0F8883FC0F8083F40F21713C0F8003FD0F8003F8B6823F41D
:4041000080338B604B7B13B18B69CB610BE08D69D0F80822C2F30802D0F80832C3F3C0331344EB1ACB6140F201131C421BD0036E9B0F032B05D114F4827F14BF01230023A1
:4041400000E001235BB1036823F00043036000238366C366036843F00043036003684FF080534B601BE00B7893B1D0F8043343F48033C0F80433D0F8043323F48033C0F84F
:404180000433D0F804330123C0F8C03FD0F8C03F0B7B0BB10B4B01E04FF080534B604A6C72B14B7B13B14FF4802001E04FF400308B6813F0F87301D04FF40023184390478D
:4041C00038BD00BF000010100346002940DB11F0C00F06D0002181664FF0805050602F4844E011F4807F36D111F0010F0ED050682B49884232D1196E11F0804F0CBF01211F
:4042000000214FF08050506026482FE011F0020F06D050682249884223D10021224825E011F0100F05D04FF080515160002108461CE050681A49884216D1517B11B14FF40A
:40424000881101E04FF4A0115160002108460DE0012116480AE00121154807E00121114804E00021134801E00021084679B1196821F00041196000219966D966196841F041
:40428000004119601B684FF080535360704740F21712C3F8002FD3F8003F70470820AA00000013100620AA000420AA000320AA000720AA000520AA00036853B110B50446C1
:4042C000012001F0F7FB2368013B23601BB1002010BD002070474FF0004010BD70B505460C4691F8243013F0FF0F0ED1CB6A63B94B6C0BB108209847E36AB3FA83F35B0966
:4043000084F824300123C5F8883F94F8243013F0FF0F16D063783BB12B6813F4006F01D0802202E0402200E00122FF212846FFF7F5FD236B18442063236A43F00803236271
:4043400070BDE26A012A11D963780BB1013A00E00122A16A2846FFF793FD236B03442363E36A1B1AE362A36A1844A062D5F80832C3F30803802B23D0E36A012B20D101F08D
:4043800010FCA36A1B78C5F840324026C5F8806FD5F8803F01F009FC236B013323630023E362A36A0133A362C5F8886F63783BB1236A43F002032362636C0BB10420984745
:4043C00070BD00BF38B54B68B3F5A81F03D14FF4C0134B6038BD4B68B3F5A01F4DD10C4605464A69012A11D94B780BB1013A00E0012221692846FFF743FDA3690344A36159
:4044000063691B1A6361236903442361D5F80832C3F30803802B14D06369012B11D101F0C0FB23691B78C5F840324023C5F8803FD5F8803F01F0B9FBA3690133A3610023BE
:4044400063616369CBB9237B33B14023C5F8883F4FF4A813636005E00023C5F8883F4FF4B0136360637843B1A36843F40033A360636C13B14FF48030984738BD70B5044699
:404480000D468A6C82B3036813F4803F06D0D0F84C3F13F0400F03D0022002E0002000E00020236E13F4006F06D1D4F84C3F13F0800300D001231843C0B190470123C4F8A9
:4044C000C03FD4F8C03F024648B91023C4F8403FD4F8403F40F2D113C4F8483F07E040F2C113C4F8483F02E0002200E00022D4F8043243F48033C4F80432D4F8043223F46A
:404500008033C4F80432D4F804320AB9012300E00223E366002A59D1666E06F010066B6C23B10EB1012000E0022098477EB141F202036B602B6A43F001032B626B6B2B6310
:40454000002385F824300123C4F8883F70BD41F201036B602B6A43F010032B620123C4F8C83F2B78BBB1EB6BBBB1236E43F400532366ED6B802D05D9A5F18003802B0ED820
:40458000813D0DE0013D236E43F4004323660023C4F8C83F04E0002502E0002500E03F25236813F4006F01D0802300E040239D4204D34FF42071064801F088FAD4F804333E
:4045C00023F0FF03EDB21D43C4F8045370BD00BFF04C091038B54B68B3F5881F03D0B3F5901F1AD038BD0B69D0F840231A708B6901338B614B69013B4B612BB10B690133FE
:404600000B610423836638BD0B7B13B14FF4C01301E04FF4B0134B6038BD0C4605464A690969FFF7EFFBA3690344A36163691B1A6361226910442061012B24D82B6E23F42C
:4046400080732B666369012B16D12B6813F4006F01D0802300E0402323B94FF42071184801F034FAD5F8043323F0FF03C5F804334FF48813636038BD0023C5F8C83F4FF41B
:40468000B013636038BD402B01D89C1E00E03F242B6813F4006F01D0802300E040239C4204D34FF42071064801F010FAD5F8043323F0FF02E3B21343C5F8043338BD00BF01
:4046C000F04C091038B5CB6B002B50D00B78002B3FD00C460546D0F80423D2B20132896BFFF790FB236C03442364E36B1B1AE363A26B1044A063802B06D9A3F18002802AAE
:404700000FD8A3F181040DE02B6E43F400432B66E36B0BB15C1E00E000240023C5F8C83F00E03F242B6813F4006F01D0802300E040239C4204D34FF42071104801F0C6F9E5
:40474000D5F8043323F0FF02E3B21343C5F8043338BD0123C3668A6B0B6CD0F84003D0540B6C01330B64CB6B013BCB6338BD0223C3660023C0F8C83F38BD00BFF04C09107D
:40478000F8B50B78012B03D00C7A1CB9002702E0002700E00127002800F0A780002900F0A680002A00F0A58016460C460546013BDBB2022B03D94F214F4801F087F963785C
:4047C00003B163791BB150214B4801F07FF994F90330002B03DA5121474801F077F9237913F0010F03D05221434801F06FF92369102B03D95321404801F068F9E368102B76
:4048000003D954213C4801F061F9637913B14FF4803100E00021E27912B14FF4807300E000230B4343F400632B60A37913B94FF4006300E000232269013A02F00F021A4342
:40484000E368013B1B01DBB21343227843EA82732B6617B140F2073301E040F20713C5F800330FB1254B00E0254B2B6763780BB17F2300E00023C5F80433E3785B00DBB28F
:40488000227943EA0243C5F810331E4BC5F80032A3780BB1402300E00123C5F804320023C5F8C83EC5F8883EC5F8C83FC5F8883FC5F8083F2378022B02D040F2D11300E01D
:4048C0000023C5F8483F63783370A37873704FF0805373600020B060B06130623064F0633063F0627064B064F8BD0748F8BD0648F8BD0548F8BD00BF344D091003002A0025
:4049000013102A00070101000120AA0038B505460C4621B940F2C321194801F0D7F82B6E9B0F012B17D1174B2344174A93421ED9A4F5BD13A3F5D66302F5611202F5616210
:40494000934216D9A4F57104A4F533440F4B9C4211D80F4838BD84B1286EC0F303102B6E03F00F0318440230B4FBF0F038BD094838BD094838BD002038BD002038BD00BF32
:40498000344D091020AD88FF405B730040555C0440420F00801A0600A08601002DE9F84307468846914622B940F21221624801F08DF808F1FF34614B9C4204D940F2132112
:4049C0005D4801F083F83B6E9B0F012B0DD149463846FFF79BFF0546D7F8003323F40073C7F80033564B3B67A2E0544B9C421FD8544B984509D8A9F5BD13A3F5D663524A72
:404A0000934218D90021012328E0504B984507D84F4B4B444F4A934213D9002101231DE04D4B4B444D4A934212D90021012315E00021012312E0002141F288352E460B4682
:404A40000CE000214FF461754FF4C8660B4605E001214FF4BE754FF41B760023002B66D13F4BB3FBF9F3B6FBF3F404FB03F2964200D90134102C00D910240F2C8CBF0022F1
:404A80000122B5FBF3F606FB03F39D4200D90136102E00D91026A519B9FBF5F50FE022B10F2C09D80134002206E00F2E04D801360F2C8CBF00220122A519B9FBF5F545458F
:404AC00002D9A3191F2BEAD941B1D7F8003343F40073C7F80033234B3B6707E0D7F8003323F40073C7F80033154B3B67E31F092B04D940F283511C4800F0E8FF3B6E23F0FB
:404B0000F003013C2401E4B223433B66731F0B2B04D94FF4B461144800F0D8FF3B6E23F00F03013E06F00F061E433E6600E000252846BDE8F88300BF344D09103F420F00CA
:404B400013102A00A0860100502D1900801A060020AD88FFA0432100807E25FFC02BAF0000CA9A3B03002A00744D09102DE9F04182B005460C4617469846089E11F0800F4A
:404B800004D04FF4D961314800F0A0FF304B984504D940F2C9612D4800F098FF012F04D940F2CA61294800F091FF0023C5F8483F7368B3F1805F41D14FF47A7303FB08F3B4
:404BC0000193244B7360012F14BF00230123737340F21713C5F8003FD5F8003F0423C5F8C03FD5F8C03FD5F8043243F48033C5F80432D5F8043223F48033C5F80432D5F82F
:404C000004326400E4B23C43C5F840420223AB66D5F8004F24F0F804E405E40DD5F8403F03F0C0031C4301A8FFF746FB54EA0001EED032462846FFF7C7FA00E0064840F20F
:404C4000D113C5F8483F02B0BDE8F081344D091037894100000013100220AA002DE9F04182B005460F4614469846089E11F0800F04D040F229712A4800F028FF294B9845B9
:404C800004D940F22A71264800F020FF012C04D940F22B71224800F019FF736813F4801F39D04FF47A7303FB08F301931E4B7360012C14BF0023012373736B6E13F0200FC8
:404CC00001D0092300E00123AB666B6E13F0200F05D0002009E001A8FFF7EEFA00E0002018B9AB6E13F0010FF5D170B97F00FFB23C43C5F84042D5F8000F40F207140440EB
:404D000001A8FFF7D9FA2043F5D0324601462846FFF75AFA00E0054802B0BDE8F08100BF344D091037894100000013100220AA0070B582B005460C461646134B994204D9BE
:404D400040F28C71114800F0C1FE736813F4801F17D04FF47A7303FB04F401941823AB66D5F8004F24F0EE04E405E40D01A8FFF7A3FA54EA0001F3D032462846FFF724FA59
:404D800000E0034802B070BD37894100344D09100220AA002DE9F04383B0074688461C460A9D914622B94FF4FB61244800F08EFE234B9C4204D940F2D971204800F086FE28
:404DC000B8F1010F04D940F2DA711C4800F07EFE6B68B3F5881F2BD14FF47A7303FB04F40194D7F8C06F06F00406D7F8001F40F201140C4001A8FFF75FFA44EA00010EB98A
:404E00000029EED046B1D7F8403389F800300523C7F8C03FD7F8C03F2A463846FFF7D4F9034630B9B8F1000F03D10422BA6600E0044B184603B0BDE8F08300BF344D091087
:404E4000378941000220AA00F0B583B005460F4614461E46134B9A4204D940F63201124800F034FE7368B3F5A01F17D14FF47A7303FB04F40194C5F84072D5F8004F24F0AF
:404E8000F804E405E40D01A8FFF716FA54EA0001F3D032462846FFF797F900E0034803B0F0BD00BF37894100344D09100220AA0070B504460E46D0F88C3E13F0010F07D00F
:404EC0004FF480534B600123C0F8803ED0F8803ED4F84C5F40F201131D420FD0336A15F4807F02D04FF4807200E08022134333620023C4F8C83F45F010050EE015F0100F7B
:404F00000BD0D4F80833C3F3080333B1F36B23B10123C4F8C43FC4F8C83FD4F8CC3F13F0010F08D031462046FFF7CCFB0123C4F8C03FD4F8C03F15F0100F0AD03146204631
:404F4000FFF702F81023C4F8403FD4F8403FD4F84C5F15F0C00F0DD031462046FFF78EFA0123C4F8803ED4F8803EC023C4F8403FD4F8403FD4F88C3F13F0410F08D031463B
:404F80002046FFF7ABF90123C4F8803FD4F8803F70BD00BF70B506460D46D0F8004E14F0020F0AD0836E2BB1002383668B6843F080738B604FF4C0136B6014F0010F05D06B
:404FC00029463046FFF736F824F0040414F0080F08D029463046FFF7FDFA0123C6F8C03FD6F8C03F14F0040F08D029463046FFF7E9F90123C6F8803FD6F8803F6B68B3F5C4
:40500000C01F03D129463046FFF764F86B68B3F5B01F03D129463046FFF746F870BD00BF08B54B6813F4801F02D0FFF7B3FF08BDFFF73EFF08BD00BF002800F02481F8B5ED
:405040000546002900F0218117460C460B78012B03D93F218F4800F039FD6378012B07D9052B05D0022B03D040218A4800F02EFDA378032B03D94121864800F027FD237855
:40508000012B07D16368023B0E2B03D94321814800F01CFDA36933F00F0303D044217D4800F014FDA368043B0C2B03D94521794800F00CFDE368043B0C2B03D9462175481C
:4050C00000F004FD6378022B07D0A268E3689A4203D047216F4800F0F9FC636A33F06D0303D049216B4800F0F1FCE36A33F0730303D04A21674800F0E9FC236B33F42063CB
:4051000003D04B21634800F0E1FC6378A678052B07D8DFE803F0060305060603022600E00026A368082B04D8E368082B03D9002302E0002300E0012313B14FF4006200E0C2
:405140000022237F13B14FF4807300E000231A436368013B03F00F03134343F080732B60226A2B6813F4006F01D0802300E040239A4203D35821474800F0A8FCA26A2B68C5
:4051800013F4006F01D0802300E040239A4203D35921404800F09AFC237D0BB9012100E000216278052A01D1022300E000230B43E17C09B1102100E000210B43617C09B182
:4051C000202100E000210B432178012902D14FF0004100E000210B43B60006F00C063343A169090201F470610B43120602F0407213432B62237C13B14FF4807200E0002224
:40520000A37C13B14FF4007300E000231A43A368013B03F00F031343C5F8003394F82030C5F80433237C13B14FF4807200E00022E368013B03F00F031343C5F8003294F81C
:405240002830C5F80432636A03F06D03C5F8C83FE36A03F07303C5F8883F236B03F40073C5F8003F236B03F40063C5F8403F0023C5F8C83E5FB118463B60BB61FB60FB61DB
:40528000054B3B62F8BD054870470448F8BD0020F8BD00BFB44D0910EFCDAB000140AA00036823F00043036019B100220A60CA608A61036A002B04DB0023C0F8C83FC0F8A7
:4052C000883F70472DE9F84305460C46036813F4006F02D04FF0800801E04FF04008D5F8007207F00F07A26A012A19D9D4F82490E262561EB9F1000F00D026B940F2735155
:40530000254800F0E3FB324649462846FEF7B8FDA36A1B1AA362072F00D9400048446062D5F80832C3F30803984533D0A36A012B30D10023A362072F02D8636A1E7801E0D1
:40534000636A1E8800F02DFCC5F840624FF40073C5F8803FD5F8803F00F027FCD5F8883F23F4007222F0010242F4007623F4EE6323F0030323B140F22A41084800F0A6FBC0
:40538000C5F8886F236843F002032360236B0BB101209847BDE8F883F44D0910F04C09102DE9F04105460C46036813F4006F01D0802600E040267608A769D4F81C8017B19A
:4053C000B8F1000F04D14FF49961314800F07EFB424639462846FEF715FD236A03442362E3691B1AE36173BBA368FBB1E3689E4201D8013E00E05E1E2B6813F4006F01D009
:40540000802300E040239E4204D34FF42071214800F05CFBD5F8043323F0FF03F6B21E43C5F804630123C5F8C83F02E00023C5F8C83F636823F001036360236B33B3042017
:405440009847BDE8F081A169D5F8002302F00F02072A00D940000844A0619E4216D95C1E2B6813F4006F01D0802300E040239C4204D34FF42071074800F028FBD5F80433AB
:4054800023F0FF02E3B21343C5F80433BDE8F081F44D0910F04C0910002800F0A48170B50546002900F0A18116460C460B78022B03D93F21A24800F009FB637B023BDBB22C
:4054C000062B03D940219E4800F000FBA37B3BB1022B05D0032B03D04121994800F0F6FA94F82130012B03D94221954800F0EEFA94F82830012B03D94321914800F0E6FA47
:405500002378012B06D86368083B082B94BF0023012307E0A37F2BB16368013B062B94BF002301231BB14521854800F0CFFAA368053B042B03D94621814800F0C7FA636979
:40554000FF2B03D947217E4800F0C0FAA369FF2B03D948217A4800F0B9FAA37C6BB1237833B9A368092B05D1A37B2BB1012304E0012302E0012300E000231BB14A21704878
:4055800000F0A4FA636B23F4366323F00D031BB14C216B4800F09AFAE36B23F4EE6323F003031BB14D21664800F090FA2378022B01D1A37F13B16268013A00E00022237FF2
:4055C00013B14FF4803100E00021A368082B02D84FF4006300E000230B4302F00F02134343F000732B60226B2B6813F4006F01D0802300E040239A4203D36221504800F04F
:4056000065FAA26B2B6813F4006F01D0802300E040239A4203D36321494800F057FA626A2B6813F4006F01D0802300E040239A4203D36421424800F049FA23781B0603F007
:4056400040732B64637F0BB1402200E00022A37C13B14FF4806300E000231343227C12B14FF4807200E000221343627C12B14FF4007200E000221A43E36A013B1B0403F442
:4056800070231343627B013A02F007021343A27B120102F030021343AB64237B13B14FF4807200E00022E37B23B92378022B03D1012302E0012300E0002313B14FF40073C9
:4056C00000E000231A43A368013B03F00F031343C5F80033227DA3691B0403F47F031343C5F81033E26AD5F8003303F00F0303339A4201D3102A03D97A21114800F0E6F90F
:40570000E37F23B12378012B03D0002302E0002300E0012313B14FF4807200E00022637B013B03F007031A43A37B1B0103F0300313436B64237B2BB14FF4807203E000BF28
:40574000344E09100022A368013B03F00F0313432278012A02D14FF4803200E000221343C5F8003294F83030C5F8043394F8203013B14FF0007200E0002294F82130012BBA
:4057800002D14FF0807300E00023134394F82820012A02D14FF4803200E00022134394F8242013432B6594F83830C5F80432636B23F4926323F002031B051B0DC5F8C83FD1
:4057C000E36B23F08C035B055B0DC5F8883F76B1002070603060B060F0603062F0623063044B736370BD04487047034870BD002070BD00BFEFCDAB000160AA000B694A697D
:40580000934202D34869181A7047CA694869101A184470472DE9F04107460D46036813F4006F02D04FF0800801E04FF040084FEA5808D7F80863C6F308062C6926E00134D0
:40584000EB689C4200D100246B699C420FD12B6B0BB1082098476B699C4208D10023C7F8C83F0CB1013C13E0EC68013C10E0D7F84023D7F8003303F00F03072B02D8AB68DD
:405880001A5502E0AB6823F81420013E002ED6D12C61EC6829463846FFF7B0FF201A804519D908B1441E00E000243B6813F4006F01D0802300E040239C4204D34FF4207145
:4058C000064800F003F9D7F8040320F0FF03E0B21843C7F80403BDE8F08100BFF04C091038B504460D46D0F8003E13F0080F35D0D0F8CC3F13F448730AD04A681A434A60D2
:40590000C0F8C03FD0F8C03F0B6B0BB110209847D4F8CC3F13F4006F09D06B6843F400636B604FF40063C4F8C03FD4F8C03FD4F8CC3F13F0010F11D0EB6923B12946204656
:40594000FFF72EFD05E0AB681BB129462046FFF761FF0123C4F8C03FD4F8C03FD4F8003E13F0040F2ED0D4F88C3F13F4A0630AD02A681A432A60C4F8803FD4F8803F2B6BBF
:405980000BB120209847D4F88C3F13F0010F08D029462046FFF796FC0123C4F8803FD4F8803FD4F88C3F13F4007F0BD00022C4F8882F2B6823F001032B60EA622B6B0BB1A3
:4059C0000220984738BD00BF38B50D4B9A680D4B9A420FD10D46044621B940F237110A4800F074F804F11003064A52F8230042F8235038BD1030054B53F8200038BD00BFE2
:405A000000ED00E000400208744E09100000081048B338B504460D464368072B03D93221134800F053F8B4F900306268002B08DB5201D2B203F1604303F5614383F80023D8
:405A400005E003F00F035201D2B20A49CA540A4B9A680A4B9A4208D12946B4F90000FFF7B3FF002038BD06487047002038BD00BF744E091014ED00E000ED00E0004002080E
:405A80000100560010B5044605E0084B186800F07FF8A4F50044B4F5004FF6D8044B186800FB04F000F074F810BD00BFA8420208A442020808B5034B1B7800FB03F000F0B8
:405AC00067F808BDA042020801BEFEE738B50D46044C1822014620460DF096FAA5610020FFF7F2FF284B0208FEE700BF08B50268254BDA6142681A6282685A62C2689A62FC
:405B00000269DA6242691A6382695A63C2699A631E4A916AD963D16A1964516A5964516B9964926BDA64F1EE103A13F0900F27D0026A154B1A65426A5A65826A9A65C26A74
:405B4000DA65026B1A66426B5A66826B9A66C26BDA66026C1A67426C5A67826C9A67C26CDA67026DC3F88020426DC3F88420826DC3F88820C26DC3F88C20026EC3F89020DB
:405B8000FFF7B2FF08BD00BF284B020800ED00E00230800803D001300238FCD100BF00BF7047EFF3108072B6704780F31088704700287DD00346002A7CD070B45068000251
:405BC00080B29568AD0405F480252843D468240404F4403404431069000600F0E0602043147F0CB1012400E0002420430C1DA4011851D06828B903EB81100024C0F80841C3
:405C00000CE0012805D1146803EB8110C0F8084104E003EB81100124C0F80841106938B9546903EB8110C0F80C419469C0F81041146803EB8110C0F81441906CB0F1FF3F60
:405C400017D0946A04F00F04166B360206F470663443956B2D0405F470252543146C2403A4B22C430001C0B2204303EB8114C4F82001506A00F00300D66A360106F030061F
:405C80003043556B2D0205F440752843D46BA401E4B20443506C800000F00C00204303EB8113C3F82401126AC3F83821002003E0024870470148704770BC70470100B6007D
:405CC000014B1860704700BFD0F5030800F1080343604FF0FF328260C360036100230360704700BF00230361704700BF43684B609A688A609A685160996008610368013333
:405D00000360704730B40D68B5F1FF3F01D1026907E000F1080200E01A4653681C68A542FAD253684B6099608A605160086103680133036030BC70470369426881689160C3
:405D40008268416851605A68904201D182685A60002202611A68013A1A601868704700BF436A23B1036B1868C0F1070070470020704700BF10B5044601F09CFBA26BE36BBD
:405D80009A4201D1012400E0002401F0B5FB204610BD00BF10B5044601F08CFBA36B0BB9012400E0002401F0A7FB204610BD00BF70B504461646856B026C3AB9036843BBED
:405DC000406801F087F80023636029E06EB980680CF04EFCA268236C1344A3606268934219D32368A36000201AE0C0680CF040FC236C5B42E2681A44E26021688A4202D282
:405E000062681344E360022E07D145B1013D002006E0002004E0002002E0002000E000200135A56370BD00BF026C72B110B50346C4681444C4604068844201D31868D8602B
:405E40000846D9680CF014FC10BD704738B5054601F030FB95F8454064B20AE06B6A53B105F1240000F036FF08B100F0C1FF013C64B2002CF2DCFF2385F8453001F03CFB93
:405E800001F018FB95F8444064B20AE02B6953B105F1100000F01EFF08B100F0A9FF013C64B2002CF2DCFF2385F8443001F024FB38BD00BF38B540B94FF03F0383F3118837
:405EC000BFF36F8FBFF34F8FFEE704460D4601F0F1FA2168E26B236C03FB021060600020A063A160013A02FB0313E360FF2384F8443084F845307DB92369ABB104F11000F4
:405F000000F0E8FE80B14FF08052094B1A60BFF34F8FBFF36F8F07E004F11000FFF7D6FE04F12400FFF7D2FE01F0E6FA012038BD04ED00E010B5029B0C4609B91B6000E01D
:405F40001A60D8631C6401211846FFF7B3FF10BD40B94FF03F0383F31188BFF36F8FBFF34F8FFEE7F0B583B0034611B101FB00F000E000201D4617460C46483001F0DCFB28
:405F8000064638B100903B4600F1480221462846FFF7D0FF304603B0F0BD00BFF0B585B0019240B94FF03F0383F31188BFF36F8FBFF34F8FFEE7044619B9026C1AB9012296
:405FC00002E0012200E0002242B94FF03F0383F31188BFF36F8FBFF34F8FFEE7022B03D1E26B012A02D102E0012200E0002242B94FF03F0383F31188BFF36F8FBFF34F8FCC
:40600000FEE71D460E4600F001FF18B9019B1BB9012302E0012300E0002343B94FF03F0383F31188BFF36F8FBFF34F8FFEE7002701F040FAA26BE36B9A4201D3022D21D137
:406040002A4631462046FFF7B3FE636A6BB104F1240000F03FFE88B14FF08052324B1A60BFF34F8FBFF36F8F08E038B14FF080522D4B1A60BFF34F8FBFF36F8F01F03CFA41
:4060800001204EE0019B1BB901F036FA002048E01FB902A800F062FE012701F02DFA00F04FFC01F007FA94F844305BB2B3F1FF3F02D1002384F8443094F845305BB2B3F1F2
:4060C000FF3F02D1002384F8453001F015FA01A902A800F04DFEF0B92046FFF74BFEA0B1019904F1100000F0BDFD2046FFF7AEFE00F0B4FC00289BD14FF080520A4B1A60E8
:40610000BFF34F8FBFF36F8F92E72046FFF79EFE00F0A4FC8CE72046FFF798FE00F09EFC002005B0F0BD00BF04ED00E048B108B5002141600160C1600B460A46FFF72EFF5F
:4061400008BD704710B5024600210120FFF700FF0446FFF7EBFF204610BD00BF2DE9F84340B94FF03F0383F31188BFF36F8FBFF34F8FFEE7044619B9006C18B9012002E0E8
:40618000012000E0002040B94FF03F0383F31188BFF36F8FBFF34F8FFEE7022B03D1E06B012802D102E0012000E0002040B94FF03F0383F31188BFF36F8FBFF34F8FFEE717
:4061C0001F469046894601F079FAEFF311864FF03F0383F31188BFF36F8FBFF34F8FA26BE36B9A4201D3022F1ED194F845506DB23A4649462046FFF7DBFDB5F1FF3F0DD178
:40620000636A9BB104F1240000F064FD80B1B8F1000F0FD00120C8F800000CE06B1C5BB284F84530012006E0002004E0012002E0012000E0012086F31188BDE8F88300BFA0
:40624000F0B585B0019240B94FF03F0383F31188BFF36F8FBFF34F8FFEE7044619B9036C1BB9012302E0012300E0002343B94FF03F0383F31188BFF36F8FBFF34F8FFEE7C6
:406280000E4600F0C3FD18B9019B1BB9012302E0012300E0002343B94FF03F0383F31188BFF36F8FBFF34F8FFEE7002701F002F9A56BC5B131462046FFF7B6FD013DA56356
:4062C000236963B104F1100000F004FD38B14FF08052304B1A60BFF34F8FBFF36F8F01F00BF9012053E0019B1BB901F005F900204DE01FB902A800F031FD012701F0FCF837
:4063000000F01EFB01F0D6F894F844305BB2B3F1FF3F02D1002384F8443094F845305BB2B3F1FF3F02D1002384F8453001F0E4F801A902A800F01CFDF0B92046FFF72AFD93
:40634000A0B1019904F1240000F08CFC2046FFF77DFD00F083FB0028A8D14FF080520D4B1A60BFF34F8FBFF36F8F9FE72046FFF76DFD00F073FB99E72046FFF767FD00F0BF
:406380006DFB2046FFF706FD00288FD0002005B0F0BD00BF04ED00E070B584B0019140B94FF03F0383F31188BFF36F8FBFF34F8FFEE70446036C43B14FF03F0383F31188A7
:4063C000BFF36F8FBFF34F8FFEE700F01FFD18B9019B1BB9012302E0012300E0002343B94FF03F0383F31188BFF36F8FBFF34F8FFEE700252E4601F05DF8A36BCBB1013BA8
:40640000A363236813B900F005FE6060236963B104F1100000F05EFC38B14FF08052414B1A60BFF34F8FBFF36F8F01F065F8012076E0019B6BB945B14FF03F0383F3118812
:40644000BFF36F8FBFF34F8FFEE701F055F8002066E01EB902A800F081FC012601F04CF800F06EFA01F026F894F844305BB2B3F1FF3F02D1002384F8443094F845305BB2BF
:40648000B3F1FF3F02D1002384F8453001F034F801A902A800F06CFC40BB2046FFF77AFCF0B123683BB901F005F8606800F0BEFC054601F021F8019904F1240000F0D2FB38
:4064C0002046FFF7C3FC00F0C9FA002893D14FF08052144B1A60BFF34F8FBFF36F8F8AE72046FFF7B3FC00F0B9FA84E72046FFF7ADFC00F0B3FA2046FFF74CFC00283FF4ED
:406500007AAF65B100F0D6FF2046FFF729FC0146606800F029FD00F0EFFF002000E0002004B070BD04ED00E000230BE0074A52F8332032B9054A42F8331002EBC3035860E3
:4065400070470133092BF1D9704700BFD4F5030870B504460D46164600F0ACFF94F844305BB2B3F1FF3F02D1002384F8443094F845305BB2B3F1FF3F02D1002384F8453083
:4065800000F0BAFFA36B2BB93246294604F1240000F082FB2046FFF759FC70BD094B9B6A1B680BB9012300E0002323B14FF0FF32044BDA627047034B9A6AD268D268526828
:4065C000DA627047F4FB020810B50446006B01F0E3F8204601F0E0F810BD00BF2DE9F04780460D4616469946DDF820A0099F0A9C9200A521206B0CF061F8236B06F18042AB
:40660000013A03EB820626F00706002306E0E95CE21882F83410EA5C12B101330F2BF6D9002384F84330BAF1060F01D94FF0060AC4F82CA0C4F844A00025A564201DFFF7B6
:4066400051FB04F11800FFF74DFB2461CAF10703A36164622B4606E003F1120204EB8202002151600133042BF6D90023236684F864304A464146304600F0EEFE206007B13C
:406680003C60BDE8F08700BF70B5002407E004EB8402930010481844FFF718FB0134062CF5D90E4C04F1BC063046FFF70FFB04F1D0052846FFF70AFB04F11400FFF706FB7F
:4066C00004F1E400FFF702FB2046FFF7FFFAA662C4F8F85070BD00BF24FC0208F4FB020838B5044600F0E6FE264BD3F8FC200132C3F8FC20D3F800314BB9224BC3F8004188
:40670000D3F8FC30012B10D1FFF7BEFF0DE01D4BD3F804314BB91B4BD3F80031DA6AE36A9A4202D8174BC3F80041164AD2F808310133C2F80831E36AD2F80C21934202D9C4
:40674000104AC2F80C310F4D05F1300003EB83039A00211D1044FFF7C9FA00F0CDFED5F804316BB1D5F80031DA6AE36A9A4207D24FF08052044B1A60BFF34F8FBFF36F8FB6
:4067800038BD00BFF4FB020804ED00E038B517E000F090FE0D4CD4F8F030DD68281DFFF7CBFAD4F8FC30013BC4F8FC30D4F81031013BC4F8103100F09FFE2846FFF704FF19
:4067C000024BD3F81031002BE2D138BDF4FB020808B5FFF7DBFF064B1B6B012BF9D94FF08052044B1A60BFF34F8FBFF36F8FF0E7F4FB020804ED00E070B504460E46174B32
:40680000D3F81451D3F800010430FFF795FAB4F1FF3F07D136B11148D0F800110431FFF765FA70BD2C440D4BD3F800315C60A54208D90A4BD3F8F800D3F800110431FFF7B1
:4068400061FA70BD054DA86AD5F800110431FFF759FAEB6A9C4200D2EC6270BDF4FB02082DE9F04385B006460F4615469846900000F062FF60B18146682000F05DFF044628
:4068800010B1C0F8309004E0484600F085FF00E000248CB10023039302940D9B01930C9B009343462A4639463046FFF797FE2046FFF716FF012001E04FF0FF3005B0BDE8FF
:4068C000F08300BF00B583B0194B019300230093802218491848FFF7C3FF012801D100F0FFFB012814D14FF03F0383F31188BFF36F8FBFF34F8F114B4FF0FF32DA620122C7
:40690000C3F804210022C3F8142100F075FE0BE0B0F1FF3F08D14FF03F0383F31188BFF36F8FBFF34F8FFEE703B05DF804FB00BF10FD020828500910D1670810F4FB0208F3
:40694000034AD2F818310133C2F81831704700BFF4FB0208014BD3F814017047F4FB02082DE9F0413C4BD3F81831002B65D13A4BD3F814410134C3F81441CCB99B6A1B68FB
:4069800043B14FF03F0383F31188BFF36F8FBFF34F8FFEE7304B9A6AD3F8F8109962C3F8F820D3F820210132C3F82021FFF7F6FD294BDB6A9C4203D2002645E0012600E02C
:4069C0000026254B9B6A1B680BB9012300E0002323B14FF0FF32204BDA6235E01E4B9B6ADB68DD686B689C4202D21B4AD3622BE005F104084046FFF79FF9AB6A1BB105F181
:406A00001800FFF799F9EB6A134AD2F80C21934202D9114AC2F80C310F4F07F1300003EB83039A0041461044FFF760F9EA6AD7F80031DB6A9A42C1D2C3E7074AD2F824312B
:406A40000133C2F824310026034BD3F8283103B101263046BDE8F081F4FB0208394BD3F8183143B94FF03F0383F31188BFF36F8FBFF34F8FFEE770B500F01CFD314BD3F81D
:406A80001821013AC3F81821D3F81831002B52D12C4BD3F8FC303BBB00244FE0294D2B6ADC6804F11800FFF747F9261D3046FFF743F9E36AD5F80C21934201D9C5F80C31E8
:406AC000204D05F1300003EB83039A0031461044FFF70CF9E26AD5F80031DB6A9A4204D30122C5F8282100E00024164B5B69002BD4D10CB1FFF752FD124BD3F8244164B127
:406B0000FFF72EFF18B101220E4BC3F82821013CF6D100220B4BC3F824210A4BD3F828315BB14FF08052084B1A60BFF34F8FBFF36F8F012402E0002400E0002400F0DCFCD3
:406B4000204670BDF4FB020804ED00E010B5B0B10446104BD3F8183143B14FF03F0383F31188BFF36F8FBFF34F8FFEE7FFF7E8FE00212046FFF740FEFFF770FF00E0002034
:406B800038B94FF08052044B1A60BFF34F8FBFF36F8F10BDF4FB020804ED00E0304BD3F8183123B101222E4BC3F82821704710B52B4B0022C3F82821D3F800311B6B1A6814
:406BC000B2F1A53F0BD15A68B2F1A53F07D19A68B2F1A53F03D1DB68B3F1A53F07D0204BD3F80001D3F80011343100F093FD1C4BD3F80C310AE043B94FF03F0383F3118835
:406C0000BFF36F8FBFF34F8FFEE7013B03EB83018A0013490A44126B002AECD008469900CC18A2000244546B64685463303019448A0008320244944206D1606803EB830147
:406C40008A0007490A445063054903EB830082000A44526BD268C1F80021C1F80C3110BDF4FB020840B94FF03F0383F31188BFF36F8FBFF34F8FFEE710B50C46054BD3F83D
:406C800000111831FFF73EF801212046FFF7B4FD10BD00BFF4FB020838B540B94FF03F0383F31188BFF36F8FBFF34F8FFEE70C461546074AD2F800111831FFF717F80DB11A
:406CC0004FF0FF3429462046FFF796FD38BD00BFF4FB020838B5C368DC6844B94FF03F0383F31188BFF36F8FBFF34F8FFEE704F118052846FFF720F8154BD3F81831ABB9A3
:406D0000251D2846FFF718F8E36A114AD2F80C21934202D90E4AC2F80C3103EB83039A0029460C481044FEF7E1FF03E029460A48FEF7DCFFE26A064BD3F80031DB6A9A42D7
:406D400004D90120024BC3F8280138BD002038BDF4FB020824FC020808FC0208034BD3F820210260D3F8143143607047F4FB0208F8B540B94FF03F0383F31188BFF36F8FA4
:406D8000BFF34F8FFEE7054641B94FF03F0383F31188BFF36F8FBFF34F8FFEE70C4600F089FB124BD3F814016968421A2368B3F1FF3F14D02F680D4ED6F82061B74201D0D8
:406DC00088420ED29A4206D29B1A23602846FFF7C5FF002406E000232360012402E0002400E0012400F088FB2046F8BDF4FB02080122024BC3F82821704700BFF4FB02088B
:406E0000014BD3F800017047F4FB0208064BD3F804312BB1044BD3F818311BB9022070470120704700207047F4FB0208002849D038B50346C26A2549D1F80011C96A8A42BB
:406E400037D28169002906DB2049D1F80011C96AC1F107018161586902EB820291001C4A1144884201D1012200E00022D2B11D461C1D2046FEF760FF144AD2F80031DB6A4D
:406E8000EB62D2F80C21934202D9104AC2F80C3103EB83039A0021460D481044FEF726FF012038BD094AD2F80021D26ADA62012038BD426C054BD3F80031DB6A9A4203D382
:406EC000002038BD00207047012038BDF4FB020824FC020800283DD038B50346204AD2F80021904208D04FF03F0383F31188BFF36F8FBFF34F8FFEE7826C42B94FF03F03E4
:406F000083F31188BFF36F8FBFF34F8FFEE7013A8264C06A596C88421ED0FAB91C461D1D2846FEF709FF636CE362C3F10702A2610B4AD2F80C21934202D9094AC2F80C3181
:406F400003EB83039A00294606481044FEF7CEFE012038BD00207047002038BD002038BDF4FB020824FC020800284DD038B50346806C40B94FF03F0383F31188BFF36F8F57
:406F8000BFF34F8FFEE75A6C8A4200D20A46D96A8A4238D0012836D11C48D0F80001834208D14FF03F0383F31188BFF36F8FBFF34F8FFEE7DA629869002802DBC2F10702E3
:406FC0009A61586901EB81018A0011490A44904201D1012200E00022AAB11C461D1D2846FEF7AAFEE36A094AD2F80C21934202D9064AC2F80C3103EB83039A002946044813
:407000001044FEF773FE38BD704700BFF4FB020824FC0208064BD3F800312BB1044BD3F80021936C01339364014BD3F800017047F4FB0208064B1A681368B3FA83F35B09DD
:40704000036013B9D368186870470020704700BF20FD020808B54160006191420AD8D21A83699A4211D2011D0A4B5868FEF74AFE002008BD9A4201D2994208D2011D054B80
:407080001868FEF73FFE002008BD012008BD012008BD00BF20FD020870B500F00BFA0E4B9B68B3B90C4C04F10C063046FEF70EFE04F120052846FEF709FE266065600022DE
:4070C0000C210A20FEF744FFA06010B10349FFF72BFA00F011FA70BD20FD02083050091000B583B0FFF7D8FF0D4B9B6853B10D4B019303230093002380220B490B48FFF7D6
:40710000AFFB00E0002040B94FF03F0383F31188BFF36F8FBFF34F8FFEE703B05DF804FB20FD020854FD020838500910C573081040B94FF03F0383F31188BFF36F8FBFF392
:407140004F8FFEE730B585B015460446124A9068F0B11A46019102950394052913DCFFF755FE022807D10023089A01A90A488068FEF714FF0DE000231A4601A9064880680F
:40718000FEF70CFF05E0002301A9FEF7E7FF00E0002005B030BD00BF20FD020870B582B029E0DB681E68DC68251D2846FEF7C4FD636A20469847E369012B1CD1A3693344ED
:4071C0009E4207D2636024612946104B1868FEF799FD10E0002100910B4632462046FFF7A7FF40B94FF03F0383F31188BFF36F8FBFF34F8FFEE7054B1B681A68002AD0D17E
:40720000024A51681160536002B070BD20FD020838B50546FFF79EFB0446074B9B6B984204D2FFF7BBFF01232B6001E000232B60014B9C63204638BD20FD020870B582B0F4
