:020000041000EA
:4000000000400208230100100D00000085010010000000000000000000000000000000000000000000000000000000008101001000000000000000008101001081010010E9
:400040008101001081010010810100108101001081010010810100108101001081010010810100108101001081010010810100108101001081010010810100108101001060
:400080008101001081010010810100108101001081010010810100108101001081010010810100108101001081010010810100108101001081010010810100108101001020
:4000C00010B5064C2378002B07D1054B002B02D0044800E000BF0123237010BD3C0600080000000078270010084B10B5002B03D00749084800E000BF07480368002B00D18B
:4001000010BD064B002BFBD09847F9E7000000004006000878270010E8000008000000007047FFF7FDFF72B60F4C104DAC4209DA21686268A368043B02DBC858D050FAE70A
:400140000C34F3E70A490B4A0020521A02DD043A8850FCDC084809490860BFF34F8F00F007F900F01DF8FEE77C270010942700103C0600084C0800080000000808ED00E0EF
:40018000FEE7FEE700B504207146084202D0EFF3098001E0EFF30880043001F01DFBFEE710B5034800F06AF9002001F0CFFEFBE70000081010B5002001F08AF810BDC0468B
:4001C00070B56249E0239B00CB580F2213401A00D0329200525807210A40032A05D0042A06D0002A12D15A4814E05A4A106811E01A00C0329200554952581F210A40112ABF
:4002000006D0132A04D0FA20C00103E0524801E080200002002B36D14C4BB222D2009A5801211140B125ED005A59120F032422405B591B0F1C4207D0444C63591B0F032458
:400240002340012B02D102E0012300E00023002B01D0002901D1032A4BD13C4BB022D2009D58AD03AD0B3D495958C904C90C9C58240E01231C40013401F01AFF68432100C1
:4002800001F016FF35E0012B33D1304BC822D2009A5801251540C024E4001A59120F03210A401B591B0F194207D028490B591B0F03210B40012B02D102E0012300E000233F
:4002C000002B01D0002D01D1032A12D11F4DC022D200AB587F210B40A958090A1F263140AC58240C3440584301F0E2FE210001F0DFFEE0239B00154AD3581B090322134054
:40030000D840144C6060164B1D692D0AFC32154001351969090E013101F0CAFEA060290001F0C6FE0500E06020610E4BC0180E4901F0BEFE20750D4BE818FA21890001F0CF
:40034000B7FEA061C003E06170BDC0460000264000127A00C000000800366E0184050000000021403F420F0040420F00E703000010B5284801F096FE274CB022D200A35870
:400380005B005B08A350E0218900635830208343635080235B04A350204A214BE250A02292010433E250FF221E4BE25001F068FEC0225200A35801218B43A35000F074FA40
:4003C000FFF7FEFEB0235B055B78002B04D0B0235B055B78DBB200E02123212B03D1124B0022DA605A60114C22008021042000F015FD2000103000F0A9FD0D4B1A68512332
:40040000D35C002B02D00B4800F016FE00F0DEFB10BDC046C02600100000264001000200840500008C050000E00023405806000848080008282200108023024AD35803208C
:40044000184070470000214010B501F056FA084980228C58074B2340074C23438B508823034AD358DB06FAD501F04BFA10BDC04600002140FCFF00000100FA0570B5050084
:40048000830504D0E821FF310F4801F077F901F034FA0400FFF7D0FF032801D1FFF7D4FF0A4AB0239B00D55080215058084B03400848034353508823044AD358DB06FAD56E
:4004C000200001F01EFA70BD5C22001000002140FCFF00000300FA05FEE7C0460323064A1360064A136080225201054B1A60054A054B1A607047C046082031401020314054
:400500009402364001001180000E1F4130B587B0D049A022D2008B58032083438B50CE490B681A6885301B58D2181068CB4B184010600A68106884241259801802681202B8
:40054000120A0260086805680259AA181068034080204000034313600B683E229A5C002A06D0BC48E02189004258753CA24342503E229A5C002A06D0B648E021890042581E
:400580003024A24342503E229B5C002B07D0B149E02292008B588020000603438B500021012000F0C7FE0021022000F0C3FE0021032000F0BFFE0021042000F0BBFE0021F4
:4005C000002000F0B7FE01A8A54903000A0032CA32C312CA12C300F0DBFE002802D00420FFF77AFF9B499F4A8B588020000603438B509D4800F088FF002802D00420FFF7B3
:400600006BFF944C994BE158994A0A40E250E158984A0A40E250E25880252D062A43E250043BE158944A0A40E250E158934A0A40802189010A43E250E258802109020A439D
:40064000E2508F4A11688F4B0B40802149000B431360002001F0F6FC8B4BE2581543E550E158012291430A43E2506421002001F0CBF8794B1B683F229A5C022A06D9702243
:400680009A5C03210A408149986842509A6874215B5AD218D168714B0B408021C9010B43D3606D4B1B6873229A5C03200400944070229A5C7221595C15008D402900214318
:4006C00002400A43802109060A438021C900986842509A6852583F229A5C032A06D970229A5C02210A406A49986842509A6874215B5AD2189168594B0B408021C9010B4352
:400700009360554B1B6873229A5C0321914070229A5C7220185C140084402143022002400A43802109060A438021C900986842509A6852583F229A5C062A06D970229A5C15
:4007400001210A405349986842509A6874215B5AD3185968414A0A405A603F4B1B6873229A5C0321914070229A5C7220185C140084402143012002400A43802109060A4354
:400780008021C900986842509A6852583F229A5C132A0AD97122985C703A82401100032282400A403C49986842509A6876215B5AD2181168394B0B4039490B431360264B9A
:4007C0001B6873229A5C0324210091400A007021585C0231595C8840104371229A5C01219140944022000A400243802109060A438021C900986842509A6852583F229A5C83
:40080000332A03D90021274A986881509A6874215B5AD2181168114B0B40FE2109020B4313600D4B1A687323D15C703B8B4019007023D35C7220105C83400B43802109062E
:400840000B438021C9009068435093685B5807B030BDC0460000264048080008FF00FFFF74220010087F0000400D030004050000FEFCFFFFFFFF00FFFFF0FFFFFF8FFFFF2E
:4008800000002740FFFCFFFF0C050000080C00000C0C0000180C00004C0C0000FF0000FF004FC300CC0C000070B58AB09621002000F0AAFF00F080FF002814D100F06CFF91
:4008C000C0235B00544AD358DB0705D41100534A8B585B005B088B504F49504A8B588020000603438B50012001F04AFA4C4A516C4C4B0B40E82189010B435364536C1B0A29
:40090000FF2213403A2B07D1454A516C464B0B40E82189010B435364FFF7F8FD0F22434B1A60434B43490B6043490A60434A136001AC434D22002B00143343CB43C243CBB5
:4009400043C243CB43C221003E4800F047F924220021200001F038FC0123019321003A4800F03CF924220021200001F02DFC374BE3602100364800F031F922002B00383385
:4009800043CB43C243CB43C243CB43C22100314800F024F924220021200001F015FC8623019321002C4800F019F922002B005C3323CB23C223CB23C223CB23C22100274815
:4009C00000F00CF9264D23002A0043CA43C343CA43C343CA43C32100224800F0FFF824220021200001F0F0FB6023E36021001E4800F0F4F822002B00243323CB23C223CBA6
:400A000023C223CB23C22100184800F0E7F8FFF765FD0AB070BDC046000026400C05000000002740FF00FFFFFFC5FFDF000063400701010000026340000064400002644051
:400A40007422001000003240800032400086660680023240000332408003324000043240F4220010800432408005324000063240214B984230D00ED8402831D004D8002882
:400A80001FD010282AD031E080282BD080235B00984229D02AE0194B984229D007D8A0231B0698420DD0164B984212D01EE0154B98420AD0144B984209D0144B984215D175
:400AC00001E0002016E0124814E0124812E0124810E0A020C0030DE007480BE00F4809E00F4807E00F4805E0034803E00E4801E0A420C0037047C04606005200010000F0C5
:400B0000090000A0040000F0050000F0030000F0010052000200520003005200010050000200500005005200FF00520070B5124B1A683123D35C002B04D1C421FF310F48F6
:400B400000F01CFE0C4B1D682C00B423EB582A6A944663441B68002B0BDB094B1868FFF787FF6B6801229A6063689B68002BFBD100E0044870BDC046480800083C23001075
:400B8000E80700080200500010B50D4B1861002805D002230370FD33437000234380094B1B6850229A5C002A08D051229B5C002B04D04F3A0449002000F0F8FA10BDC046A3
:400BC000E8070008480800086101000810B502481430FFF7D9FF10BDE807000870B505000C0000285DD000295DD0FF230A689A4303D099212D4800F0C1FDFF2322699A43CB
:400C000003D09A21294800F0B9FDA3685B0D03D09B21264800F0B2FD63685B0A03D09C21224800F0ABFDE3695B0F03D09D211F4800F0A4FD236A5B0F03D09E211B4800F023
:400C40009DFD1B4A11688B69EB1ADB0949691B01CB18216829607D211068415C6918E06808607E211068415C6918206908607F211068415C6918606908607C211068415C39
:400C80006918A06808606168A961116880228A5CAD18A2692A60E2691A60226A5A60002002E0044800E0034870BDC0467C2300104808000801005A0070B504000D000A4B71
:400CC0001A68B423D3581B181B68002B0ADA0B0C03D00649064800F051FD2D042D0C6560002000E0034870BD48080008D5020000FC23001001008A0070B505000C000368B5
:400D0000002B01DA002300E0084B002B0BD1EA60230C03D00649074800F030FD2404240CAC60002000E0014870BDC04601008A00BB020000FC23001070B505000C1E03D1CA
:400D40009921084800F01AFD074B1A68B423D3585B191B68002B03DAEB682360002000E0024870BD3C2400104808000801008A0070B504000D00234B1A683123D35C83427F
:400D800036D9002936D00B68DB0635D13123D35C984204D3C421FF311B4800F0EFFC194B1B681A6AB0215B5A5C431419174E34602B68DA080021686801F006FA00212000C6
:400DC000FFF77AFF3468002D03D111490E4800F0D5FC2A0000212000FFF78EFF00280DD10A4B18680021FFF767FF002808D108E0084806E0074804E0064802E0064800E080
:400E0000054870BD48080008FC230010000800089303000003018A0001018A0010B50400002A17D1002915D1124B1A683123D35C984204D3C421FF310F4800F09FFC0D4BA5
:400E40001B681A6AB0215B5A5C4314190B4B1C6000200EE0002A09D0002909D0074B59609A60191D2000FFF783FF02E0044800E0034810BD48080008FC23001000080008A4
:400E800003018A00F0B583B00D001C4B1B68DC68236883422DD947097B01C01A012383401E00002903D100F028FD019001E000230193124B18680368002B01DA002300E004
:400EC0000F4B002B0ED16368BF00DF193B68334203D0B3433B60002400E00A4C0021FFF7EBFE00E0084C002D04D1019800F009FD00E0064C200003B0F0BDC04600080008A9
:400F000001008A00020188000301880004018A000A4B1B68DA68136883420BD943095901401A0121814052689B009B580B4203D0034802E0034800E003487047000800088D
:400F40000101880004018A0000018800034B1B68002B01D1014B18607047C0460C080008F0B5474680B404000F0090461E002D4B1B68002B03D1B5212B4800F0FFFB294B56
:400F80001B682C2060431C18FF22150035402560330A13406360360CA660244B1A683123D35C9D4204D3C421FF31214800F0E6FB1E4B1A68B023D35A6B43116A8C466344BA
:400FC000236166683223D35C9E4204D3E021FF31174800F0D3FB154B1B681D6A80367601AD196561A668330C04D0FF214900104800F0C4FB330C03D00E490D4800F0BEFBFB
:401000003604330C1E43AE604346E36127620023A361069B002B02D000229B5EA38104BC9046F0BD0C0800087C24001048080008FC230010FF010000F0B58FB0041E03D1FE
:401040005221294800F09AFB6368032B03D95421254800F093FBE36A002B03D15821224800F08CFB236B002B03D159211E4800F085FB07AA1300210061C961C321C921C34E
:4010800002AD290023001433C1CBC1C141CB41C10821535E0CAE3380144B1B6836215B5E07998C466344B370089B0D930B9B0A980096A26AE16AFFF753FF2B69E868002297
:4010C00000920021FFF74CFF216B300000F0E8FA0023F25E002A05DB1F231A401E3B9340034A13600FB0F0BD7C2400104808000800E100E0F8B505000F0016001C00002A17
:4011000003D1FD21224800F039FB224B1B68002B03D1FE211E4800F031FB1E4B1B682C2128004843181879435918012213004D68AB401B044568AA4015000269002A20D030
:401140008F69002F1FD11268002A01DA002200E0114A002A19D132681204120C134333600369DE6001238B614C6204692B0C03D00A490B4800F002FB2A04120CA2600020D1
:4011800004E0084802E0084800E00748F8BDC0467C2400100C08000801008A00BB020000FC23001004028A0007028A0070B504000D0016000F4B1B68002B04D1AF21490037
:4011C0000D4800F0DBFA0B4B1B682C2060431C18236A002B04D1B1214900074800F0CEFAE369B34204D9236AB6009D51002000E0024870BD0C0800087C2400100A028A0002
:4012000070B582B0040000230193002804D1D221FF312D4800F0B2FA2369002B04D1E9214900294800F0AAFA6369002B04D1D421FF31254800F0A2FA236A002B04D1EA2105
:401240004900214800F09AFA6269D5682B0C24D01B041360136820691C4B1A68B423D358C3181B68002B18DA01A9FFF765FD00280ED1019803681E0CFF221340E26993423E
:4012800007D29B00226AD358002B02D0984700E0002631002069FFF70FFD2D042D0C0FD063691D601B68636A002B03D098470023636203E0A36A002B00D098470023A361CD
:4012C00063691B6802B070BD7C2400104808000810B50400084B1B68002B04D1B221FF31064800F04BFA044B1B682C2060431818FFF786FF10BDC0460C0800087C24001088
:4013000010B50400094B1B689B6CC340DB0703D4BE21074800F032FA044B1B681B691034A402E3580F20184010BDC04648080008BC240010134B1A683C23D35C83421DD9BA
:40134000042904D94B1EFF3B9BB2132B18D8FF290CD91F2319400C4A0300C0339B009950D03080000423835000200AE007231940D0308000044BC150002002E0034800E0B9
:4013800002487047480800080000264001004A0070B5041E03D14A494A4800F0EFF9B023DB00494AD358002B00DA87E0474B22689A4203D94649434800F0E0F923689B0353
:4013C0009B0BE279002A02D08022520400E000221343B022D2003C498B50A2883D4B9A4204D98C218900374800F0C8F922893A4B9A4203D93949334800F0C0F9A388DB0433
:40140000D90C23891B04364A13400B43354A2E498B50A37A0F2B04D98E218900294800F0ADF9E37A0F2B03D92F49264800F0A6F9A289284B9A4203D92C49224800F09EF9F3
:40144000A37A0F211940E27A1201FF2313400B43A289120226490A401343A27B1207C02189050A401343B122D20017498B50A379042B03D91F49134800F080F9228A164BC1
:401480009A4204D9912189000E4800F077F90E4819494558194B1D40A3791B02E022D20013402B4343504558154B1D40238A1B040B4A13402B434350002000E0114870BDB6
:4014C0001F020000FC24001000002640FFFF030029020000FF1F0000FF010000310200000000FF0184050000390200003A02000000FF1F00430200008C050000FFF8FFFFCF
:40150000FFFF00FE03004A0070B505003149324A8B588020000603438B502C0003E0012000F020F9013CB223DB002A4AD3585B0701D4002CF3D12749B122D2008858274B45
:4015400003408020800503438B50002D01D0002C0CD02049B022D2008B588020000603438B5003E0012000F0FDF8013CB223DB00184AD358DB0701D4002CF3D1002D01D01D
:40158000002C08D01349B122D2008B58C020800503438B5013E00F4BB121C90058580F4A02408020800502435A5008395A58520052085A5008495A58520052085A50002DA7
:4015C00003D0002C03D0002002E0002000E0044870BDC046000026408C050000FFFFFFCF02004A0070B505000C001A4B1B6828229A5C012A15D1820807211000884327D195
:401600009200AD1AED00FF20A8401B6820339A181168AC4023004B40184004004C40146016E03A229B5EDBB2994203D176210A4800F0A4F8074B1B681B68072215408022F2
:40164000120615438022920194466444A400E55070BDC046480800088425001070B504000D000B4B9A680B4B9A420CD1002904D13821FF31084800F081F81034054BA40011
:40168000E058E55003E01034A400044BE05870BD00ED00E0000000088425001000000010F0B5474680B482B0061E01914AD04368032B03D93221264800F060F80023F05E09
:4016C000002804DBB178FFF78DFF002400E0214C0023F15E7368002912DB88081E4FC0308000C55903221140C900FC3290468A4095439A01434613408B402B43C35116E03A
:4017000089B20F220A40083A92080632920013481018476803221140C900FF252A008A4097439A012B0013408B403B4343600B4B9A680B4B9A4206D10023F05E0199FFF783
:401740008DFF00E0034C200002B004BC9046F0BD842500100100560000E100E000ED00E00000000810B5034B1B78584300F0BCF810BDC046D400000801BEFEE770B50D0089
:40178000044C18220100200000F026FDA5610020FFF7F2FF00060008054B802212069A649B6C002B01DB002000E002487047C0460000274003004600054B8022120198588E
:4017C0005B68FF221A4202D08023DB021843704700002640FEE7C04610B50A4B0268DA6142681A6282685A62C2689A620269DA6242691A6382695A63C2699A63FFF7EAFFC5
:4018000010BDC04600060008F0B5474680B4002801D0192300E064238B429B415B42304D2C682268A826A45BA41822680327BA433B401A4322602C682268A45BA2181668FB
:40184000284CA046264016602C682668AA229446A25A96193268BA43134333602A6813686546525BD3181A68444614401C60002805D010291BD921291BD8012024E0184B24
:401880001B6855229A5C914215D956229A5C914213D957229A5C914211D958229A5C91420FD959229B5C99420DD804200CE000200AE0022008E0002006E0012004E0022070
:4018C00002E0032000E00520054A1268526813680F218B430343136004BC9046F0BDC04648080008FFFCFFFF0230800803D001300238FCD1C046C0467047EFF3108072B66D
:40190000704780F31088704710B5B0235B059B899BB2002B04D0B0235B059B899BB201E080235B0080225200934215D1184C23681968683A9B58C9180B680F208343963A76
:4019400013430B6021680C689C23CB58E318196881430A431A6019E00D4C2368196898229B58C918B02040050A4BC2580A4B13400A681343C022920013430B6022681168A8
:401980009C23D358CB18054A82581A6010BDC0464808000848180000FFFCFFFF4418000030B5B0235B059B899BB2002B04D0B0235B059B899BB201E080235B0080225200D8
:4019C000934215D1184C23681968683A9B58C9180B680F208343953A13430B6021680C689C23CB58E318196881430A431A6019E00D4D2B68196898229B58C918B024640536
:401A0000C12040012258094B13400A681343C022920013430B602A6811689C23D358CB1822581A6030BDC04648080008FFFCFFFFB0235B059B899BB2002B04D0B0235B0580
:401A40009B899BB201E080235B008022520093420DD1104B1B681A6898215B58D21811680D4B0B40C021C9010B43136011E0094B1B68196898229B58C918084BB0225205DE
:401A8000D258074B13400A681343C022920013430B60704748080008FF8FFFFF18180000FFFCFFFF30B5B0235B059B899BB2002B04D0B0235B059B899BB201E080235B008B
:401AC0008022520093420DD1134B1B681A6898215B58D2181168114B0B408021C9010B43136018E00C4D2B68196898229B58C918B02464050A4822580A4B13400A681343CE
:401B0000C022920013430B602A6811689C23D358CB1822581A6030BD48080008FF8FFFFF4C180000FFFCFFFF10B5B0235B059B899BB2002B04D0B0235B059B899BB201E089
:401B400080235B0080225200934217D10020FFF7D7FBB0235B055B78002B04D0B0235B055B78DBB200E02123222B03D8002803D1013004E0012002E0002000E0012010BDE8
:401B800030B585B004000D00022807D9042805D0032803D02A492B48FFF7F0FD6B1EDBB2012B07D9042D05D0082D03D026492548FFF7E4FDA400254BE458042D13D0012DB3
:401BC0001CD112E0A3682B420BD1E3681A6802925B6801930393290002A8236898471B4B5C61646902E0002000E00020002C24D0174B9842E6D1012DE4D11EE0022D01D140
:401C000004E01C006369002BFBD104E00F4B5C69002C00D0246900200DE0A3682B4209D1E3681A6802925B6801930393290002A8236898472469002CEFD105B030BDC0464A
:401C4000B2090000C8250010B309000010080008FF004200F8B50700012803D93D493E48FFF78CFDB0235B055B78002B04D0B0235B055B78DBB200E021239DB2B0235B050D
:401C80009B899BB2002B04D0B0235B059E89B6B201E0802676000020FFF732FB002814D180235B009E4212D1222D12D82B4B1B685C682B4821582B4B19403B0680225204FA
:401CC00013400B432350002404E0274C02E0264C00E0254C80235B009E4201D1222D03D880235B009E4232D01C4B1A683123D35C002B04D1C421FF311C48FFF73FFD174B7D
:401D00001B681D6A80235B009E4203D1002F05D0174A06E0002F03D0164A02E0164A00E0164A01212800FEF7E7FF00280FD10B4B1A68B423D3585B191B68002BF7DBEB686A
:401D40001B0E1B06A0221206934200D100242000F8BDC0464C0A0000C82500104808000818F00000FFFFFFFE040042003C230010010100300300000C010000300100000CB8
:401D8000F8B50500012804D9822109012948FFF7F5FCFFF7C9FE002849D0FFF7AEFD0700002D11D10021244B244AD150E823DB00B0225205D65CF6B20120FFF74BFF041E26
:401DC00019D1FFF7A1FD16E0B02252051C4BD0581A4B194958501B49565CF6B21A481A581F218A4314390A431A500320FFF7BAFCFFF758FE0024002C15D11049124A8B58BC
:401E00001F20834306401E438E50002D02D1FFF70FFE08E00720FFF7A5FCFFF7C1FD0020FFF718FF04003800FFF76BFD00E0074C2000F8BDC8250010307F000000002640DA
:401E400010180000410700001CFF00000300420010B5041E03D115491548FFF78FFC154B1A68D168F222D2018A5822601B68F022D201D9688A5862600F4AD9688A58A2606A
:401E80000E4AD9688A58E2600D4AD9688A5822610C4AD9688A5862610B4AD9688A58A261DA680A4BD358E36110BDC046A10A0000C8250010480800080478000008780000DC
:401EC0000C78000010780000147800001878000010B5041E03D114491448FFF74FFC144B1B68F022D201D96860688850114AD968A0688850104AD968E06888500F4AD9688C
:401F0000206988500E4AD968606988500D4AD968A06988500C4AD968E0698850DA682168F223DB01D15010BDC90A0000C82500104808000804780000087800000C78000083
:401F400010780000147800001878000070B50500012804D9A62189003548FFF70FFC354B5B68002B05D001210120FFF709FE040000E00024002C53D1FFF7BFFC06002D4BB5
:401F80005B68002B03D004210120FFF7F9FD2A4B1B6843229A5C002A08D09A68E023D358DB0603D523481830FFF752FFB0235B059B899BB2002B04D0B0235B059B899BB2AF
:401FC00001E080235B0080225200934203D1280000F022F909E0194A116904230B431361012D01D030BF00E020BF134B1B6843229A5C002A08D09A68E023D358DB0603D5AF
:402000000C481830FFF764FF3000FFF77AFC094B5B68002B09D008210120FFF7B1FD04E002210120FFF7ACFD054C200070BDC046C8250010100800084808000800ED00E059
:40204000FF004200042805D10B4A116804230B4313600FE0094B1A681168A023D358CB180006C022920410401860034A136804218B4313607047C04610E000E048080008FF
:402080000749C02252008B589B009B088020C00503438B508B588020000603438B50704700002640014B18607047C04648080008002243088B4274D303098B425FD3030ABC
:4020C0008B4244D3030B8B4228D3030C8B420DD3FF22090212BA030C8B4202D31212090265D0030B8B4219D300E0090AC30B8B4201D3CB03C01A5241830B8B4201D38B033C
:40210000C01A5241430B8B4201D34B03C01A5241030B8B4201D30B03C01A5241C30A8B4201D3CB02C01A5241830A8B4201D38B02C01A5241430A8B4201D34B02C01A5241E6
:40214000030A8B4201D30B02C01A5241CDD2C3098B4201D3CB01C01A524183098B4201D38B01C01A524143098B4201D34B01C01A524103098B4201D30B01C01A5241C30835
:402180008B4201D3CB00C01A524183088B4201D38B00C01A524143088B4201D34B00C01A5241411A00D20146524110467047FFE701B5002000F006F802BDC0460029F7D00B
:4021C00076E770477047C04603008218934202D019700133FAE77047030030B5002A0DD00C7801335D1E013A2C700131002CF5D19A189A4202D01C700133FAE730BD00006A
:40220000F8B5C046F8BC08BC9E467047F8B5C046F8BC08BC9E46704701B40248844601BC604700BF3503000803000000010000000100000000000000050360000400000075
:402240000100000000000000010000000604600008000000C8070008B501001073797374656D5F70736F63365F636D30706C75732E630000F4010000140004010A00090584
:40228000080000006301000010000000100000000002000000660B000000000000000000000000000000000000000000030000000000000000000000CC0000BA0000000096
:4022C00000000000000000001313000000001D1DFE0000000000000000000000000000000000000000000000000000000004040000000000630000002000000000080000ED
:40230000CC00A006000000000000000000000000131300000000000007000000000000000000000086660000000000000000000000000000141414000000000047656E6557
:4023400072617465645F536F757263655C50536F43365C70646C5C647269766572732F7065726970686572616C2F6970632F63795F6970635F6472762E68000047656E6573
:4023800072617465645F536F757263655C50536F43365C70646C5C647269766572735C7065726970686572616C5C6770696F5C63795F6770696F2E630000000047656E6576
:4023C00072617465645F536F757263655C50536F43365C70646C5C647269766572735C7065726970686572616C5C6770696F5C63795F6770696F2E680000000047656E6531
:4024000072617465645F536F757263655C50536F43365C70646C5C647269766572735C7065726970686572616C5C6970635C63795F6970635F6472762E68000047656E652B
:4024400072617465645F536F757263655C50536F43365C70646C5C647269766572735C7065726970686572616C5C6970635C63795F6970635F6472762E63000047656E65F0
:4024800072617465645F536F757263655C50536F43365C70646C5C647269766572735C7065726970686572616C5C6970635C63795F6970635F706970652E630047656E654E
:4024C00072617465645F536F757263655C50536F43365C70646C5C647269766572735C7065726970686572616C5C70726F745C63795F70726F742E630000000047656E6509
:4025000072617465645F536F757263655C50536F43365C70646C5C647269766572735C7065726970686572616C5C737973636C6B5C63795F737973636C6B2E63000000009F
:4025400047656E6572617465645F536F757263655C50536F43365C70646C5C647269766572735C7065726970686572616C5C737973636C6B5C63795F737973636C6B2E68DB
:402580000000000047656E6572617465645F536F757263655C50536F43365C70646C5C647269766572735C7065726970686572616C5C737973696E745C63795F73797369F1
:4025C0006E742E630000000047656E6572617465645F536F757263655C50536F43365C70646C5C647269766572735C7065726970686572616C5C737973706D5C63795F7301
:402600007973706D2E6300000000204000002440000000400000000000002340000030400000314000009F40000022400000104002020202020202020210101D8000170081
:402640007500FF030602063604102000000000007FC0000000040000000000000019324B647D00804000080B100000000000FF012002001F00800004FF08101800100014B6
:402680000018001C4044484C50000000081000000800000004000000041000000012000004210000002100000016000040114002C41300138013A013200000001C000000D9
:4026C0000000214000002540000001400000344000002440000031400000324000001F410000234000001140010101010101010101101010800019005500F0000501053BA7
:4027000004101C01010000000FC000000004000001010101011D3A57789600082000101208000000001F00000010000F002000023F06080E00080009000A000B24282C30F8
:4027400034000000100000009000000088000000080000008000000004F0000000F00000400200002005A000D00100018001A0012000000010000000000000000000001056
:4027800000000008C00000009C270010C0000008400500003C060008100200000048E80100127A0000093D0000093D0000093D0004000000A00F00000000D007E900001003
:4027C000C10000100000000010B50004400B27D0144B1A68146AB023D15ACA00531AE3181B68002BF4DA3E220F4B1A600F4A104B1A60104B0621A322D20099500E4A98504E
:402800009B58084B1A68106AB023D15ACA00531AC31800225A60084B064AD358002BFADA10BDC04648080008040126401E1F000008012640000026401C05000010B5437854
:40284000FF2B20D100F01AFA04000F4B1A683123D35C042B04D8C421FF310C4800F026FA094B1A68116AB023D35A9B00CB18DB685A68116801230B4313601368DB07FCD4F3
:40288000200000F003FA10BD480800083C230010F0B585B001900291544B1A683123D35C002B04D1C421FF31514800F0FFF94F4B1B681E6AB4229A58971950229B5C002B8E
:4028C00077D000F0FBF9050003283CD1474B1A683123D35C062B04D8C421FF31444800F0E5F9424B1968B023CB5A5A00D21853000A6A94466344B4228A58D3181B68002B7A
:4029000023DB002000F0AAF93A4B98421FD03A4B1A6900230021012000F098F9002803D0364C17E0013400E00024002000F096F9304B984202D0324B9C42F3D9304B9C42B7
:4029400007D92E4C06E0002404E02C4C02E02B4C00E00024002C46D100F090F90390294B294AD358002B13DA234A0121300000F0ADF900280ED10298FFF726FF019B002BE9
:402980000AD03B68002BFCDB00F070F9040004E01A4C02E0194C00E01C4C032D05D10121002000F07BF90028F9D1039800F06EF919E000F063F905000F4A0121300000F0ED
:4029C00085F9002809D1019B002B08D03B68002BFCDB00F04BF9040002E0084C00E00B4C280000F053F9200005B0F0BD480800083C23001001018800E807000805005200E9
:402A0000EF4902001C0500000000264001005000F0B54F464646C0B4824B1A685468B0235B055B78002B04D0B0235B055B78DBB200E02123212B67D1B023D15ACB005B1AC1
:402A4000116A8C46634419680029F5DADD6802212943D960B023D15ACB005B1A116A8C466344D968C9073ED5D9680904090C8C4684271168D559A84641440968090A0904FB
:402A8000FF26360431400D0088261168894691598846C14449460968090A0906294365462943D9601168D359C9180A685E4B98461A4090252D012A430A605A4B99461A680F
:402AC00013689C46925962441368414619400B002B4313604B461A681568D15969180B689359EB181B684F4B1A68B021555AEB005B1B156AAC46634400255D60156A515A60
:402B0000CA00531AEB185B68484A116904230B431361012801D030BF00E020BF414B1A68B023D15ACB005B1A116A8C46634419680029F3DAB02149054978002904D0B02196
:402B400049054978C9B200E02121212932D1D968C90722D510688421525880180468324A1440DB681B0C1B02FF2109020B40234303602C4B19688823C8580B689C46604437
:402B800003681A400D6AB023CC5AE1000B1BEB18DB681B0E1B021A430260224B1A68106AB023D15ACA00531AC318DA6802218A43DA6028E086235B00E358002B23D11C48DF
:402BC00007681C4BA321C9005E581B4A904615681A4A0260062058503E21424611600631174A9950164B134AD358002BFADA154A86235B00E2500E4B1F60A323DB000D4A4A
:402C0000D6500D4B1D60074B1A68106AB023D15ACA00531AC31800225A600CBC90469946F0BDC04648080008FF00FFFF00ED00E00801264000002640040126401E1F000090
:402C40001C050000AAAAAAAA0000000001B40248844601BC604700BFF510001001B40248844601BC604700BF110F001001B40248844601BC604700BF2D0B001001B402483B
:402C8000844601BC604700BFFB18001001B40248844601BC604700BF0319001001B40248844601BC604700BF850E001001B40248844601BC604700BF7D17001001B40248CE
:402CC000844601BC604700BF3904001001B40248844601BC604700BFF90C001000000000000000000000000000000000000000000000000000000000000000000000000099
:402D00000000000000000000000000000000000000000000000000000000000000000000000000000000000000000000000000000000000000000000000000000000000093
:402D40000000000000000000000000000000000000000000000000000000000000000000000000000000000000000000000000000000000000000000000000000000000053
:402D80000000000000000000000000000000000000000000000000000000000000000000000000000000000000000000000000000000000000000000000000000000000013
:402DC00000000000000000000000000000000000000000000000000000000000000000000000000000000000000000000000000000000000000000000000000000000000D3
:020000041008E2
:4000000000780408EB0208100D0000005103081051030810510308105103081000000000000000000000000000000000A16108104D0308100000000041620810A56208101E
:400040004D0308104D0308104D0308104D0308104D0308104D0308104D0308104D0308104D0308104D0308104D0308104D0308104D0308104D0308104D0308104D03081000
:400080004D0308104D0308104D0308104D0308104D0308104D0308104D0308104D0308104D0308104D0308104D0308104D0308104D0308104D0308104D0308104D030810C0
:4000C0004D0308104D0308104D0308104D0308104D0308104D0308104D0308104D0308104D0308104D0308104D0308104D0308104D0308104D0308104D0308104D03081080
:400100004D0308104D0308104D0308104D0308104D0308104D0308104D0308104D0308104D0308104D0308104D0308104D0308104D0308104D0308104D0308104D0308103F
:400140004D0308104D0308104D0308104D0308104D0308104D0308104D0308104D0308104D0308104D0308104D0308104D0308104D0308104D0308104D0308104D030810FF
:400180004D0308104D0308104D0308104D0308104D0308104D0308104D0308104D0308104D0308104D0308104D0308104D0308104D0308104D0308104D0308104D030810BF
:4001C0004D0308104D0308104D0308104D0308104D0308104D0308104D0308104D0308104D0308104D0308104D0308104D0308104D0308104D0308104D0308104D0308107F
:400200004D0308104D0308104D0308104D0308104D0308104D0308104D0308104D0308104D0308104D0308104D0308104D0308104D0308104D0308104D0308104D0308103E
:400240004D0308104D0308104D0308104D0308104D0308104D0308104D0308104D0308104D0308104D0308104D0308104D0308104D0308104D0308104D0308104D030810FE
:400280004D0308104D0308104D03081010B5054C237833B9044B13B10448AFF300800123237010BD044A020800000000CC880910084B10B51BB108490848AFF300800848A8
:4002C000036803B910BD074B002BFBD0BDE81040184700BF00000000084A0208CC880910D4430208000000007047FFF7FDFF72B6104C114DAC4209DA21686268A368043BCC
:40030000A2BFC858D050FAE70C34F3E70B490C4A00209142BCBF41F8040BFAE709480A490860BFF34F8F00F0B9F900F093F900F041F8FEE7D0880910E8880910044A0208C6
:40034000387503080040020808ED00E0FEE7FEE700B504207146084202D0EFF3098001E0EFF30880043004F08BF9FEE70D4B5A6910225A615B690C4BB3F90030002B09DBDB
:400380005A0903F01F03012101FA03F36032074941F82230064B1A6801321A6001221A71704700BF00003240801B091000E100E0204A020800B583B062B6314C31492046E9
:4003C00004F0F0F8B4F90030002B08DB5A0903F01F000121814060322B4840F82210002B08DB590903F01F03012202FA03F3264A42F8213006F076F806F00AFD09F060FD23
:40040000142001F027FC012001F02CFC002009F091FC6FF07F4009F083FC09F01FFD04F021FA1A4B18600822194B9A60022104F04BFA00240194012500952346802215493C
:40044000154805F059F801940095234680221349134805F051F801940095234680221149114805F049F80194009523464FF480620E490F4805F040F805F070F8FEE700BFFD
:40048000801B09106D03081000E100E0B425030800003240341909105D0C081048190910B50B081054190910290C0810641909107910081008B5012002F0D6FD08BD00BF7F
:4004C000704700BF5C4AD2F8803303F00F0303F1D00152F8212002F00702032A04D0042A05D092B9554914E0554A116811E003F1C002514951F8222002F01F02112A06D02A
:40050000132A04D04FF4FA4103E04E4901E04FF400418BBB484BD3F8902502F00100D3F88825C2F30172D3F8883513F0405F07D0414BD3F88835C3F30173012B02D102E041
:40054000012300E0002303B108B9032A46D13A48D0F88025C2F31103D0F88425C2F30C02D0F88005C0F300600130B1FBF2F202FB03F2B2FBF0F131E0012B2FD12E4BD3F88D
:40058000402602F00100D3F80026C2F30172D3F8003613F0405F07D0274BD3F80036C3F30173012B02D102E0012300E0002303B108B9032A12D12048D0F8002602F07F025C
:4005C000D0F80036C3F30423D0F80006C0F3044002FB01F2B2FBF3F2B2FBF0F1164BD3F88033C3F3011321FA03F215494A601648D0F89030C3F3072301330069000E0130E8
:40060000B2FBF0F08860B2FBF3F3CB600B6103F5742202F23F220D48A0FB0202C2F387420A7503F2E7330A4AA2FB03239B098B61DB03CB61704700BF0000264000127A001F
:400640008C42020800366E010000214083DE1B43D34D621008B50D4804F0FEF8FFF730FFFFF730FF00221146042002F0C5FA084802F058FB074B1B6893F8513013B106482F
:4006800002F0C0FB02F086F908BD00BF881F0910284A02082C7203087019091008B504F04CF8074AD2F8883043F47003C2F88830BFF34F8FBFF36F8F04F043F808BD00BF3A
:4006C00000ED00E0F8B506460F4602F04FF80546064C3B4632460146204601F0CFFA41F2B062294620460FF085F8F8BDA84B020808B5002009F01EFB6FF07F4009F010FB50
:4007000009F0ACFB01210846FFF7DCFF08BD00BF30B585B00D461F4C0246214602A80FF009FD2A46214668460FF004FD082009F0BFFAAF23FF229B210A2008F00FFD0620BC
:4007400009F0B6FA144809F0FFFAA0221421134809F082FDA0225A2102A809F07DFDA02264210F4809F078FDA02296210D4809F073FDA022D221684609F06EFDA022E6218B
:40078000094809F069FD01210846FFF79BFF05B030BD00BFA41909109C220910A8190910BC190910C0190910CC19091010B582B00446FFF79DFF22460F4968460FF0BAFCCD
:4007C000122009F075FA0D4809F0BEFA5A227321684609F041FD072009F06AFA084809F0B3FA14225021074809F036FD01210846FFF768FF02B010BDA419091040570910F6
:40080000D0300910D019091010B582B00446FFF76FFF22460F4968460FF08CFC122009F047FA0D4809F090FA5A227321684609F013FD072009F03CFA084809F085FA1422A4
:400840005021074809F008FD01210846FFF73AFF02B010BDA419091040570910D0300910E819091070B504460E461546FFF740FF072009F01DFA284809F066FA4CB9142255
:400880001146264809F0E8FC32221421244809F0E3FC012C1CD100225021224809F0DCFC32221E21204809F0D7FC50221E211F4809F0D2FC012E04D1052237210F2009F090
:4008C00039F9022E04D1052255210F2009F032F9022C1CD100225021154809F0BDFC32221E21144809F0B8FC50221E21124809F0B3FC012D04D1052237210F2009F01AF908
:40090000022D04D1052255210F2009F013F901210846FFF7D7FE70BDD0300910001A09101C1A09104C1A0910601A0910781A0910A01A0910B41A0910D01A091010B505F0AB
:40094000EBFD002006F026F8134BC3F8B805D3F8B8254FF6FD739A420CD80F4BD3F8B8456400E4B221460C2000F05AFC21460D2000F056FC0022084BC3F8B82506F036F96B
:4009800006F046FA012005F0F1FF18B10122024B83F8BC2510BD00BFA05C020810B505F0BBFD002005F0F6FF254B18601A684FF6FD739A4207D8224B1B684F2B03D9204ACE
:4009C0005368023353601E4B1B684F2B07D81C4B1B68322B03D91A4A536801335360184B1B68312B07D8164B1B68142B03D9144A5368013B5360124B1B68142B03D8104A6A
:400A00005368023B53600E4C3223236006F0EEF806F0FEF96268A3689A4202D06068FFF7C5FE074B5A689A6005F076FD012005F09DFF18B10122034B83F8BD2510BD00BFC1
:400A4000AC420208A05C020810B505F065FD002005F0A0FF254BD860DA684FF6FD739A4207D8224BDB684F2B03D9204A1369023313611E4BDB684F2B07D81C4BDB68322BAD
:400A800003D91A4A136901331361184BDB68312B07D8164BDB68142B03D9144A1369013B1361124BDB68142B03D8104A1369023B13610E4C3223E36006F098F806F0A8F958
:400AC000226963699A4202D02069FFF79DFE074B1A695A6105F020FD012005F047FF18B10122034B83F8BE2510BD00BFAC420208A05C020808B5FFF7FBFD072009F0D8F81C
:400B00000D4809F021F90D4B1B7E13F0FF0F04D0502211460A4809F09FFB084B1B7E13F0FF0F04D150221146064809F095FB01210846FFF7C7FD08BDD0300910AC42020857
:400B4000EC1A0910FC1A091008B505F0E5FC002005F020FF154BD861DA694FF6FD739A4208D8124BDB69322B04D901220F4B1A76FFF7C0FF0D4BDB69312B04D800220B4B2A
:400B80001A76FFF7B7FF3222084BDA6106F02EF806F03EF905F0C0FC012005F0E7FE18B10122034B83F8BF2508BD00BFAC420208A05C020808B5174B1B7813F0FF0F24D050
:400BC000FFF796FD144B1B6813F0010F0DD1134BD3F8C005124B196AFFF79AFD0A2009F067F8104809F0B0F80CE00C4BD3F8C0050B4B196AFFF78CFD0A2009F059F80948D3
:400C000009F0A2F80022034B1A70C82004F0EAFDD1E700BF244A0208204A0208A05C0208AC4202086041091008B50A4B1A6A1B699A4204DC074B1A6A5B689A4203DA0222FD
:400C4000054B5A6002E00222034B9A60C82004F0C9FDEAE7AC4202088005324000B583B03223019305F058FC012005F07FFEF0B1B04BD3F8C435D3B9AE4BD3F8C835B3B9F4
:400C8000AC4BD3F8CC25013AC3F8CC25D3F8CC35002B03DA0222A74BC3F8CC25A54BD3F8CC05D3F8C415D3F8C825FFF7DBFD022005F05CFEF0B19F4BD3F8C435D3B99D4B1A
:400CC000D3F8C835B3B99B4BD3F8CC250132C3F8CC25D3F8CC35022B03DD0022954BC3F8CC25944BD3F8CC05D3F8C415D3F8C825FFF7B8FD8F4BD3F8CC35012B7ED105F020
:400D00000BFC002005F046FE0190019B322B1BDD019A4FF6FE739A4216DC864BD3F8C4250132C3F8C425D3F8C435022B03DD0022804BC3F8C4257F4BD3F8CC05D3F8C415EA
:400D4000D3F8C825FFF78EFD019B312B16DC794BD3F8C425013AC3F8C425D3F8C435002B03DA0222734BC3F8C425724BD3F8CC05D3F8C415D3F8C825FFF774FD6D4BD3F808
:400D8000C435012B15D105F0C7FB022005F0EEFD28B90EE0FFF7D2FD0A2004F023FD654B93F8BC3513F0FF0FF4D00022614B83F8BC25604BD3F8C435022B1FD105F0ACFB4A
:400DC000022005F0D3FDC8B1FFF794FE04E0FFF7BBFEC82004F006FD564B93F8BF3513F0FF0FF4D0534B002283F8BF25D3F8CC05D3F8C415D3F8C825FFF734FD4D4BD3F803
:400E0000CC35022B40F08D8005F086FB002005F0C1FD0190019B322B1BDD019A4FF6FE739A4216DC434BD3F8C8250132C3F8C825D3F8C835022B03DD00223E4BC3F8C82514
:400E40003C4BD3F8CC05D3F8C415D3F8C825FFF709FD019B312B16DC364BD3F8C825013AC3F8C825D3F8C835002B03DA0222314BC3F8C8252F4BD3F8CC05D3F8C415D3F854
:400E8000C825FFF7EFFC2B4BD3F8C835012B21D105F042FB022005F069FDD8B1264B5868FFF784FC04E0FFF779FDC82004F09AFC204B93F8BD3513F0FF0FF4D01D4B002220
:400EC00083F8BD25D3F8CC05D3F8C415D3F8C825FFF7C8FC174BD3F8C835022B21D105F01BFB022005F042FDD8B1134B1869FFF78BFC04E0FFF7A8FDC82004F073FC0D4B32
:400F000093F8BE3513F0FF0FF4D00A4B002283F8BE25D3F8CC05D3F8C415D3F8C825FFF7A1FC05F063FE05F073FFC82004F05AFC96E600BFA05C0208AC42020810B564208D
:400F400004F050FC104C114BE361114B2362114B636268236370204601F022FB0B2363730423A3730023E373152222730C2262710322A271E37111232371204601F060FBD4
:400F8000636A3220984710BD70620208F50F0810990F0810E55708102DE9F04182B0884616461D46114C124F009700231A460146204602F027FF3B4600224146204603F034
:400FC0008FF8002406E00A4B0022315D074803F087F80134AC42F6DB054A0021034802F0F3FF002002B0BDE8F08100BF000064402C7303082DE9F04383B0804689461646A5
:401000001D461B4C1B4F009700231A460146204602F0F8FE3B4600224946204603F060F80097002301224146204602F063FF002408E0104B00930023321919460C4802F0BF
:40104000F5FF01346B1E9C42F3DB1A46084C094D0095002332440121204602F0E7FF2A460021204602F0B0FF002003B0BDE8F083000064402C7303082DE9F04786B007F02F
:40108000F1FBFFF75BFF4FF0000A5B4B002203A9012001F0F7FABDF90C000EF067F80022564B0EF0C9F880468946BDF90E000EF05DF80022514B0EF0BFF806460F460022B1
:4010C0004F4B404649460EF047FB18B14FF00008DFF82C9100224B4B404649460EF01EFB18B14FF00008DFF81C910022444B304639460EF031FB08B10026414F0022414BF8
:40110000304639460EF00AFB08B100263D4F4046494607F0A9FC00223B4B0EF08DF834A3D3E900230EF0B2F9804689463046394607F09AFC0022344B0EF07EF82CA3D3E95A
:4011400000230EF0A3F906460F4600222F4B404649460DF0BDFE21F0004500222C4B29460EF0FAFA80B90022284B304639460DF0AFFE009021F0004301930022244BDDE91C
:4011800000010EF0E9FA10B104F030FA824604F02DFACAEB0000B0F57A7F0CD91D4E0221306803F091FB0121306803F069FB0822194B9A6010E0174E0221306803F060FBB7
:4011C0000121306803F080FB144B1B7813F0FF0F02D00822104B5A6000210E4B186803F04FFB01287FF451AFC82004F0FBFA4CE7FC8E7065959E2640706202080000103FB9
:401200000000F03F0000F0BF008076400000494000002440B425030800003240C4420208F0B583B007460E460D4C0E4D0095642300225721204602F0E5FD2B4664223946B4
:40124000204602F04DFF2B4664223146204602F047FF2A466421204602F0B6FE03B0F0BD00006340787303082DE9F04180460E4617460A4C08256560702000F06FFD40464C
:4012800000F06CFDA5606560722000F067FD3946304600F0C7FDA560BDE8F0810006324000B583B002AB03F8011D01221946FFF7DBFF03B05DF804FBF8B507460E46094C3F
:4012C00008256560702000F049FD384600F046FDA5606560732000F041FD304600F06EFDA560F8BD0006324038B50425084B5D60084C402363601023636000F0FFFC08224C
:40130000054B5A6065602023636000F0E1FC38BD00003240800232400006324010B5434C6F22002120460EF08BFA631C236704F14E03636704F12203A36700F0C9FC03E074
:4013400000F0D0FC032868D800F0AEFD0028F7D100F0CEFC00217220FFF7AEFF00F00F0002285CD14021FFF79BFF00210F20FFF7A3FF10F0800F54D002210B20FFF790FFF6
:4013800008222B490120FFF76FFFD1210720FFF787FF02210820FFF783FFC2210920FFF77FFF03210420FFF77BFF01210320FFF777FF00210320FFF773FF0A2003F02CF9DB
:4013C000002400E01C4601210520FFF769FF642003F022F903210520FFF762FF322003F01BF90F210520FFF75BFF322003F014F900210F20FFF760FF10F0400F05D0402136
:401400000220FFF74DFF234603E0631C9BB2042CD8D1032B07D9052010BD012010BD022010BD032010BD002010BD00BF9C6202080C1B091010F1090F0EDB10F1040F0EDB97
:4014400005280FDD0A2810DD0F2811DD142811DD282811DC5A2210E04FF496620DE04FF461720AE04FF4167207E04FF4A57204E0DC2202E0B42200E03C22034BA3F87C20AB
:40148000A3F87E20704700BF9C6202082DE9F84F06460D46047828B1CA4B984205D10127002403E00127FF2400E0002700F010FC4FF00008D0E1C8EBC80AC8EB0A1ADFF8B7
:4014C0000C930AEB090B6F22002158460EF0B8F90BF1010EBC4BC3F870E00AF148004844063058670AF1200AD14409F10209C3F878902022002397E10FB934780136032DAA
:4015000000F29081DFE815F004006500C600270100EB030C14F0400F01D0C02100E080218CF8001049B214F0100F02D04FF0300A01E04FF0200A4AEA01018CF8001014F0F0
:40154000040F02D04FF00C0A01E04FF0080A4AEA01018CF8001014F0010F02D04FF0030A01E04FF0020A4AEA01018CF800100EEB020C14F0800F01D0032100E002218CF8F7
:40158000001049B214F0200F02D04FF00C0A01E04FF0080A4AEA01018CF8001014F0080F02D04FF0300A01E04FF0200A4AEA01018CF80010013A92B214F0020F02D06FF08B
:4015C0003F0A01E06FF07F0A4AEA01018CF8001028E100EB030C14F0400F01D0802100E040218CF8001049B214F0100F02D04FF0200A01E04FF0100A4AEA01018CF8001015
:4016000014F0040F02D04FF0080A01E04FF0040A4AEA01018CF8001014F0010F02D04FF0020A01E04FF0010A4AEA01018CF800100EEB020C14F0800F01D0022100E00121C2
:401640008CF8001049B214F0200F02D04FF0080A01E04FF0040A4AEA01018CF8001014F0080F02D04FF0200A01E04FF0100A4AEA01018CF80010013A92B214F0020F02D0CD
:401680006FF07F0A01E04FF0400A4AEA01018CF80010C7E000EB030C14F0400F01D0C02100E040218CF8001049B214F0100F02D04FF0300A01E04FF0100A4AEA01018CF836
:4016C000001014F0040F02D04FF00C0A01E04FF0040A4AEA01018CF8001014F0010F02D04FF0030A01E04FF0010A4AEA01018CF800100EEB020C14F0800F01D0032100E00E
:4017000001218CF8001049B214F0200F02D04FF00C0A01E04FF0040A4AEA01018CF8001014F0080F02D04FF0300A01E04FF0100A4AEA01018CF80010013A92B214F0020FA8
:4017400002D06FF03F0A01E04FF0400A4AEA01018CF8001066E000EB030C14F0400F01D0802100E0C0218CF8001049B214F0100F02D04FF0200A01E04FF0300A4AEA010178
:401780008CF8001014F0040F02D04FF0080A01E04FF00C0A4AEA01018CF8001014F0010F02D04FF0020A01E04FF0030A4AEA01018CF800100EEB020C14F0800F08D002219E
:4017C00007E000BFFFFF0F109C620208B825030803218CF8001049B214F0200F02D04FF0080A01E04FF00C0A4AEA01018CF8001014F0080F02D04FF0200A01E04FF0300A7D
:401800004AEA01018CF80010013A92B214F0020F02D06FF07F0A01E06FF03F0A4AEA01018CF8001001339BB2202B7FF665AEC8F1AF031BB299101A4A134003D5013B63F0EA
:4018400003030133174A02FA83F31B7A09F8013008F101081FFA88F8B8F1AF0F7FF62BAE00240FE0C4EBC403C4EB03136F220E4919440A20FFF7F8FC07210220FFF710FD50
:401880000134A4B2AF2CEDD9084BB3F87C4000F029FA8442E4D800F02BFABDE8F88F00BF030000800C1B0910B82503089C6202082DE9F04706460D4600F00AFAD2210920FE
:4018C000FFF7EEFC0024C6E0C4EBC407C4EB0717DFF8008207EB08096F22002148460DF0AFFF09F1010C784BC3F870C007F1480EC6440EF1060EC3F874E02037B84408F135
:401900000208C3F87880202000218EE0771C32786E1C95F800900EEB010582EA090212F0400F04D019F0400F03D0802302E0402300E0C0232B705BB212F0100F05D019F01F
:40194000100F05D04FF0200A04E04FF0100A01E04FF0300A4AEA03032B7012F0040F05D019F0040F05D04FF0080A04E04FF0040A01E04FF00C0A4AEA03032B7012F0010F24
:4019800005D019F0010F05D04FF0020A04E04FF0010A01E04FF0030A4AEA03032B700CEB000512F0800F04D019F0800F03D0022302E0012300E003232B705BB212F0200F13
:4019C00005D019F0200F05D04FF0080A04E04FF0040A01E04FF00C0A4AEA03032B7012F0080F05D019F0080F05D04FF0200A04E04FF0100A01E04FF0300A4AEA03032B70C0
:401A0000013880B212F0020F05D019F0020F04D06FF07F0203E0402201E06FF03F0213432B70013189B235463E4620297FF66EAFC4F1AF031BB29910244A134003D5013BD5
:401A400063F003030133224A02FA83F31B7A08F801300134A4B2AF2C7FF636AF002421E0C4EBC405C4EB05151A4B1D446F2229460A20FFF7F9FB07210220FFF711FCC4F133
:401A8000AF0343F38D032B44002283F822206F2229460A20FFF7E8FB07210220FFF700FC0134A4B2AF2CDBD9074BB3F87E4000F019F98442D2D800F01BF9C2210920FFF7D4
:401AC000EFFBBDE8F08700BF9C620208030000800C1B0910B8250308002307E01349086F5522C254496FCA5401339BB2202BF5D970B5002416E0A6080C4DAA6F04F003033B
:401B00000B490B441B7A93556F2229460A20FFF7ABFB07210220FFF7C3FBAB6F00229A550134A4B2AF2CE6D970BD00BF9C6202080C1B091008B5002304E00021094AD154E0
:401B40000133DBB2152BF8D900210420FFF7A8FB6F2204490A20FFF787FB07210220FFF79FFB08BD9C62020838B50E4C1023A360142002F051FD00F0D9F808220A4B9A6063
:401B80004023A3600425A5600A2002F045FD65600A2002F041FDA5600A2002F03DFDFFF7BDFB38BD800232400006324038B5FFF793FFFFF7BFFF1E2002F02EFD234C402552
:401BC0006560322002F028FDA56000210F20FFF773FB10F0400F36D000210B20FFF760FB01210320FFF75CFB03210520FFF758FB01210520FFF754FB322002F00DFD80216D
:401C00000420FFF74DFB00210520FFF749FB01210720FFF745FB1E2002F0FEFC00F094F8102363606560142002F0F6FC0822084B5A60042363602025A5601E2002F0ECFC47
:401C40006560002038BD042038BD00BF800232400006324010B50446FFF746FB2046FFF7E9FB10BD08B510B1FFF77EFF01E0FFF79DFF08B9012008BD002008BDF8B5074609
:401C80000E4614461D4613B10120FFF7EBFF24B931463846FFF70CFE15E0631EDBB2012B11D800213846FFF7F1FB012C07D101213846FFF7EBFB02213046FFF7E7FB0321CD
:401CC0003046FFF7E3FB15B10020FFF7CBFFF8BD08B50022024BC3F8082100F07FFD08BD00003840014BD3F808017047000038400122014B5A6070470000384010B5074CC7
:401D0000074A0849204602F0E3FA236843F0004323600822044B9A6010BD00BF0000674008720308881B0910000632400822044B9A60044A136843F000431360704700BF4E
:401D4000000632400000674008B50249024802F0F3FB08BD087203080000674008B50146154801F0C1F9144BD3F8C03F13F0040FF9D0114BD3F8042242F48032C3F80422F7
:401D8000D3F8042222F48032C3F80422D3F80422D3F8042342F48032C3F80423D3F8042322F48032C3F80423D3F804230422C3F8C02FD3F8C03F08BD0000674008B5014644
:401DC000174801F091F9164BD3F8C03F13F0040FF9D0134BD3F84003D3F8042242F48032C3F80422D3F8042222F48032C3F80422D3F80422D3F8042342F48032C3F8042392
:401E0000D3F8042322F48032C3F80423D3F804230422C3F8C02FD3F8C03FC0B208BD00BF0000674038B50C46054600B121B940F2E6511B4802F014FC22462946194801F0D1
:401E400099F9184AD2F80832C3F30803D2F80822C2F3C032D342F4D1124BD3F8042242F48032C3F80422D3F8042222F48032C3F80422D3F80422D3F8042342F48032C3F8FD
:401E80000423D3F8042322F48032C3F80423D3F804230422C3F8C02FD3F8C03F204638BD181B091000006740044B1B6913F0080F01D0012070470020704700BF8002324065
:401EC00040B1C2694AB1026A52B1436A5BB94FF0FF3070474FF0FF3070474FF0FF3070474FF0FF3070470020704700BF0222C271082343711021017103218171C273437397
:401F0000142303730023837343688360C3680361704700BF4B790C2B0BD84A7A93420BD0027802F0F00203F00F0313430370002070476FF00300704700207047CB79072B8D
:401F40000CD8CA7A93420CD0027802F08F021B0103F0700313430370002070476FF0030070470020704700BF8B790C2B0BD88A7A93420BD0027802F0F00203F00F0313432F
:401F80000370002070476FF003007047002070474B7B0D2B0BD84A7C93420BD0027802F0F00203F00F0313430370002070476FF00300704700207047CB7B022B09D80278CF
:401FC00002F0CF021B0103F0300313430370002070476FF0030070478B7B042B0BD88A7C93420BD0027802F0F80203F0070313430370002070476FF0030070470020704762
:402000007BB138B51C46DD6975B182B19B78012B01D140F0800013460A4601466078A84738BD4FF0FF3070474FF0FF3038BD6FF00B0038BD38B504460D460B4602220146EC
:402040004020FFF7DDFF034680B929462046FFF761FF034650B929462046FFF76FFF034620B92946601CFFF77FFF0346184638BD38B504460D460B46022201464220FFF73B
:40208000BFFF034680B929462046FFF781FF034650B929462046FFF78FFF034620B92946601CFFF799FF0346184638BD00B583B002A9002301F8013D034601220220FFF742
:4020C0009FFF9DF80730C3F34303012B06D0022B07D0032B08D0072B0BD108E06FF0050007E06FF0060004E06FF0070001E06FF0080003B05DF804FB30B585B005460C4678
:402100000023019302938DF80C301346821D01A91220FFF775FF48BB02469DF805301B021BB29DF804100B4323809DF807301B021BB29DF806100B4363809DF809301B023E
:402140001BB29DF808100B43A380032D0BD19DF80A009DF80B309DF80C10090441EA03230343A36004E00023A36001E06FF00102104605B030BD00BF10B584B00C461346F9
:402180000021009101910291CDF80B1010BB062269460C20FFF734FF0146002846D19DF801301B021BB29DF80020134323809DF803301B021BB29DF80220134363809DF856
:4021C00005301B021BB29DF804201343A3800023A36030E002460C3269460C20FFF710FF014630BB9DF801301B021BB29DF80020134323809DF803301B021BB29DF80220F9
:40220000134363809DF805301B021BB29DF804201343A3809DF80C009DF80D309DF80E20120442EA03230343A36004E06FF0010101E06FF00101084604B010BD70B584B0E9
:4022400006460D4614460022009201920292CDF80B2000F10C0269460C20FFF7D1FE002843D102469DF801301B021BB29DF800100B4323809DF803301B021BB29DF80210D8
:402280000B4363809DF805301B021BB29DF804100B43A3809DF807301B021BB29DF806100B432B809DF809301B021BB29DF808100B436B809DF80B301B021BB29DF80A10BE
:4022C0000B43AB80032E0CD19DF80C009DF80D309DF80E10090441EA03230343AB60A36005E00023AB60A36001E06FF00102104604B070BD2DE9F843002B34D00546894655
:4023000090461E461C6A002C30D0002A31D09B78012B01D100F07F05337A112B02D0337C152B19D143464A4629467078A0470746736A0120984714E0376A012309EB040239
:4023400029467078B84707460135EDB2736A012098470134E4B201E000242746A3B29845EAD85FB108E04FF0FF3707E04FF0FF3704E06FF00B0701E06FF001073846BDE84E
:40238000F88300BF10B582B0044602A8002320F8043D2146FFF74EFE0346B0B92346012201A94020FFF7A6FF034670B963796372E379E372234601220DF105014120FFF735
:4023C00099FF034608B9A279A272184602B010BD10B582B0044602A8002320F8043D2146FFF746FE0346B0B92346012201A94220FFF780FF034670B9637B6374E37BE3748C
:40240000234601220DF105014320FFF773FF034608B9A27BA274184602B010BD30B583B004460D4600238DF807300B46012201464020FFF7E5FD034628BB2A79122A14D1B0
:40244000237863F07F0323702B46012221464020FFF750FF0346B0B92B4602220DF107015820FFF747FF03460DE0227812F0800F09D002F07F0222702B460122214640201E
:40248000FFF738FF0346184603B030BD30B583B000238DF807300279A2F11003DBB2022B1AD8037A9A421AD0044601460DF10700FFF7B4FF054698B923460122211D7E205E
:4024C000FFF718FF0546237A102B02D1636A052098472379237203E06FF0030500E00025284603B030BD00BF38B5027BA2F11403DBB2012B01D9172A1DD1037C9A421DD09D
:4025000004460346012200F10C017E20FFF7F2FE0546237C142B03D1636A5120984707E0172B05D1237B152B02D1636A0A209847237B237403E06FF0030500E000252846D1
:4025400038BD00BF30B583B0B6238DF80730F0B10446436AF3B1034601220DF107017E20FFF7C8FE0546636A0120984755B9A378012B07D1234601220DF107017F20FFF786
:402580003FFD054645B92046FFF7B0FC04E04FF0FF3501E04FF0FF35284603B030BD00BF30B583B00446FFF78BFC014650B9A378012B07D1234601220DF107017F20FFF7A1
:4025C0001FFD014609BB00232370032207E02346012221460020FFF713FD01462A46531EDDB212B12378D12BF1D149B92378D12B09D1FF23E3702046FFF7A4FF014604E0F4
:402600006FF0020101E06FF00201084603B030BD60B1426A6AB110B50446FFF737FF034658B92046FFF760FF034606E04FF0FF3301E04FF0FF3318467047184610BD00BFEE
:40264000B0B1426ABAB110B50446FFF79BFE0346A8B92046FFF7BCFE034680B92046FFF7D7FF034658B92046FFF720FD034606E04FF0FF3301E04FF0FF3318467047184698
:4026800010BD00BF38B500F0030510F0040F01D1002000E00320B3B11446022D08D0032D0CD0012D12D1A1B11A46FFF725FD38BD92B11A462146FFF75FFD38BD7AB189B14A
:4026C000FFF7BCFD38BD4FF0FF3038BD6FF0040038BD4FF0FF3038BD4FF0FF3038BD4FF0FF3038BD4FF0FF3038BD00BF10B582B002AC012344F8043D00231A4614491548AD
:4027000007F0FCFC214608F03CFE09F09BFA60B14FF48472B021002009F079FB4FF48472B021002009F09FFB0BE0B0224FF48471002009F06CFBB0224FF48471002009F086
:4027400092FB0549002009F079FB02B010BD00BFF88409102C850910D0420208012901D1002070474FF0FF30704700BF004870471C63020808B5012002F030FB014B18603A
:4027800008BD00BFCC79020808B500231A4619460248006802F04EFA08BD00BFCC79020808B54FF0FF31024B186802F041FC08BDCC79020808B503F0B1F908BD704700BF17
:4027C00008B54FF40041034806F018FE024807F00DFB08BDD0790208B47D091008B5084B1B783BB9074A0021074801F0ADFF0122034B1A70044B01229A609A6108BD00BFBB
:40280000D0F90208BC1B0910000038401F4B98422DD00CD840282ED003D8E8B1102828D02FE0802829D0B0F5807F28D029E0184B984228D006D8B0F1204F0DD0154B98429F
:4028400012D01EE0144B98420AD00133984209D0023B984215D101E0002070470F4870470F4870470F4870474FF4A0007047074870470D4870470D4870470D487047034890
:4028800070470C4870474FF4A400704706005200010000F0090000A0040000F0010052000200520003005200010050000200500005005200FF00520038B5124B1B6893F833
:4028C0003130012B04D840F2C3110F4801F0C8FE0C4B1D682A6AB5F8B03013442C46D5F8B420D358002B0BDB084B1868FFF78EFF6B6801229A6063689B68002BFBD138BDB8
:40290000034838BD2C720308081C0910D4F90208020050001A4B186128B102230370FF23437000234380174B1B6893F850202AB300B583B0B3F93830ADF8003000230193F9
:402940001149684601F02EFEBDF90030002B08DB590903F01F03012202FA03F30B4A42F82130084B1B6893F8513023B102220849012000F0F3FA03B05DF804FB704700BF2C
:40298000D4F902082C7203084544020800E100E0FD44020808B50248FFF7BCFF08BD00BFE8F902082DE9F04104460D46174698469DF81860072903D9D921354801F050FEE3
:4029C00037F00F0303D0DA21314801F049FEB8F1010F03D9DB212E4801F042FE36F01F0303D0DC212A4801F03BFE22680123AB4022EA030308F0010808FA05F843EA080350
:402A00002360244B1B6893F87D100B59A8000F22824023EA020207F00F0303FA00F717430F51072D04D94FF422711B4801F018FE36F01F0304D040F28921174801F010FE9B
:402A4000144B1B689A69A41AE4095B6924011919032D0DD81959ED001F22AA4021EA020206F01F0606FA05F515431D51BDE8F081043D4A68ED001F23AB4022EA030306F0F7
:402A80001F0606FA05F51D434D60BDE8F08100BF481C09102C720308881C091038B50B4B1B68D3F8B4301B58002B0DDA0D4604460B0C1B0423B140F2D521054801F0D0FD5E
:402AC000A9B26160002038BD024838BD2C720308C81C091001008A0038B50368002B01DA002300E0094B73B90D460446C2600B0C1B0423B140F2BB21054801F0B1FDA9B236
:402B0000A160002038BD014838BD00BF01008A00C81C091038B504460D4619B99921084801F09EFD074B1B68D3F8B4301B59002B03DAE3682B60002038BD034838BD00BF1E
:402B4000081D09102C72030801008A00254B1B6893F8313083423AD900293AD00B6813F01F0F38D170B50D4604461E4B1B6893F83130984204D340F2C3111B4801F070FD3A
:402B8000184B1B68186AB3F8B03004FB0304174E34602A68D208002168680CF051FE00212046FFF77BFF346825B940F293310E4801F056FD2A4600212046FFF78DFF60B9E8
:402BC00000210A4B1868FFF769FF40B970BD084870470748704706487047064870BD054870BD00BF2C720308C81C0910ECF9020803018A0001018A0010B504461346B2B913
:402C0000A9B9124B1B6893F83130984204D340F2C3110F4801F024FD0C4B1B681A6AB3F8B03004FB03240B4B1C60002010BD43B149B1084A51609360111D2046FFF786FF85
:402C400010BD054810BD044810BD00BF2C720308C81C0910ECF9020803018A002DE9F0411B4B1B68DC68236883422CD90D464609A0EB4610012303FA00F819B901F05DFDF0
:402C8000074600E00027124B18680368002B01DA002300E00F4B83B9626852F8263018EA030F05D023EA080342F82630002400E0094C0021FFF7F2FE00E0084C25B93846EE
:402CC00001F03FFD00E0064C2046BDE8F08100BFECF9020801008A00020188000301880004018A000B4B1B68DB681A6882420CD94109A0EB4110012202FA00F05B6853F890
:402D00002130184203D004487047044870470448704700BFECF902080101880004018A0000018800024B1B680BB9014B18607047F8F902082DE9F8430446884691461D460F
:402D4000089F2C4B1B681BB9B5212B4801F088FC284B1B682C2000FB04F01C18EEB21E50C5F3072363602D0CA560244B1B6893F831309E4204D340F2C311214801F070FC69
:402D80001E4B1B68196AB3F8B02006FB02162661666893F832309E4204D340F2DF11184801F05EFC154B1B681D6A803605EB46156561A668330C1B0423B14FF4FF711048CE
:402DC00001F04EFC330C1B0423B140F2FF110C4801F046FCB3B243EA0646AE60C4F81C90C4F820800023A36117B1B7F90030A381BDE8F883F8F90208481D09102C720308B8
:402E0000C81C0910F0B58FB0044618B95221274801F026FCA369072B03D95621234801F01FFCE36A1BB95821204801F019FC236B1BB959211D4801F013FC07AD04F114068D
:402E40000FCE0FC537682F6002AD26460FCE0FC533682B60164B1B68B3F93620079B1344ADF83030089B0D93A26AE16A0CAD00953B460A98FFF75EFF00210091069B0A469C
:402E80000598FFF757FF216B284601F08BFBBDF93030002B08DB590903F01F03012202FA03F3044A42F821300FB0F0BD481D09102C72030800E100E0F8B506460F461D462A
:402EC00014461AB9FD211F4801F0CAFB1E4B1B681BB9FE211B4801F0C3FB1B4B1B682C2101FB063001FB07314B68012202FA03F31B04466802FA06F60269EAB18F69EFB9AA
:402F00001268002A01DA002200E0104AC2B92288134323600369DC6001238B614D620469330C1B0423B140F2BB21094801F098FBB2B2A2600020F8BD0648F8BD0648F8BD8E
:402F40000548F8BD481D0910F8F9020801008A00C81C091004028A0007028A00F8B505460F4616460E4B1B6823B94FF4AF710D4801F076FB0A4B1B682C2404FB0534236AC3
:402F800023B94FF4B171074801F06AFBE369B34204D9236A43F826700020F8BD0248F8BDF8F90208481D09100A028A0070B582B000230193044620B940F2D111284801F026
:402FC0004FFB236923B94FF4E971254801F048FB636923B940F2D311214801F041FB236A23B94FF4EA711E4801F03AFB6369DD682A0C20D012041A601B682069194B1B6840
:40300000D3F8B430C358002B15DA01A9FFF782FD60B9019803681E0CDBB2E269934206D2226A52F8233013B1984700E0002631462069FFF733FDADB275B16369ADB21D609C
:403040001B68636A1BB198470023636202E0A36A03B198470023A36163691B6802B070BD481D09102C72030810B50446074B1B6823B940F2B111064801F0F2FA034B1B68BF
:403080002C2000FB0430FFF791FF10BDF8F90208481D091010B4D0F8003303F00F03072B06D900230DE0D0F84043CC54013300E000239342F7D306E0D0F8404321F8134006
:4030C00001339342F8D35DF8044B704710B51446D0F80833C3F308039A4200D31C462246FFF7D8FF204610BD036813F4006F01D0802200E04022D0F80832C3F30803934217
:4031000003D0C0F84012012070470020704700BF10B4D0F8003203F00F03072B06D900230DE0CC5CC0F84042013300E000239342F7D306E031F81340C0F840420133934283
:40314000F8D35DF8044B704710B51446036813F4006F01D0802200E04022D0F80832C3F30803D31AA34200D81C462246FFF7D0FF204610BDF8B507460D461446D0F8006274
:4031800006F00F060BE0224629463846FFF7DCFF072E01D9430000E003461D44241A002CF1D1F8BD02E0C0F84012013A002AFAD1704700BF10B51446036813F4006F01D0D3
:4031C000802200E04022D0F80832C3F30803D31AA34200D81C462246FFF7E4FF204610BD10B54A6841F201039A4231D1D0F80833C3F30803B3B10B6A43F040030B620B7819
:4032000073B1D0F8043343F48033C0F80433D0F8043323F48033C0F80433D0F8043301E0D0F840330B6A43F020030B620B6A23F010030B62036E23F4204303660023C0F850
:40324000C83F0123C0F8C03FD0F8C03F202221E0D0F80832C3F30802D0F80832C3F3C03313440A6BD21A4A630A6A12F0080F05D1CA6A1A44CA628A6AD31A8B620B6A43F0F9
:4032800004030B620B6A23F001030B620023C0F8883F1022D0F84C4F40F201131C420DD0036823F00043036000238366C366036843F000430360036842F040024FF080535B
:4032C0004B604B6C0BB11046984710BDD0F80C3F13F0020F1DD00222C0F8002FD0F8002FD0F8002F12F0040F02D04FF4001001E04FF480108A6802438A604A68B2F5B81F62
:4033000007D00A7B12B14FF4C01201E04FF4B0124A6013F4807F03D08A6842F400028A6013F0010F03D08A6842F480028A6040F21112134202D04FF4C0134B60704700BFAF
:403340000023C0F8C83FC0F8883F836E23B140F21713C0F8083F704740F21313C0F8083F182383664FF4B8134B60704738B5D0F80C4F036E23F4807303660023C0F8C83F54
:40338000C0F8883FC0F8083F40F21713C0F8003FD0F8003F8B6823F480338B604B7B13B18B69CB610BE08D69D0F80822C2F30802D0F80832C3F3C0331344EB1ACB6140F2EC
:4033C00001131C421BD0036E9B0F032B05D114F4827F14BF0123002300E001235BB1036823F00043036000238366C366036843F00043036003684FF080534B601BE00B78DB
:4034000093B1D0F8043343F48033C0F80433D0F8043323F48033C0F80433D0F804330123C0F8C03FD0F8C03F0B7B0BB10B4B01E04FF080534B604A6C72B14B7B13B14FF43B
:40344000802001E04FF400308B6813F0F87301D04FF400231843904738BD00BF000010100346002940DB11F0C00F06D0002181664FF0805050602F4844E011F4807F36D11A
:4034800011F0010F0ED050682B49884232D1196E11F0804F0CBF012100214FF08050506026482FE011F0020F06D050682249884223D10021224825E011F0100F05D04FF0F6
:4034C00080515160002108461CE050681A49884216D1517B11B14FF4881101E04FF4A0115160002108460DE0012116480AE00121154807E00121114804E00021134801E03B
:403500000021084679B1196821F00041196000219966D966196841F0004119601B684FF080535360704740F21712C3F8002FD3F8003F70470820AA00000013100620AA0011
:403540000420AA000320AA000720AA000520AA00036853B110B50446012001F075F82368013B23601BB1002010BD002070474FF0004010BD70B505460C4691F8243013F04B
:40358000FF0F0ED1CB6A63B94B6C0BB108209847E36AB3FA83F35B0984F824300123C5F8883F94F8243013F0FF0F16D063783BB12B6813F4006F01D0802202E0402200E0C9
:4035C0000122FF212846FFF7F5FD236B18442063236A43F00803236270BDE26A012A11D963780BB1013A00E00122A16A2846FFF7ABFD236B03442363E36A1B1AE362A36ACC
:403600001844A062D5F80832C3F30803802B23D0E36A012B20D101F090F8A36A1B78C5F840324026C5F8806FD5F8803F01F089F8236B013323630023E362A36A0133A3620E
:40364000C5F8886F63783BB1236A43F002032362636C0BB10420984770BD00BF38B54B68B3F5A81F03D14FF4C0134B6038BD4B68B3F5A01F4DD10C4605464A69012A11D9D5
:403680004B780BB1013A00E0012221692846FFF75BFDA3690344A36163691B1A6361236903442361D5F80832C3F30803802B14D06369012B11D101F040F823691B78C5F85E
:4036C00040324023C5F8803FD5F8803F01F039F8A3690133A361002363616369CBB9237B33B14023C5F8883F4FF4A813636005E00023C5F8883F4FF4B0136360637843B102
:40370000A36843F40033A360636C13B14FF48030984738BD70B504460D468A6C82B3036813F4803F06D0D0F84C3F13F0400F03D0022002E0002000E00020236E13F4006F20
:4037400006D1D4F84C3F13F0800300D001231843C0B190470123C4F8C03FD4F8C03F024648B91023C4F8403FD4F8403F40F2D113C4F8483F07E040F2C113C4F8483F02E0E7
:40378000002200E00022D4F8043243F48033C4F80432D4F8043223F48033C4F80432D4F804320AB9012300E00223E366002A59D1666E06F010066B6C23B10EB1012000E073
:4037C000022098477EB141F202036B602B6A43F001032B626B6B2B63002385F824300123C4F8883F70BD41F201036B602B6A43F010032B620123C4F8C83F2B78BBB1EB6B5B
:40380000BBB1236E43F400532366ED6B802D05D9A5F18003802B0ED8813D0DE0013D236E43F4004323660023C4F8C83F04E0002502E0002500E03F25236813F4006F01D062
:40384000802300E040239D4204D34FF42071064800F006FFD4F8043323F0FF03EDB21D43C4F8045370BD00BF881D091038B54B68B3F5881F03D0B3F5901F1AD038BD0B6955
:40388000D0F840231A708B6901338B614B69013B4B612BB10B6901330B610423836638BD0B7B13B14FF4C01301E04FF4B0134B6038BD0C4605464A690969FFF707FCA36900
:4038C0000344A36163691B1A6361226910442061012B24D82B6E23F480732B666369012B16D12B6813F4006F01D0802300E0402323B94FF42071184800F0B2FED5F80433A9
:4039000023F0FF03C5F804334FF48813636038BD0023C5F8C83F4FF4B013636038BD402B01D89C1E00E03F242B6813F4006F01D0802300E040239C4204D34FF4207106486B
:4039400000F08EFED5F8043323F0FF02E3B21343C5F8043338BD00BF881D091038B5CB6B002B50D00B78002B3FD00C460546D0F80423D2B20132896BFFF7A8FB236C034491
:403980002364E36B1B1AE363A26B1044A063802B06D9A3F18002802A0FD8A3F181040DE02B6E43F400432B66E36B0BB15C1E00E000240023C5F8C83F00E03F242B6813F42C
:4039C000006F01D0802300E040239C4204D34FF42071104800F044FED5F8043323F0FF02E3B21343C5F8043338BD0123C3668A6B0B6CD0F84003D0540B6C01330B64CB6B6A
:403A0000013BCB6338BD0223C3660023C0F8C83F38BD00BF881D0910F8B50B78012B03D00C7A1CB9002702E0002700E00127002800F0A780002900F0A680002A00F0A58006
:403A400016460C460546013BDBB2022B03D94F214F4800F005FE637803B163791BB150214B4800F0FDFD94F90330002B03DA5121474800F0F5FD237913F0010F03D05221BC
:403A8000434800F0EDFD2369102B03D95321404800F0E6FDE368102B03D954213C4800F0DFFD637913B14FF4803100E00021E27912B14FF4807300E000230B4343F4006334
:403AC0002B60A37913B94FF4006300E000232269013A02F00F021A43E368013B1B01DBB21343227843EA82732B6617B140F2073301E040F20713C5F800330FB1254B00E050
:403B0000254B2B6763780BB17F2300E00023C5F80433E3785B00DBB2227943EA0243C5F810331E4BC5F80032A3780BB1402300E00123C5F804320023C5F8C83EC5F8883E11
:403B4000C5F8C83FC5F8883FC5F8083F2378022B02D040F2D11300E00023C5F8483F63783370A37873704FF0805373600020B060B06130623064F0633063F0627064B0641A
:403B8000F8BD0748F8BD0648F8BD0548F8BD00BFCC1D091003002A0013102A00070101000120AA0038B505460C4621B940F2C321194800F055FD2B6E9B0F012B17D1174B62
:403BC0002344174A93421ED9A4F5BD13A3F5D66302F5611202F56162934216D9A4F57104A4F533440F4B9C4211D80F4838BD84B1286EC0F303102B6E03F00F0318440230C7
:403C0000B4FBF0F038BD094838BD094838BD002038BD002038BD00BFCC1D091020AD88FF405B730040555C0440420F00801A0600A08601002DE9F84307468846914622B9BC
:403C400040F21221624800F00BFD08F1FF34614B9C4204D940F213215D4800F001FD3B6E9B0F012B0DD149463846FFF79BFF0546D7F8003323F40073C7F80033564B3B67AB
:403C8000A2E0544B9C421FD8544B984509D8A9F5BD13A3F5D663524A934218D90021012328E0504B984507D84F4B4B444F4A934213D9002101231DE04D4B4B444D4A934214
:403CC00012D90021012315E00021012312E0002141F288352E460B460CE000214FF461754FF4C8660B4605E001214FF4BE754FF41B760023002B66D13F4BB3FBF9F3B6FBFF
:403D0000F3F404FB03F2964200D90134102C00D910240F2C8CBF00220122B5FBF3F606FB03F39D4200D90136102E00D91026A519B9FBF5F50FE022B10F2C09D80134002251
:403D400006E00F2E04D801360F2C8CBF00220122A519B9FBF5F5454502D9A3191F2BEAD941B1D7F8003343F40073C7F80033234B3B6707E0D7F8003323F40073C7F80033B3
:403D8000154B3B67E31F092B04D940F283511C4800F066FC3B6E23F0F003013C2401E4B223433B66731F0B2B04D94FF4B461144800F056FC3B6E23F00F03013E06F00F06D1
:403DC0001E433E6600E000252846BDE8F88300BFCC1D09103F420F0013102A00A0860100502D1900801A060020AD88FFA0432100807E25FFC02BAF0000CA9A3B03002A0050
:403E00000C1E09102DE9F04182B005460C4617469846089E11F0800F04D04FF4D961314800F01EFC304B984504D940F2C9612D4800F016FC012F04D940F2CA61294800F011
:403E40000FFC0023C5F8483F7368B3F1805F41D14FF47A7303FB08F30193244B7360012F14BF00230123737340F21713C5F8003FD5F8003F0423C5F8C03FD5F8C03FD5F851
:403E8000043243F48033C5F80432D5F8043223F48033C5F80432D5F804326400E4B23C43C5F840420223AB66D5F8004F24F0F804E405E40DD5F8403F03F0C0031C4301A82E
:403EC000FFF746FB54EA0001EED032462846FFF7C7FA00E0064840F2D113C5F8483F02B0BDE8F081CC1D091037894100000013100220AA002DE9F04182B005460F4614463C
:403F00009846089E11F0800F04D040F229712A4800F0A6FB294B984504D940F22A71264800F09EFB012C04D940F22B71224800F097FB736813F4801F39D04FF47A7303FB5C
:403F400008F301931E4B7360012C14BF0023012373736B6E13F0200F01D0092300E00123AB666B6E13F0200F05D0002009E001A8FFF7EEFA00E0002018B9AB6E13F0010FBF
:403F8000F5D170B97F00FFB23C43C5F84042D5F8000F40F20714044001A8FFF7D9FA2043F5D0324601462846FFF75AFA00E0054802B0BDE8F08100BFCC1D091037894100EF
:403FC000000013100220AA0070B582B005460C461646134B994204D940F28C71114800F03FFB736813F4801F17D04FF47A7303FB04F401941823AB66D5F8004F24F0EE0429
:40400000E405E40D01A8FFF7A3FA54EA0001F3D032462846FFF724FA00E0034802B070BD37894100CC1D09100220AA002DE9F04383B0074688461C460A9D914622B94FF400
:40404000FB61244800F00CFB234B9C4204D940F2D971204800F004FBB8F1010F04D940F2DA711C4800F0FCFA6B68B3F5881F2BD14FF47A7303FB04F40194D7F8C06F06F05B
:404080000406D7F8001F40F201140C4001A8FFF75FFA44EA00010EB90029EED046B1D7F8403389F800300523C7F8C03FD7F8C03F2A463846FFF7D4F9034630B9B8F1000F67
:4040C00003D10422BA6600E0044B184603B0BDE8F08300BFCC1D0910378941000220AA00F0B583B005460F4614461E46134B9A4204D940F63201124800F0B2FA7368B3F591
:40410000A01F17D14FF47A7303FB04F40194C5F84072D5F8004F24F0F804E405E40D01A8FFF716FA54EA0001F3D032462846FFF797F900E0034803B0F0BD00BF3789410040
:40414000CC1D09100220AA0070B504460E46D0F88C3E13F0010F07D04FF480534B600123C0F8803ED0F8803ED4F84C5F40F201131D420FD0336A15F4807F02D04FF48072AA
:4041800000E08022134333620023C4F8C83F45F010050EE015F0100F0BD0D4F80833C3F3080333B1F36B23B10123C4F8C43FC4F8C83FD4F8CC3F13F0010F08D03146204652
:4041C000FFF7CCFB0123C4F8C03FD4F8C03F15F0100F0AD031462046FFF702F81023C4F8403FD4F8403FD4F84C5F15F0C00F0DD031462046FFF78EFA0123C4F8803ED4F8E7
:40420000803EC023C4F8403FD4F8403FD4F88C3F13F0410F08D031462046FFF7ABF90123C4F8803FD4F8803F70BD00BF70B506460D46D0F8004E14F0020F0AD0836E2BB172
:40424000002383668B6843F080738B604FF4C0136B6014F0010F05D029463046FFF736F824F0040414F0080F08D029463046FFF7FDFA0123C6F8C03FD6F8C03F14F0040FB5
:4042800008D029463046FFF7E9F90123C6F8803FD6F8803F6B68B3F5C01F03D129463046FFF764F86B68B3F5B01F03D129463046FFF746F870BD00BF08B54B6813F4801F9D
:4042C00002D0FFF7B3FF08BDFFF73EFF08BD00BF002800F02481F8B50546002900F0218117460C460B78012B03D93F218F4800F0B7F96378012B07D9052B05D0022B03D05B
:4043000040218A4800F0ACF9A378032B03D94121864800F0A5F92378012B07D16368023B0E2B03D94321814800F09AF9A36933F00F0303D044217D4800F092F9A368043B63
:404340000C2B03D94521794800F08AF9E368043B0C2B03D94621754800F082F96378022B07D0A268E3689A4203D047216F4800F077F9636A33F06D0303D049216B4800F0C2
:404380006FF9E36A33F0730303D04A21674800F067F9236B33F4206303D04B21634800F05FF96378A678052B07D8DFE803F0060305060603022600E00026A368082B04D8E1
:4043C000E368082B03D9002302E0002300E0012313B14FF4006200E00022237F13B14FF4807300E000231A436368013B03F00F03134343F080732B60226A2B6813F4006F28
