:020000041008E2
:4000000000780408EB0208100D0000005103081051030810510308105103081000000000000000000000000000000000415C08104D03081000000000E15C0810455D08104E
:400040004D0308104D0308104D0308104D0308104D0308104D0308104D0308104D0308104D0308104D0308104D0308104D0308104D0308104D0308104D0308104D03081000
:400080004D0308104D0308104D0308104D0308104D0308104D0308104D0308104D0308104D0308104D0308104D0308104D0308104D0308104D0308104D0308104D030810C0
:4000C0004D0308104D0308104D0308104D0308104D0308104D0308104D0308104D0308104D0308104D0308104D0308104D0308104D0308104D0308104D0308104D03081080
:400100004D0308104D0308104D0308104D0308104D0308104D0308104D0308104D0308104D0308104D0308104D0308104D0308104D0308104D0308104D0308104D0308103F
:400140004D0308104D0308104D0308104D0308104D0308104D0308104D0308104D0308104D0308104D0308104D0308104D0308104D0308104D0308104D0308104D030810FF
:400180004D0308104D0308104D0308104D0308104D0308104D0308104D0308104D0308104D0308104D0308104D0308104D0308104D0308104D0308104D0308104D030810BF
:4001C0004D0308104D0308104D0308104D0308104D0308104D0308104D0308104D0308104D0308104D0308104D0308104D0308104D0308104D0308104D0308104D0308107F
:400200004D0308104D0308104D0308104D0308104D0308104D0308104D0308104D0308104D0308104D0308104D0308104D0308104D0308104D0308104D0308104D0308103E
:400240004D0308104D0308104D0308104D0308104D0308104D0308104D0308104D0308104D0308104D0308104D0308104D0308104D0308104D0308104D0308104D030810FE
:400280004D0308104D0308104D03081010B5054C237833B9044B13B10448AFF300800123237010BDFC4A020800000000EC2B0910084B10B51BB108490848AFF300800848ED
:4002C000036803B910BD074B002BFBD0BDE81040184700BF00000000004B0208EC2B0910C8440208000000007047FFF7FDFF72B6104C114DAC4209DA21686268A368043B1B
:40030000A2BFC858D050FAE70C34F3E70B490C4A00209142BCBF41F8040BFAE709480A490860BFF34F8F00F045F900F01FF900F01DF8FEE7F02B0910082C0910FC4A020853
:4003400058BC03080040020808ED00E0FEE7FEE700B504207146084202D0EFF3098001E0EFF30880043003F09DFFFEE700B583B007F0F6FC62B605F005FE06F02FF809F074
:4003800039F9142001F0F4FA012001F0F9FA002009F07AF86FF07F4009F06CF809F0F8F80822074B9A6000230193022200924FF480620449044804F02FFE04F05FFEFEE70C
:4003C0000000324024180910C50E081008B5012002F0C2F808BD00BF704700BF5C4AD2F8803303F00F0303F1D00152F8212002F00702032A04D0042A05D092B9554914E073
:40040000554A116811E003F1C002514951F8222002F01F02112A06D0132A04D04FF4FA4103E04E4901E04FF400418BBB484BD3F8902502F00100D3F88825C2F30172D3F88F
:40044000883513F0405F07D0414BD3F88835C3F30173012B02D102E0012300E0002303B108B9032A46D13A48D0F88025C2F31103D0F88425C2F30C02D0F88005C0F30060FB
:400480000130B1FBF2F202FB03F2B2FBF0F131E0012B2FD12E4BD3F8402602F00100D3F80026C2F30172D3F8003613F0405F07D0274BD3F80036C3F30173012B02D102E010
:4004C000012300E0002303B108B9032A12D12048D0F8002602F07F02D0F80036C3F30423D0F80006C0F3044002FB01F2B2FBF3F2B2FBF0F1164BD3F88033C3F3011321FA13
:4005000003F215494A601648D0F89030C3F3072301330069000E0130B2FBF0F08860B2FBF3F3CB600B6103F5742202F23F220D48A0FB0202C2F387420A7503F2E7330A4A46
:40054000A2FB03239B098B61DB03CB61704700BF0000264000127A008C42020800366E010000214083DE1B43D34D621008B50D4803F082FFFFF730FFFFF730FF002211463E
:40058000042001F0B1FD084801F044FE074B1B6893F8513013B1064801F0ACFE01F072FC08BD00BF7C1D0910184B020860B903083418091008B503F0D0FE074AD2F888308B
:4005C00043F47003C2F88830BFF34F8FBFF36F8F03F0C7FE08BD00BF00ED00E0F8B506460F4601F03BFB0546064C3B4632460146204601F0D1F941F2B062294620460FF00A
:400600006FF8F8BD984C020870B5ADF57A7D044608F0BEFF0023184609E003EB43018A00A2584DF82320904200DA10460133F92BF3DD00210BE05DF821300344962202FB73
:4006400003F3420093FBF2F34DF821300131F929F1DD002425461FE05DF824000EF00EFA07F09EFC0EF020FD06460146284609F015F9F82C0EDC631C5DF823000EF0FEF95C
:4006800007F08EFC0EF010FD03466A1C3146284609F044FB01350134F92CDDDD01210846FFF79CFF0DF57A7D70BD00BF2DE9F04F2DED028B97B002AFFFF758FFFFF78EFECF
:4006C000B64CB74D22462968B64807F04FFD2268B54B1A6022462968B44807F047FDD4ED006AB34BC3ED006A002114E08B00AD4A1A4492ED007AAC48D0ED007A77EE677AE4
:40070000C2ED007AA94A1344D3ED007A77EEE67AC3ED007A0131A24B1A689142E6D31D46B3F904108B18013B9B000A3323F00703ADEB030D02AB90000A3020F00700ADEB2B
:40074000000D0DF10808ADEB000D0DF10809994C009205F1080289B2204607F0DBFD2B6842469049204607F0E7FD2B684A468F49204607F0E1FD0026FE64002407F1500361
:4007800043F8084D07F14C022968404607F02AFD7E6407F1500343F8104D07F144022968404607F04BFCFE6307F1500343F8184D07F13C022968484607F014FD7E6307F154
:4007C000500343F8204D07F134022968484607F035FCD7ED138A97ED117A38EEC77AD7ED0F6AD7ED0D7A76EEE77AB6EE008A27EE087A78EEC78A67EE887A36EEE78AB5F850
:40080000D03007EE903AF8EEE77A95ED357A67EE877A17EE900A0EF043F907F039FB0EF06BFC800000F10A0323F00703ADEB030D02ADADEB030D0DF10809ADEB030D0DF173
:40084000080EADEB030D0DF10808ADEB030D02A8ADEB030D0DF1080AADEB030D02AEADEB030D02AB1A46BB6001239446CDE04D4A02EB830191ED007A591E02EB8102D2ED29
:40088000007AB4EEE77AF1EE10FA26DD454A02EB830B9BED007A03F1010B02EB8B02D2ED007AB4EEE77AF1EE10FA16DD3D4A02EB8302D2ED007AF4EEE78AF1EE10FA3DD5B1
:4008C00045F82430374A02EB8302D2F800B009EB8402C2F800B0013430E0324A02EB830B9BED007A02EB8102D2ED007AB4EEE77AF1EE10FA22D52B4A9BED007A03F1010BD5
:4009000002EB8B02D2ED007AB4EEE77AF1EE10FA14D5244A02EB8302D2ED007AF4EEE78AF1EE10FA0ADD4EF824301E4A02EB8302D2F800B008EB8402C2F800B01B4A02EBD0
:40094000830B9BED007A02EB8102D2ED007AB4EEE77AF1EE10FA2FDD144A9BED007A03F1010B02EB8B02D2ED007AB4EEE77AF1EE10FA21DD0D4A02EB8302D2ED007AB4EEA5
:40098000E78AF1EE10FA3FD540F82430074A02EB830211680AEB8402116035E0FC3D0308D04202087C260308043E030834320308083E0308F03D03089A4A02EB830B9BEDC5
:4009C000007A02EB8101D1ED007AB4EEE77AF1EE10FA19D59BED007A591C02EB8102D2ED007AB4EEE77AF1EE10FA0DD5DBED007AB4EEE78AF1EE10FA06DD46F82430DBF888
:400A000000100CEB840211600133874AD2F8D820013A9342FFF42BAF2246844907F120000FF0FEFA824E07F12001304601F032FE8049304601F02EFE661EB300FB600A3325
:400A400023F00703ADEB030D0DF1080BA3000A3323F00703ADEB030D02AA00230FE055F8231007EE901AF8EEE77A6F49D1ED376A87EEA67A02EB830181ED007A01339C42C0
:400A8000EDD8002312E0591C02EB810090ED007A9B00D018D0ED007A77EE677ADFED666A86EEA77A5B4483ED007A0B46B342EAD30025C7F80490A14616E00BEB8503186872
:400AC0000DF0EEFF02460B465C4907F110000FF0A7FA574C07F11001204601F0DBFD5549204601F0D7FD0135A945E6D8D7F80490FB680A3323F00703ADEB030D02AAADEB94
:400B0000030D02A90020D7F808E019E0830009EB030494ED007A08EB0304D4ED007A77EE677AD418C4ED007A0AEB030595ED007A7344D3ED007A77EE677AC4ED007A013093
:400B4000B042E3D3FB680A3323F00703ADEB030D0DF1080CADEB030D0DF1080EADEB030D02AC002035E08300D518D5ED007A344D95ED007AC7EE276ACD18D5ED007A314D01
:400B800095ED006A86EE277AC6EE877A0CEB0305C5ED007A244D95ED387A27EE877AD5ED396A67EEA67A77EE277A95ED3A7A77EE877A0EEB0305C5ED007AF7EE006A86EE2D
:400BC000A77A77EE267A86EEA77A234483ED007A0130B042C7D31C4D2A463146584607F0C5FADFF8708042463146204607F0BEFAD8F800000DF054FF07F0D2F90EF054FA7F
:400C0000124B186028680DF04BFF07F0C9F90EF04BFA0F4B18605437BD46BDEC028BBDE8F08F00BF34320308D04202086818091000006640701809100000704274180910CF
:400C4000043E0308083E0308003E030860630208CC420208EC3D030870B584B00646144C144D0095642300225721204602F05AFB2B4664223146204602F0C2FC009564230B
:400C800001225721204602F0C5FB002104AA02F8011D00956423204602F058FC2A466421204602F021FC9DF80F0004B070BD00BF0000634060BA0308F0B583B007460E46E3
:400CC0000D4C0E4D0095642300225721204602F029FB2B4664223946204602F091FC2B4664223146204602F08BFC2A466421204602F0FAFB03B0F0BD0000634060BA0308FC
:400D00002DE9F04182B080460D4616461A4C1B4F0097642300225721204602F003FB3B4664224146204602F06BFC0097642301225721204602F06EFB002409E00F4B009326
:400D400064232A1900210C4802F000FC0134E4B2731E9C42F2DB084E084F009764232A190121304602F0F2FB3A466421304602F0BBFB02B0BDE8F0810000634060BA030807
:400D800008B506F0A7FF40210220FFF795FF4FF47A7003F053FAC0210220FFF78DFF00210320FFF789FF00210420FFF785FF00210520FFF781FF00210620FFF77DFF0F21B5
:400DC0000820FFF779FF03210920FFF775FF27210A20FFF771FF24210C20FFF76DFF24210D20FFF769FF0020FFF736FF08BD00BF30B583B005460C46062269460720FFF7B3
:400E00007FFF9DF800301B0403F440339DF8012003EB02239DF8022013442B609DF803301B0403F440339DF8042003EB02239DF805201344236003B030BD00BF10B51A4C49
:400E400023889B001949194419481844FFF7D0FF238801339BB22380164A82FB0312121140F2EE2101FB123242B90121A170A38040F2DC52934201D1002222800E4B5A694E
:400E800020225A615B690D4BB3F90030002B09DB5A0903F01F03012101FA03F36032084941F8223010BD00BF646302080C3E03087C550308F119760580043240F418091007
:400EC00000E100E010B5274C2749204603F07CF9B4F90030002B08DB5A0903F01F00012181406032214840F82210002B08DB590903F01F03012202FA03F31C4A42F8213088
:400F0000FFF73EFF1A4B9B78002BFBD0184B9888A0F2EE2317E0174A52F8232007EE902AF8EE677A9A0014491144C1ED007A134951F8231007EE901AF8EE677A10490A4436
:400F4000C2ED007A01338342E5D3FFF7AFFB0A48FFF75AFB0022064B9A70642004F0D2F9D0E700BFF41809103D0E081000E100E0646302087C5503087C2603080C3E03082C
:400F8000343203082DE9F04180460E4617460A4C08256560702000F06FFD404600F06CFDA5606560722000F067FD3946304600F0C7FDA560BDE8F0810006324000B583B01B
:400FC00002AB03F8011D01221946FFF7DBFF03B05DF804FBF8B507460E46094C08256560702000F049FD384600F046FDA5606560732000F041FD304600F06EFDA560F8BDB0
:401000000006324038B50425084B5D60084C402363601023636000F0FFFC0822054B5A6065602023636000F0E1FC38BD00003240800232400006324010B5434C6F22002112
:4010400020460EF073FB631C236704F14E03636704F12203A36700F0C9FC03E000F0D0FC032868D800F0AEFD0028F7D100F0CEFC00217220FFF7AEFF00F00F0002285CD1B1
:401080004021FFF79BFF00210F20FFF7A3FF10F0800F54D002210B20FFF790FF08222B490120FFF76FFFD1210720FFF787FF02210820FFF783FFC2210920FFF77FFF0321B2
:4010C0000420FFF77BFF01210320FFF777FF00210320FFF773FF0A2003F0B0F8002400E01C4601210520FFF769FF642003F0A6F803210520FFF762FF322003F09FF80F216E
:401100000520FFF75BFF322003F098F800210F20FFF760FF10F0400F05D040210220FFF74DFF234603E0631C9BB2042CD8D1032B07D9052010BD012010BD022010BD0320E6
:4011400010BD002010BD00BF6C6302088018091010F1090F0EDB10F1040F0EDB05280FDD0A2810DD0F2811DD142811DD282811DC5A2210E04FF496620DE04FF461720AE015
:401180004FF4167207E04FF4A57204E0DC2202E0B42200E03C22034BA3F87C20A3F87E20704700BF6C6302082DE9F84F06460D46047828B1CA4B984205D10127002403E0F9
:4011C0000127FF2400E0002700F010FC4FF00008D0E1C8EBC80AC8EB0A1ADFF80C930AEB090B6F22002158460EF0A0FA0BF1010EBC4BC3F870E00AF1480048440630586705
:401200000AF1200AD14409F10209C3F878902022002397E10FB934780136032D00F29081DFE815F004006500C600270100EB030C14F0400F01D0C02100E080218CF80010BA
:4012400049B214F0100F02D04FF0300A01E04FF0200A4AEA01018CF8001014F0040F02D04FF00C0A01E04FF0080A4AEA01018CF8001014F0010F02D04FF0030A01E04FF065
:40128000020A4AEA01018CF800100EEB020C14F0800F01D0032100E002218CF8001049B214F0200F02D04FF00C0A01E04FF0080A4AEA01018CF8001014F0080F02D04FF0B5
:4012C000300A01E04FF0200A4AEA01018CF80010013A92B214F0020F02D06FF03F0A01E06FF07F0A4AEA01018CF8001028E100EB030C14F0400F01D0802100E040218CF872
:40130000001049B214F0100F02D04FF0200A01E04FF0100A4AEA01018CF8001014F0040F02D04FF0080A01E04FF0040A4AEA01018CF8001014F0010F02D04FF0020A01E0FC
:401340004FF0010A4AEA01018CF800100EEB020C14F0800F01D0022100E001218CF8001049B214F0200F02D04FF0080A01E04FF0040A4AEA01018CF8001014F0080F02D0FF
:401380004FF0200A01E04FF0100A4AEA01018CF80010013A92B214F0020F02D06FF07F0A01E04FF0400A4AEA01018CF80010C7E000EB030C14F0400F01D0C02100E0402157
:4013C0008CF8001049B214F0100F02D04FF0300A01E04FF0100A4AEA01018CF8001014F0040F02D04FF00C0A01E04FF0040A4AEA01018CF8001014F0010F02D04FF0030A84
:4014000001E04FF0010A4AEA01018CF800100EEB020C14F0800F01D0032100E001218CF8001049B214F0200F02D04FF00C0A01E04FF0040A4AEA01018CF8001014F0080F2A
:4014400002D04FF0300A01E04FF0100A4AEA01018CF80010013A92B214F0020F02D06FF03F0A01E04FF0400A4AEA01018CF8001066E000EB030C14F0400F01D0802100E0F6
:40148000C0218CF8001049B214F0100F02D04FF0200A01E04FF0300A4AEA01018CF8001014F0040F02D04FF0080A01E04FF00C0A4AEA01018CF8001014F0010F02D04FF0DB
:4014C000020A01E04FF0030A4AEA01018CF800100EEB020C14F0800F08D0022107E000BFFFFF0F106C630208EC6C030803218CF8001049B214F0200F02D04FF0080A01E06B
:401500004FF00C0A4AEA01018CF8001014F0080F02D04FF0200A01E04FF0300A4AEA01018CF80010013A92B214F0020F02D06FF07F0A01E06FF03F0A4AEA01018CF8001071
:4015400001339BB2202B7FF665AEC8F1AF031BB299101A4A134003D5013B63F003030133174A02FA83F31B7A09F8013008F101081FFA88F8B8F1AF0F7FF62BAE00240FE0E1
:40158000C4EBC403C4EB03136F220E4919440A20FFF7F8FC07210220FFF710FD0134A4B2AF2CEDD9084BB3F87C4000F029FA8442E4D800F02BFABDE8F88F00BF030000804C
:4015C00080180910EC6C03086C6302082DE9F04706460D4600F00AFAD2210920FFF7EEFC0024C6E0C4EBC407C4EB0717DFF8008207EB08096F22002148460EF097F809F1EE
:40160000010C784BC3F870C007F1480EC6440EF1060EC3F874E02037B84408F10208C3F87880202000218EE0771C32786E1C95F800900EEB010582EA090212F0400F04D01E
:4016400019F0400F03D0802302E0402300E0C0232B705BB212F0100F05D019F0100F05D04FF0200A04E04FF0100A01E04FF0300A4AEA03032B7012F0040F05D019F0040F1E
:4016800005D04FF0080A04E04FF0040A01E04FF00C0A4AEA03032B7012F0010F05D019F0010F05D04FF0020A04E04FF0010A01E04FF0030A4AEA03032B700CEB000512F07A
:4016C000800F04D019F0800F03D0022302E0012300E003232B705BB212F0200F05D019F0200F05D04FF0080A04E04FF0040A01E04FF00C0A4AEA03032B7012F0080F05D0B5
:4017000019F0080F05D04FF0200A04E04FF0100A01E04FF0300A4AEA03032B70013880B212F0020F05D019F0020F04D06FF07F0203E0402201E06FF03F0213432B700131D5
:4017400089B235463E4620297FF66EAFC4F1AF031BB29910244A134003D5013B63F003030133224A02FA83F31B7A08F801300134A4B2AF2C7FF636AF002421E0C4EBC40514
:40178000C4EB05151A4B1D446F2229460A20FFF7F9FB07210220FFF711FCC4F1AF0343F38D032B44002283F822206F2229460A20FFF7E8FB07210220FFF700FC0134A4B2F4
:4017C000AF2CDBD9074BB3F87E4000F019F98442D2D800F01BF9C2210920FFF7EFFBBDE8F08700BF6C6302080300008080180910EC6C0308002307E01349086F5522C25488
:40180000496FCA5401339BB2202BF5D970B5002416E0A6080C4DAA6F04F003030B490B441B7A93556F2229460A20FFF7ABFB07210220FFF7C3FBAB6F00229A550134A4B245
:40184000AF2CE6D970BD00BF6C6302088018091008B5002304E00021094AD1540133DBB2152BF8D900210420FFF7A8FB6F2204490A20FFF787FB07210220FFF79FFB08BD2C
:401880006C63020838B50E4C1023A360142002F0D5FC00F0D9F808220A4B9A604023A3600425A5600A2002F0C9FC65600A2002F0C5FCA5600A2002F0C1FCFFF7BDFB38BD09
:4018C000800232400006324038B5FFF793FFFFF7BFFF1E2002F0B2FC234C40256560322002F0ACFCA56000210F20FFF773FB10F0400F36D000210B20FFF760FB0121032000
:40190000FFF75CFB03210520FFF758FB01210520FFF754FB322002F091FC80210420FFF74DFB00210520FFF749FB01210720FFF745FB1E2002F082FC00F094F81023636049
:401940006560142002F07AFC0822084B5A60042363602025A5601E2002F070FC6560002038BD042038BD00BF800232400006324010B50446FFF746FB2046FFF7E9FB10BD8E
:4019800008B510B1FFF77EFF01E0FFF79DFF08B9012008BD002008BDF8B507460E4614461D4613B10120FFF7EBFF24B931463846FFF70CFE15E0631EDBB2012B11D800215C
:4019C0003846FFF7F1FB012C07D101213846FFF7EBFB02213046FFF7E7FB03213046FFF7E3FB15B10020FFF7CBFFF8BD08B50022024BC3F8082100F069F908BD000038402D
:401A0000014BD3F808017047000038400122014B5A6070470000384010B5074C074A0849204601F0E5FE236843F0004323600822044B9A6010BD00BF000067403CB90308E1
:401A4000FC180910000632400822044B9A60044A136843F000431360704700BF000632400000674008B50249024801F0F5FF08BD3CB903080000674008B50146154800F013
:401A8000ABFD144BD3F8C03F13F0040FF9D0114BD3F8042242F48032C3F80422D3F8042222F48032C3F80422D3F80422D3F8042342F48032C3F80423D3F8042322F480325F
:401AC000C3F80423D3F804230422C3F8C02FD3F8C03F08BD0000674008B50146174800F07BFD164BD3F8C03F13F0040FF9D0134BD3F84003D3F8042242F48032C3F8042211
:401B0000D3F8042222F48032C3F80422D3F80422D3F8042342F48032C3F80423D3F8042322F48032C3F80423D3F804230422C3F8C02FD3F8C03FC0B208BD00BF0000674099
:401B400038B50C46054600B121B940F2E6511B4802F098FB22462946194800F083FD184AD2F80832C3F30803D2F80822C2F3C032D342F4D1124BD3F8042242F48032C3F8CA
:401B80000422D3F8042222F48032C3F80422D3F80422D3F8042342F48032C3F80423D3F8042322F48032C3F80423D3F804230422C3F8C02FD3F8C03F204638BD8C18091078
:401BC00000006740044B1B6913F0080F01D0012070470020704700BF8002324010B582B002AC012344F8043D00231A461449154807F01EFE214609F01CFA09F06BFE60B19F
:401C00004FF48472B021002009F049FF4FF48472B021002009F06FFF0BE0B0224FF48471002009F03CFFB0224FF48471002009F062FF0549002009F049FF02B010BD00BFEE
:401C4000182809104C280910CC430208012901D1002070474FF0FF30704700BF00487047EC63020808B5012002F048FE014B186008BD00BF9C7A020808B500231A46194639
:401C80000248006802F066FD08BD00BF9C7A020808B54FF0FF31024B186802F059FF08BD9C7A020808B503F087FC08BD704700BF08B54FF40041034807F05AF8024807F0CD
:401CC0002FFC08BDA07A02089020091008B5084B1B783BB9074A0021074802F045FB0122034B1A70044B01229A609A6108BD00BFA0FA020830190910000038401F4B9842D5
:401D00002DD00CD840282ED003D8E8B1102828D02FE0802829D0B0F5807F28D029E0184B984228D006D8B0F1204F0DD0154B984212D01EE0144B98420AD00133984209D04F
:401D4000023B984215D101E0002070470F4870470F4870470F4870474FF4A0007047074870470D4870470D4870470D487047034870470C4870474FF4A400704706005200BD
:401D8000010000F0090000A0040000F0010052000200520003005200010050000200500005005200FF00520038B5124B1B6893F83130012B04D840F2C3110F4802F062FAE2
:401DC0000C4B1D682A6AB5F8B03013442C46D5F8B420D358002B0BDB084B1868FFF78EFF6B6801229A6063689B68002BFBD138BD034838BD60B903087C190910A4FA020886
:401E0000020050001A4B186128B102230370FF23437000234380174B1B6893F850202AB300B583B0B3F93830ADF80030002301931149684602F0C8F9BDF90030002B08DB52
:401E4000590903F01F03012202FA03F30B4A42F82130084B1B6893F8513023B102220849012000F0F3FA03B05DF804FB704700BFA4FA020860B903083945020800E100E03B
:401E8000F145020808B50248FFF7BCFF08BD00BFB8FA02082DE9F04104460D46174698469DF81860072903D9D921354802F0EAF937F00F0303D0DA21314802F0E3F9B8F16F
:401EC000010F03D9DB212E4802F0DCF936F01F0303D0DC212A4802F0D5F922680123AB4022EA030308F0010808FA05F843EA08032360244B1B6893F87D100B59A8000F22C6
:401F0000824023EA020207F00F0303FA00F717430F51072D04D94FF422711B4802F0B2F936F01F0304D040F28921174802F0AAF9144B1B689A69A41AE4095B692401191999
:401F4000032D0DD81959ED001F22AA4021EA020206F01F0606FA05F515431D51BDE8F081043D4A68ED001F23AB4022EA030306F01F0606FA05F51D434D60BDE8F08100BFAC
:401F8000BC19091060B90308FC19091038B50B4B1B68D3F8B4301B58002B0DDA0D4604460B0C1B0423B140F2D521054802F06AF9A9B26160002038BD024838BD60B90308E2
:401FC0003C1A091001008A0038B50368002B01DA002300E0094B73B90D460446C2600B0C1B0423B140F2BB21054802F04BF9A9B2A160002038BD014838BD00BF01008A00B3
:402000003C1A091038B504460D4619B99921084802F038F9074B1B68D3F8B4301B59002B03DAE3682B60002038BD034838BD00BF7C1A091060B9030801008A00254B1B686D
:4020400093F8313083423AD900293AD00B6813F01F0F38D170B50D4604461E4B1B6893F83130984204D340F2C3111B4802F00AF9184B1B68186AB3F8B03004FB0304174EB5
:4020800034602A68D208002168680DF04FFB00212046FFF77BFF346825B940F293310E4802F0F0F82A4600212046FFF78DFF60B900210A4B1868FFF769FF40B970BD0848F5
:4020C00070470748704706487047064870BD054870BD00BF60B903083C1A0910BCFA020803018A0001018A0010B504461346B2B9A9B9124B1B6893F83130984204D340F219
:40210000C3110F4802F0BEF80C4B1B681A6AB3F8B03004FB03240B4B1C60002010BD43B149B1084A51609360111D2046FFF786FF10BD054810BD044810BD00BF60B9030828
:402140003C1A0910BCFA020803018A002DE9F0411B4B1B68DC68236883422CD90D464609A0EB4610012303FA00F819B902F0F5F8074600E00027124B18680368002B01DAEA
:40218000002300E00F4B83B9626852F8263018EA030F05D023EA080342F82630002400E0094C0021FFF7F2FE00E0084C25B9384602F0D7F800E0064C2046BDE8F08100BF6D
:4021C000BCFA020801008A00020188000301880004018A000B4B1B68DB681A6882420CD94109A0EB4110012202FA00F05B6853F82130184203D00448704704487047044894
:40220000704700BFBCFA02080101880004018A0000018800024B1B680BB9014B18607047C8FA02082DE9F8430446884691461D46089F2C4B1B681BB9B5212B4802F022F87E
:40224000284B1B682C2000FB04F01C18EEB21E50C5F3072363602D0CA560244B1B6893F831309E4204D340F2C311214802F00AF81E4B1B68196AB3F8B02006FB0216266186
:40228000666893F832309E4204D340F2DF11184801F0F8FF154B1B681D6A803605EB46156561A668330C1B0423B14FF4FF71104801F0E8FF330C1B0423B140F2FF110C4826
:4022C00001F0E0FFB3B243EA0646AE60C4F81C90C4F820800023A36117B1B7F90030A381BDE8F883C8FA0208BC1A091060B903083C1A0910F0B58FB0044618B9522127481C
:4023000001F0C0FFA369072B03D95621234801F0B9FFE36A1BB95821204801F0B3FF236B1BB959211D4801F0ADFF07AD04F114060FCE0FC537682F6002AD26460FCE0FC557
:4023400033682B60164B1B68B3F93620079B1344ADF83030089B0D93A26AE16A0CAD00953B460A98FFF75EFF00210091069B0A460598FFF757FF216B284601F025FFBDF9A4
:402380003030002B08DB590903F01F03012202FA03F3044A42F821300FB0F0BDBC1A091060B9030800E100E0F8B506460F461D4614461AB9FD211F4801F064FF1E4B1B6867
:4023C0001BB9FE211B4801F05DFF1B4B1B682C2101FB063001FB07314B68012202FA03F31B04466802FA06F60269EAB18F69EFB91268002A01DA002200E0104AC2B922886B
:40240000134323600369DC6001238B614D620469330C1B0423B140F2BB21094801F032FFB2B2A2600020F8BD0648F8BD0648F8BD0548F8BDBC1A0910C8FA020801008A00B3
:402440003C1A091004028A0007028A00F8B505460F4616460E4B1B6823B94FF4AF710D4801F010FF0A4B1B682C2404FB0534236A23B94FF4B171074801F004FFE369B342FF
:4024800004D9236A43F826700020F8BD0248F8BDC8FA0208BC1A09100A028A0070B582B000230193044620B940F2D111284801F0E9FE236923B94FF4E971254801F0E2FEEC
:4024C000636923B940F2D311214801F0DBFE236A23B94FF4EA711E4801F0D4FE6369DD682A0C20D012041A601B682069194B1B68D3F8B430C358002B15DA01A9FFF782FDFE
:4025000060B9019803681E0CDBB2E269934206D2226A52F8233013B1984700E0002631462069FFF733FDADB275B16369ADB21D601B68636A1BB198470023636202E0A36AD8
:4025400003B198470023A36163691B6802B070BDBC1A091060B9030810B50446074B1B6823B940F2B111064801F08CFE034B1B682C2000FB0430FFF791FF10BDC8FA020878
:40258000BC1A091010B4D0F8003303F00F03072B06D900230DE0D0F84043CC54013300E000239342F7D306E0D0F8404321F8134001339342F8D35DF8044B704710B514461B
:4025C000D0F80833C3F308039A4200D31C462246FFF7D8FF204610BD036813F4006F01D0802200E04022D0F80832C3F30803934203D0C0F84012012070470020704700BF25
:4026000010B4D0F8003203F00F03072B06D900230DE0CC5CC0F84042013300E000239342F7D306E031F81340C0F8404201339342F8D35DF8044B704710B51446036813F422
:40264000006F01D0802200E04022D0F80832C3F30803D31AA34200D81C462246FFF7D0FF204610BDF8B507460D461446D0F8006206F00F060BE0224629463846FFF7DCFF1A
:40268000072E01D9430000E003461D44241A002CF1D1F8BD30B4036813F4006F01D0802200E04022002408E0D0F80832C3F308039A42F9D0C0F8405201340D5D002DF3D195
:4026C00030BC704702E0C0F84012013A002AFAD1704700BF10B51446036813F4006F01D0802200E04022D0F80832C3F30803D31AA34200D81C462246FFF7E4FF204610BDAD
:4027000010B54A6841F201039A4231D1D0F80833C3F30803B3B10B6A43F040030B620B7873B1D0F8043343F48033C0F80433D0F8043323F48033C0F80433D0F8043301E076
:40274000D0F840330B6A43F020030B620B6A23F010030B62036E23F4204303660023C0F8C83F0123C0F8C03FD0F8C03F202221E0D0F80832C3F30802D0F80832C3F3C03356
:4027800013440A6BD21A4A630A6A12F0080F05D1CA6A1A44CA628A6AD31A8B620B6A43F004030B620B6A23F001030B620023C0F8883F1022D0F84C4F40F201131C420DD0F8
:4027C000036823F00043036000238366C366036843F000430360036842F040024FF080534B604B6C0BB11046984710BDD0F80C3F13F0020F1DD00222C0F8002FD0F8002F15
:40280000D0F8002F12F0040F02D04FF4001001E04FF480108A6802438A604A68B2F5B81F07D00A7B12B14FF4C01201E04FF4B0124A6013F4807F03D08A6842F400028A60B1
:4028400013F0010F03D08A6842F480028A6040F21112134202D04FF4C0134B60704700BF0023C0F8C83FC0F8883F836E23B140F21713C0F8083F704740F21313C0F8083F9C
:40288000182383664FF4B8134B60704738B5D0F80C4F036E23F4807303660023C0F8C83FC0F8883FC0F8083F40F21713C0F8003FD0F8003F8B6823F480338B604B7B13B1A4
:4028C0008B69CB610BE08D69D0F80822C2F30802D0F80832C3F3C0331344EB1ACB6140F201131C421BD0036E9B0F032B05D114F4827F14BF0123002300E001235BB10368A7
:4029000023F00043036000238366C366036843F00043036003684FF080534B601BE00B7893B1D0F8043343F48033C0F80433D0F8043323F48033C0F80433D0F804330123C8
:40294000C0F8C03FD0F8C03F0B7B0BB10B4B01E04FF080534B604A6C72B14B7B13B14FF4802001E04FF400308B6813F0F87301D04FF400231843904738BD00BF000010106B
:402980000346002940DB11F0C00F06D0002181664FF0805050602F4844E011F4807F36D111F0010F0ED050682B49884232D1196E11F0804F0CBF012100214FF0805050606B
:4029C00026482FE011F0020F06D050682249884223D10021224825E011F0100F05D04FF080515160002108461CE050681A49884216D1517B11B14FF4881101E04FF4A011D5
:402A00005160002108460DE0012116480AE00121154807E00121114804E00021134801E00021084679B1196821F00041196000219966D966196841F0004119601B684FF08B
:402A400080535360704740F21712C3F8002FD3F8003F70470820AA00000013100620AA000420AA000320AA000720AA000520AA00036853B110B50446012001F0F7FB236806
:402A8000013B23601BB1002010BD002070474FF0004010BD70B505460C4691F8243013F0FF0F0ED1CB6A63B94B6C0BB108209847E36AB3FA83F35B0984F824300123C5F89C
:402AC000883F94F8243013F0FF0F16D063783BB12B6813F4006F01D0802202E0402200E00122FF212846FFF7F5FD236B18442063236A43F00803236270BDE26A012A11D9ED
:402B000063780BB1013A00E00122A16A2846FFF793FD236B03442363E36A1B1AE362A36A1844A062D5F80832C3F30803802B23D0E36A012B20D101F010FCA36A1B78C5F80A
:402B400040324026C5F8806FD5F8803F01F009FC236B013323630023E362A36A0133A362C5F8886F63783BB1236A43F002032362636C0BB10420984770BD00BF38B54B687A
:402B8000B3F5A81F03D14FF4C0134B6038BD4B68B3F5A01F4DD10C4605464A69012A11D94B780BB1013A00E0012221692846FFF743FDA3690344A36163691B1A63612369EC
:402BC00003442361D5F80832C3F30803802B14D06369012B11D101F0C0FB23691B78C5F840324023C5F8803FD5F8803F01F0B9FBA3690133A361002363616369CBB9237BB6
:402C000033B14023C5F8883F4FF4A813636005E00023C5F8883F4FF4B0136360637843B1A36843F40033A360636C13B14FF48030984738BD70B504460D468A6C82B30368BA
:402C400013F4803F06D0D0F84C3F13F0400F03D0022002E0002000E00020236E13F4006F06D1D4F84C3F13F0800300D001231843C0B190470123C4F8C03FD4F8C03F0246D8
:402C800048B91023C4F8403FD4F8403F40F2D113C4F8483F07E040F2C113C4F8483F02E0002200E00022D4F8043243F48033C4F80432D4F8043223F48033C4F80432D4F863
:402CC00004320AB9012300E00223E366002A59D1666E06F010066B6C23B10EB1012000E0022098477EB141F202036B602B6A43F001032B626B6B2B63002385F824300123C2
:402D0000C4F8883F70BD41F201036B602B6A43F010032B620123C4F8C83F2B78BBB1EB6BBBB1236E43F400532366ED6B802D05D9A5F18003802B0ED8813D0DE0013D236E16
:402D400043F4004323660023C4F8C83F04E0002502E0002500E03F25236813F4006F01D0802300E040239D4204D34FF42071064801F088FAD4F8043323F0FF03EDB21D43FC
:402D8000C4F8045370BD00BFFC1A091038B54B68B3F5881F03D0B3F5901F1AD038BD0B69D0F840231A708B6901338B614B69013B4B612BB10B6901330B610423836638BD1F
:402DC0000B7B13B14FF4C01301E04FF4B0134B6038BD0C4605464A690969FFF7EFFBA3690344A36163691B1A6361226910442061012B24D82B6E23F480732B666369012B7A
:402E000016D12B6813F4006F01D0802300E0402323B94FF42071184801F034FAD5F8043323F0FF03C5F804334FF48813636038BD0023C5F8C83F4FF4B013636038BD402B09
:402E400001D89C1E00E03F242B6813F4006F01D0802300E040239C4204D34FF42071064801F010FAD5F8043323F0FF02E3B21343C5F8043338BD00BFFC1A091038B5CB6BED
:402E8000002B50D00B78002B3FD00C460546D0F80423D2B20132896BFFF790FB236C03442364E36B1B1AE363A26B1044A063802B06D9A3F18002802A0FD8A3F181040DE091
:402EC0002B6E43F400432B66E36B0BB15C1E00E000240023C5F8C83F00E03F242B6813F4006F01D0802300E040239C4204D34FF42071104801F0C6F9D5F8043323F0FF0213
:402F0000E3B21343C5F8043338BD0123C3668A6B0B6CD0F84003D0540B6C01330B64CB6B013BCB6338BD0223C3660023C0F8C83F38BD00BFFC1A0910F8B50B78012B03D0E4
:402F40000C7A1CB9002702E0002700E00127002800F0A780002900F0A680002A00F0A58016460C460546013BDBB2022B03D94F214F4801F087F9637803B163791BB1502116
:402F80004B4801F07FF994F90330002B03DA5121474801F077F9237913F0010F03D05221434801F06FF92369102B03D95321404801F068F9E368102B03D954213C4801F0D5
:402FC00061F9637913B14FF4803100E00021E27912B14FF4807300E000230B4343F400632B60A37913B94FF4006300E000232269013A02F00F021A43E368013B1B01DBB231
:403000001343227843EA82732B6617B140F2073301E040F20713C5F800330FB1254B00E0254B2B6763780BB17F2300E00023C5F80433E3785B00DBB2227943EA0243C5F84D
:4030400010331E4BC5F80032A3780BB1402300E00123C5F804320023C5F8C83EC5F8883EC5F8C83FC5F8883FC5F8083F2378022B02D040F2D11300E00023C5F8483F6378FD
:403080003370A37873704FF0805373600020B060B06130623064F0633063F0627064B064F8BD0748F8BD0648F8BD0548F8BD00BF401B091003002A0013102A00070101008F
:4030C0000120AA0038B505460C4621B940F2C321194801F0D7F82B6E9B0F012B17D1174B2344174A93421ED9A4F5BD13A3F5D66302F5611202F56162934216D9A4F57104ED
:40310000A4F533440F4B9C4211D80F4838BD84B1286EC0F303102B6E03F00F0318440230B4FBF0F038BD094838BD094838BD002038BD002038BD00BF401B091020AD88FF94
:40314000405B730040555C0440420F00801A0600A08601002DE9F84307468846914622B940F21221624801F08DF808F1FF34614B9C4204D940F213215D4801F083F83B6E9E
:403180009B0F012B0DD149463846FFF79BFF0546D7F8003323F40073C7F80033564B3B67A2E0544B9C421FD8544B984509D8A9F5BD13A3F5D663524A934218D90021012379
:4031C00028E0504B984507D84F4B4B444F4A934213D9002101231DE04D4B4B444D4A934212D90021012315E00021012312E0002141F288352E460B460CE000214FF46175C0
:403200004FF4C8660B4605E001214FF4BE754FF41B760023002B66D13F4BB3FBF9F3B6FBF3F404FB03F2964200D90134102C00D910240F2C8CBF00220122B5FBF3F606FBB2
:4032400003F39D4200D90136102E00D91026A519B9FBF5F50FE022B10F2C09D80134002206E00F2E04D801360F2C8CBF00220122A519B9FBF5F5454502D9A3191F2BEAD900
:4032800041B1D7F8003343F40073C7F80033234B3B6707E0D7F8003323F40073C7F80033154B3B67E31F092B04D940F283511C4800F0E8FF3B6E23F0F003013C2401E4B20C
:4032C00023433B66731F0B2B04D94FF4B461144800F0D8FF3B6E23F00F03013E06F00F061E433E6600E000252846BDE8F88300BF401B09103F420F0013102A00A0860100C0
:40330000502D1900801A060020AD88FFA0432100807E25FFC02BAF0000CA9A3B03002A00801B09102DE9F04182B005460C4617469846089E11F0800F04D04FF4D961314872
:4033400000F0A0FF304B984504D940F2C9612D4800F098FF012F04D940F2CA61294800F091FF0023C5F8483F7368B3F1805F41D14FF47A7303FB08F30193244B7360012FD0
:4033800014BF00230123737340F21713C5F8003FD5F8003F0423C5F8C03FD5F8C03FD5F8043243F48033C5F80432D5F8043223F48033C5F80432D5F804326400E4B23C43DE
:4033C000C5F840420223AB66D5F8004F24F0F804E405E40DD5F8403F03F0C0031C4301A8FFF746FB54EA0001EED032462846FFF7C7FA00E0064840F2D113C5F8483F02B03D
:40340000BDE8F081401B091037894100000013100220AA002DE9F04182B005460F4614469846089E11F0800F04D040F229712A4800F028FF294B984504D940F22A712648F9
:4034400000F020FF012C04D940F22B71224800F019FF736813F4801F39D04FF47A7303FB08F301931E4B7360012C14BF0023012373736B6E13F0200F01D0092300E0012337
:40348000AB666B6E13F0200F05D0002009E001A8FFF7EEFA00E0002018B9AB6E13F0010FF5D170B97F00FFB23C43C5F84042D5F8000F40F20714044001A8FFF7D9FA20436F
:4034C000F5D0324601462846FFF75AFA00E0054802B0BDE8F08100BF401B091037894100000013100220AA0070B582B005460C461646134B994204D940F28C71114800F09A
:40350000C1FE736813F4801F17D04FF47A7303FB04F401941823AB66D5F8004F24F0EE04E405E40D01A8FFF7A3FA54EA0001F3D032462846FFF724FA00E0034802B070BD1F
:4035400037894100401B09100220AA002DE9F04383B0074688461C460A9D914622B94FF4FB61244800F08EFE234B9C4204D940F2D971204800F086FEB8F1010F04D940F2E8
:40358000DA711C4800F07EFE6B68B3F5881F2BD14FF47A7303FB04F40194D7F8C06F06F00406D7F8001F40F201140C4001A8FFF75FFA44EA00010EB90029EED046B1D7F8FD
:4035C000403389F800300523C7F8C03FD7F8C03F2A463846FFF7D4F9034630B9B8F1000F03D10422BA6600E0044B184603B0BDE8F08300BF401B0910378941000220AA00E6
:40360000F0B583B005460F4614461E46134B9A4204D940F63201124800F034FE7368B3F5A01F17D14FF47A7303FB04F40194C5F84072D5F8004F24F0F804E405E40D01A855
:40364000FFF716FA54EA0001F3D032462846FFF797F900E0034803B0F0BD00BF37894100401B09100220AA0070B504460E46D0F88C3E13F0010F07D04FF480534B60012327
:40368000C0F8803ED0F8803ED4F84C5F40F201131D420FD0336A15F4807F02D04FF4807200E08022134333620023C4F8C83F45F010050EE015F0100F0BD0D4F80833C3F320
:4036C000080333B1F36B23B10123C4F8C43FC4F8C83FD4F8CC3F13F0010F08D031462046FFF7CCFB0123C4F8C03FD4F8C03F15F0100F0AD031462046FFF702F81023C4F843
:40370000403FD4F8403FD4F84C5F15F0C00F0DD031462046FFF78EFA0123C4F8803ED4F8803EC023C4F8403FD4F8403FD4F88C3F13F0410F08D031462046FFF7ABF901234E
:40374000C4F8803FD4F8803F70BD00BF70B506460D46D0F8004E14F0020F0AD0836E2BB1002383668B6843F080738B604FF4C0136B6014F0010F05D029463046FFF736F8DE
:4037800024F0040414F0080F08D029463046FFF7FDFA0123C6F8C03FD6F8C03F14F0040F08D029463046FFF7E9F90123C6F8803FD6F8803F6B68B3F5C01F03D1294630468D
:4037C000FFF764F86B68B3F5B01F03D129463046FFF746F870BD00BF08B54B6813F4801F02D0FFF7B3FF08BDFFF73EFF08BD00BF002800F02481F8B50546002900F02181D8
:4038000017460C460B78012B03D93F218F4800F039FD6378012B07D9052B05D0022B03D040218A4800F02EFDA378032B03D94121864800F027FD2378012B07D16368023BA7
:403840000E2B03D94321814800F01CFDA36933F00F0303D044217D4800F014FDA368043B0C2B03D94521794800F00CFDE368043B0C2B03D94621754800F004FD6378022B87
:4038800007D0A268E3689A4203D047216F4800F0F9FC636A33F06D0303D049216B4800F0F1FCE36A33F0730303D04A21674800F0E9FC236B33F4206303D04B21634800F042
:4038C000E1FC6378A678052B07D8DFE803F0060305060603022600E00026A368082B04D8E368082B03D9002302E0002300E0012313B14FF4006200E00022237F13B14FF42A
:40390000807300E000231A436368013B03F00F03134343F080732B60226A2B6813F4006F01D0802300E040239A4203D35821474800F0A8FCA26A2B6813F4006F01D08023FE
:4039400000E040239A4203D35921404800F09AFC237D0BB9012100E000216278052A01D1022300E000230B43E17C09B1102100E000210B43617C09B1202100E000210B4334
:403980002178012902D14FF0004100E000210B43B60006F00C063343A169090201F470610B43120602F0407213432B62237C13B14FF4807200E00022A37C13B14FF4007373
:4039C00000E000231A43A368013B03F00F031343C5F8003394F82030C5F80433237C13B14FF4807200E00022E368013B03F00F031343C5F8003294F82830C5F80432636AF6
:403A000003F06D03C5F8C83FE36A03F07303C5F8883F236B03F40073C5F8003F236B03F40063C5F8403F0023C5F8C83E5FB118463B60BB61FB60FB61054B3B62F8BD05485C
:403A400070470448F8BD0020F8BD00BFC01B0910EFCDAB000140AA00036823F00043036019B100220A60CA608A61036A002B04DB0023C0F8C83FC0F8883F70472DE9F84345
:403A800005460C46036813F4006F02D04FF0800801E04FF04008D5F8007207F00F07A26A012A19D9D4F82490E262561EB9F1000F00D026B940F27351254800F0E3FB3246C9
:403AC00049462846FEF7B8FDA36A1B1AA362072F00D9400048446062D5F80832C3F30803984533D0A36A012B30D10023A362072F02D8636A1E7801E0636A1E8800F02DFC51
:403B0000C5F840624FF40073C5F8803FD5F8803F00F027FCD5F8883F23F4007222F0010242F4007623F4EE6323F0030323B140F22A41084800F0A6FBC5F8886F236843F032
:403B400002032360236B0BB101209847BDE8F883001C0910FC1A09102DE9F04105460C46036813F4006F01D0802600E040267608A769D4F81C8017B1B8F1000F04D14FF4DF
:403B80009961314800F07EFB424639462846FEF715FD236A03442362E3691B1AE36173BBA368FBB1E3689E4201D8013E00E05E1E2B6813F4006F01D0802300E040239E426B
:403BC00004D34FF42071214800F05CFBD5F8043323F0FF03F6B21E43C5F804630123C5F8C83F02E00023C5F8C83F636823F001036360236B33B304209847BDE8F081A16937
:403C0000D5F8002302F00F02072A00D940000844A0619E4216D95C1E2B6813F4006F01D0802300E040239C4204D34FF42071074800F028FBD5F8043323F0FF02E3B2134303
:403C4000C5F80433BDE8F081001C0910FC1A0910002800F0A48170B50546002900F0A18116460C460B78022B03D93F21A24800F009FB637B023BDBB2062B03D940219E487A
:403C800000F000FBA37B3BB1022B05D0032B03D04121994800F0F6FA94F82130012B03D94221954800F0EEFA94F82830012B03D94321914800F0E6FA2378012B06D8636883
:403CC000083B082B94BF0023012307E0A37F2BB16368013B062B94BF002301231BB14521854800F0CFFAA368053B042B03D94621814800F0C7FA6369FF2B03D947217E480E
:403D000000F0C0FAA369FF2B03D948217A4800F0B9FAA37C6BB1237833B9A368092B05D1A37B2BB1012304E0012302E0012300E000231BB14A21704800F0A4FA636B23F491
:403D4000366323F00D031BB14C216B4800F09AFAE36B23F4EE6323F003031BB14D21664800F090FA2378022B01D1A37F13B16268013A00E00022237F13B14FF4803100E025
:403D80000021A368082B02D84FF4006300E000230B4302F00F02134343F000732B60226B2B6813F4006F01D0802300E040239A4203D36221504800F065FAA26B2B6813F439
:403DC000006F01D0802300E040239A4203D36321494800F057FA626A2B6813F4006F01D0802300E040239A4203D36421424800F049FA23781B0603F040732B64637F0BB186
:403E0000402200E00022A37C13B14FF4806300E000231343227C12B14FF4807200E000221343627C12B14FF4007200E000221A43E36A013B1B0403F470231343627B013A79
:403E400002F007021343A27B120102F030021343AB64237B13B14FF4807200E00022E37B23B92378022B03D1012302E0012300E0002313B14FF4007300E000231A43A368B7
:403E8000013B03F00F031343C5F80033227DA3691B0403F47F031343C5F81033E26AD5F8003303F00F0303339A4201D3102A03D97A21114800F0E6F9E37F23B12378012BD5
:403EC00003D0002302E0002300E0012313B14FF4807200E00022637B013B03F007031A43A37B1B0103F0300313436B64237B2BB14FF4807203E000BF401C09100022A368DC
:403F0000013B03F00F0313432278012A02D14FF4803200E000221343C5F8003294F83030C5F8043394F8203013B14FF0007200E0002294F82130012B02D14FF0807300E0F5
:403F40000023134394F82820012A02D14FF4803200E00022134394F8242013432B6594F83830C5F80432636B23F4926323F002031B051B0DC5F8C83FE36B23F08C035B05BE
:403F80005B0DC5F8883F76B1002070603060B060F0603062F0623063044B736370BD04487047034870BD002070BD00BFEFCDAB000160AA000B694A69934202D34869181A98
:403FC0007047CA694869101A184470472DE9F04107460D46036813F4006F02D04FF0800801E04FF040084FEA5808D7F80863C6F308062C6926E00134EB689C4200D1002490
:404000006B699C420FD12B6B0BB1082098476B699C4208D10023C7F8C83F0CB1013C13E0EC68013C10E0D7F84023D7F8003303F00F03072B02D8AB681A5502E0AB6823F8DC
:404040001420013E002ED6D12C61EC6829463846FFF7B0FF201A804519D908B1441E00E000243B6813F4006F01D0802300E040239C4204D34FF42071064800F003F9D7F813
:40408000040320F0FF03E0B21843C7F80403BDE8F08100BFFC1A091038B504460D46D0F8003E13F0080F35D0D0F8CC3F13F448730AD04A681A434A60C0F8C03FD0F8C03FDB
:4040C0000B6B0BB110209847D4F8CC3F13F4006F09D06B6843F400636B604FF40063C4F8C03FD4F8C03FD4F8CC3F13F0010F11D0EB6923B129462046FFF72EFD05E0AB6814
:404100001BB129462046FFF761FF0123C4F8C03FD4F8C03FD4F8003E13F0040F2ED0D4F88C3F13F4A0630AD02A681A432A60C4F8803FD4F8803F2B6B0BB120209847D4F889
:404140008C3F13F0010F08D029462046FFF796FC0123C4F8803FD4F8803FD4F88C3F13F4007F0BD00022C4F8882F2B6823F001032B60EA622B6B0BB10220984738BD00BFED
:4041800038B50D4B9A680D4B9A420FD10D46044621B940F237110A4800F074F804F11003064A52F8230042F8235038BD1030054B53F8200038BD00BF00ED00E000400208D8
:4041C000801C09100000081048B338B504460D464368072B03D93221134800F053F8B4F900306268002B08DB5201D2B203F1604303F5614383F8002305E003F00F03520131
:40420000D2B20A49CA540A4B9A680A4B9A4208D12946B4F90000FFF7B3FF002038BD06487047002038BD00BF801C091014ED00E000ED00E0004002080100560010B5044663
:4042400005E0084B186800F07FF8A4F50044B4F5004FF6D8044B186800FB04F000F074F810BD00BFA8420208A442020808B5034B1B7800FB03F000F067F808BDA042020866
:4042800001BEFEE738B50D46044C1822014620460BF0F2FEA5610020FFF7F2FF684A0208FEE700BF08B50268254BDA6142681A6282685A62C2689A620269DA6242691A63F8
:4042C00082695A63C2699A631E4A916AD963D16A1964516A5964516B9964926BDA64F1EE103A13F0900F27D0026A154B1A65426A5A65826A9A65C26ADA65026B1A66426BC3
:404300005A66826B9A66C26BDA66026C1A67426C5A67826C9A67C26CDA67026DC3F88020426DC3F88420826DC3F88820C26DC3F88C20026EC3F89020FFF7B2FF08BD00BFE1
:40434000684A020800ED00E00230800803D001300238FCD100BF00BF7047EFF3108072B6704780F31088704700287DD00346002A7CD070B45068000280B29568AD0405F4BC
:4043800080252843D468240404F4403404431069000600F0E0602043147F0CB1012400E0002420430C1DA4011851D06828B903EB81100024C0F808410CE0012805D114688D
:4043C00003EB8110C0F8084104E003EB81100124C0F80841106938B9546903EB8110C0F80C419469C0F81041146803EB8110C0F81441906CB0F1FF3F17D0946A04F00F0434
:40440000166B360206F470663443956B2D0405F470252543146C2403A4B22C430001C0B2204303EB8114C4F82001506A00F00300D66A360106F030063043556B2D0205F408
:4044400040752843D46BA401E4B20443506C800000F00C00204303EB8113C3F82401126AC3F83821002003E0024870470148704770BC70470100B600014B1860704700BFF6
:4044800060B9030800F1080343604FF0FF328260C360036100230360704700BF00230361704700BF43684B609A688A609A68516099600861036801330360704730B40D68FE
:4044C000B5F1FF3F01D1026907E000F1080200E01A4653681C68A542FAD253684B6099608A605160086103680133036030BC704703694268816891608268416851605A6889
:40450000904201D182685A60002202611A68013A1A601868704700BF436A23B1036B1868C0F1070070470020704700BF10B5044601F098FBA26BE36B9A4201D1012400E06C
:40454000002401F0B1FB204610BD00BF10B5044601F088FBA36B0BB9012400E0002401F0A3FB204610BD00BF70B504461646856B026C3AB9036843BB406801F087F80023C9
:40458000636029E06EB980680BF0AAF8A268236C1344A3606268934219D32368A36000201AE0C0680BF09CF8236C5B42E2681A44E26021688A4202D262681344E360022ED3
:4045C00007D145B1013D002006E0002004E0002002E0002000E000200135A56370BD00BF026C72B110B50346C4681444C4604068844201D31868D8600846D9680BF070F826
:4046000010BD704738B5054601F02CFB95F8454064B20AE06B6A53B105F1240000F036FF08B100F0C1FF013C64B2002CF2DCFF2385F8453001F038FB01F014FB95F844407D
:4046400064B20AE02B6953B105F1100000F01EFF08B100F0A9FF013C64B2002CF2DCFF2385F8443001F020FB38BD00BF38B540B94FF03F0383F31188BFF36F8FBFF34F8F68
:40468000FEE704460D4601F0EDFA2168E26B236C03FB021060600020A063A160013A02FB0313E360FF2384F8443084F845307DB92369ABB104F1100000F0E8FE80B14FF04A
:4046C0008052094B1A60BFF34F8FBFF36F8F07E004F11000FFF7D6FE04F12400FFF7D2FE01F0E2FA012038BD04ED00E010B5029B0C4609B91B6000E01A60D8631C64012169
:404700001846FFF7B3FF10BD40B94FF03F0383F31188BFF36F8FBFF34F8FFEE7F0B583B0034611B101FB00F000E000201D4617460C46483001F0D8FB064638B100903B4695
:4047400000F1480221462846FFF7D0FF304603B0F0BD00BFF0B585B0019240B94FF03F0383F31188BFF36F8FBFF34F8FFEE7044619B9026C1AB9012202E0012200E000222D
:4047800042B94FF03F0383F31188BFF36F8FBFF34F8FFEE7022B03D1E26B012A02D102E0012200E0002242B94FF03F0383F31188BFF36F8FBFF34F8FFEE71D460E4600F09F
:4047C00001FF18B9019B1BB9012302E0012300E0002343B94FF03F0383F31188BFF36F8FBFF34F8FFEE7002701F03CFAA26BE36B9A4201D3022D21D12A4631462046FFF7DD
:40480000B3FE636A6BB104F1240000F03FFE88B14FF08052324B1A60BFF34F8FBFF36F8F08E038B14FF080522D4B1A60BFF34F8FBFF36F8F01F038FA01204EE0019B1BB921
:4048400001F032FA002048E01FB902A800F062FE012701F029FA00F04FFC01F003FA94F844305BB2B3F1FF3F02D1002384F8443094F845305BB2B3F1FF3F02D1002384F865
:40488000453001F011FA01A902A800F04DFEF0B92046FFF74BFEA0B1019904F1100000F0BDFD2046FFF7AEFE00F0B4FC00289BD14FF080520A4B1A60BFF34F8FBFF36F8FB4
:4048C00092E72046FFF79EFE00F0A4FC8CE72046FFF798FE00F09EFC002005B0F0BD00BF04ED00E048B108B5002141600160C1600B460A46FFF72EFF08BD704710B502466F
:4049000000210120FFF700FF0446FFF7EBFF204610BD00BF2DE9F84340B94FF03F0383F31188BFF36F8FBFF34F8FFEE7044619B9006C18B9012002E0012000E0002040B9AF
:404940004FF03F0383F31188BFF36F8FBFF34F8FFEE7022B03D1E06B012802D102E0012000E0002040B94FF03F0383F31188BFF36F8FBFF34F8FFEE71F469046894601F08E
:4049800075FAEFF311864FF03F0383F31188BFF36F8FBFF34F8FA26BE36B9A4201D3022F1ED194F845506DB23A4649462046FFF7DBFDB5F1FF3F0DD1636A9BB104F124009D
:4049C00000F064FD80B1B8F1000F0FD00120C8F800000CE06B1C5BB284F84530012006E0002004E0012002E0012000E0012086F31188BDE8F88300BFF0B585B0019240B9C5
:404A00004FF03F0383F31188BFF36F8FBFF34F8FFEE7044619B9036C1BB9012302E0012300E0002343B94FF03F0383F31188BFF36F8FBFF34F8FFEE70E4600F0C3FD18B9AF
:404A4000019B1BB9012302E0012300E0002343B94FF03F0383F31188BFF36F8FBFF34F8FFEE7002701F0FEF8A56BC5B131462046FFF7B6FD013DA563236963B104F11000E3
:404A800000F004FD38B14FF08052304B1A60BFF34F8FBFF36F8F01F007F9012053E0019B1BB901F001F900204DE01FB902A800F031FD012701F0F8F800F01EFB01F0D2F87C
:404AC00094F844305BB2B3F1FF3F02D1002384F8443094F845305BB2B3F1FF3F02D1002384F8453001F0E0F801A902A800F01CFDF0B92046FFF72AFDA0B1019904F12400B4
:404B000000F08CFC2046FFF77DFD00F083FB0028A8D14FF080520D4B1A60BFF34F8FBFF36F8F9FE72046FFF76DFD00F073FB99E72046FFF767FD00F06DFB2046FFF706FD54
:404B400000288FD0002005B0F0BD00BF04ED00E070B584B0019140B94FF03F0383F31188BFF36F8FBFF34F8FFEE70446036C43B14FF03F0383F31188BFF36F8FBFF34F8F86
:404B8000FEE700F01FFD18B9019B1BB9012302E0012300E0002343B94FF03F0383F31188BFF36F8FBFF34F8FFEE700252E4601F059F8A36BCBB1013BA363236813B900F0F7
:404BC00005FE6060236963B104F1100000F05EFC38B14FF08052414B1A60BFF34F8FBFF36F8F01F061F8012076E0019B6BB945B14FF03F0383F31188BFF36F8FBFF34F8F7C
:404C0000FEE701F051F8002066E01EB902A800F081FC012601F048F800F06EFA01F022F894F844305BB2B3F1FF3F02D1002384F8443094F845305BB2B3F1FF3F02D100238B
:404C400084F8453001F030F801A902A800F06CFC40BB2046FFF77AFCF0B123683BB901F001F8606800F0BEFC054601F01DF8019904F1240000F0D2FB2046FFF7C3FC00F069
:404C8000C9FA002893D14FF08052144B1A60BFF34F8FBFF36F8F8AE72046FFF7B3FC00F0B9FA84E72046FFF7ADFC00F0B3FA2046FFF74CFC00283FF47AAF65B100F0D2FF50
:404CC0002046FFF729FC0146606800F029FD00F0EBFF002000E0002004B070BD04ED00E000230BE0074A52F8332032B9054A42F8331002EBC303586070470133092BF1D95B
:404D0000704700BF64B9030870B504460D46164600F0A8FF94F844305BB2B3F1FF3F02D1002384F8443094F845305BB2B3F1FF3F02D1002384F8453000F0B6FFA36B2BB9DD
:404D40003246294604F1240000F082FB2046FFF759FC70BD094B9B6A1B680BB9012300E0002323B14FF0FF32044BDA627047034B9A6AD268D2685268DA62704708FB02081B
:404D800010B50446006B01F0DFF8204601F0DCF810BD00BF2DE9F04780460D4616469946DDF820A0099F0A9C9200A521206B0AF0BDFC236B06F18042013A03EB820626F0D2
:404DC0000706002306E0E95CE21882F83410EA5C12B101330F2BF6D9002384F84330BAF1060F01D94FF0060AC4F82CA0C4F844A00025A564201DFFF751FB04F11800FFF787
:404E00004DFB2461CAF10703A36164622B4606E003F1120204EB8202002151600133042BF6D90023236684F864304A464146304600F0EEFE206007B13C60BDE8F08700BF6C
:404E400070B5002407E004EB8402930010481844FFF718FB0134062CF5D90E4C04F1BC063046FFF70FFB04F1D0052846FFF70AFB04F11400FFF706FB04F1E400FFF702FB82
:404E80002046FFF7FFFAA662C4F8F85070BD00BF38FB020808FB020838B5044600F0E2FE264BD3F8FC200132C3F8FC20D3F800314BB9224BC3F80041D3F8FC30012B10D185
:404EC000FFF7BEFF0DE01D4BD3F804314BB91B4BD3F80031DA6AE36A9A4202D8174BC3F80041164AD2F808310133C2F80831E36AD2F80C21934202D9104AC2F80C310F4D74
:404F000005F1300003EB83039A00211D1044FFF7C9FA00F0C9FED5F804316BB1D5F80031DA6AE36A9A4207D24FF08052044B1A60BFF34F8FBFF36F8F38BD00BF08FB0208FE
:404F400004ED00E038B517E000F08CFE0D4CD4F8F030DD68281DFFF7CBFAD4F8FC30013BC4F8FC30D4F81031013BC4F8103100F09BFE2846FFF704FF024BD3F81031002BA2
:404F8000E2D138BD08FB020808B5FFF7DBFF064B1B6B012BF9D94FF08052044B1A60BFF34F8FBFF36F8FF0E708FB020804ED00E070B504460E46174BD3F81451D3F80001EA
:404FC0000430FFF795FAB4F1FF3F07D136B11148D0F800110431FFF765FA70BD2C440D4BD3F800315C60A54208D90A4BD3F8F800D3F800110431FFF761FA70BD054DA86A1A
:40500000D5F800110431FFF759FAEB6A9C4200D2EC6270BD08FB02082DE9F04385B006460F4615469846900000F05EFF60B18146682000F059FF044610B1C0F8309004E043
:40504000484600F081FF00E000248CB10023039302940D9B01930C9B009343462A4639463046FFF797FE2046FFF716FF012001E04FF0FF3005B0BDE8F08300BF00B583B05E
:40508000194B019300230093802218491848FFF7C3FF012801D100F0FFFB012814D14FF03F0383F31188BFF36F8FBFF34F8F114B4FF0FF32DA620122C3F804210022C3F87C
:4050C000142100F071FE0BE0B0F1FF3F08D14FF03F0383F31188BFF36F8FBFF34F8FFEE703B05DF804FB00BF24FC0208341E0910894F081008FB0208034AD2F818310133D8
:40510000C2F81831704700BF08FB0208014BD3F81401704708FB02082DE9F0413C4BD3F81831002B65D13A4BD3F814410134C3F81441CCB99B6A1B6843B14FF03F0383F3D4
:405140001188BFF36F8FBFF34F8FFEE7304B9A6AD3F8F8109962C3F8F820D3F820210132C3F82021FFF7F6FD294BDB6A9C4203D2002645E0012600E00026254B9B6A1B6851
:405180000BB9012300E0002323B14FF0FF32204BDA6235E01E4B9B6ADB68DD686B689C4202D21B4AD3622BE005F104084046FFF79FF9AB6A1BB105F11800FFF799F9EB6A02
:4051C000134AD2F80C21934202D9114AC2F80C310F4F07F1300003EB83039A0041461044FFF760F9EA6AD7F80031DB6A9A42C1D2C3E7074AD2F824310133C2F82431002610
:40520000034BD3F8283103B101263046BDE8F08108FB0208394BD3F8183143B94FF03F0383F31188BFF36F8FBFF34F8FFEE770B500F018FD314BD3F81821013AC3F8182166
:40524000D3F81831002B52D12C4BD3F8FC303BBB00244FE0294D2B6ADC6804F11800FFF747F9261D3046FFF743F9E36AD5F80C21934201D9C5F80C31204D05F1300003EB27
:4052800083039A0031461044FFF70CF9E26AD5F80031DB6A9A4204D30122C5F8282100E00024164B5B69002BD4D10CB1FFF752FD124BD3F8244164B1FFF72EFF18B10122F1
:4052C0000E4BC3F82821013CF6D100220B4BC3F824210A4BD3F828315BB14FF08052084B1A60BFF34F8FBFF36F8F012402E0002400E0002400F0D8FC204670BD08FB02089F
:4053000004ED00E010B5B0B10446104BD3F8183143B14FF03F0383F31188BFF36F8FBFF34F8FFEE7FFF7E8FE00212046FFF740FEFFF770FF00E0002038B94FF08052044BC7
:405340001A60BFF34F8FBFF36F8F10BD08FB020804ED00E0304BD3F8183123B101222E4BC3F82821704710B52B4B0022C3F82821D3F800311B6B1A68B2F1A53F0BD15A6884
:40538000B2F1A53F07D19A68B2F1A53F03D1DB68B3F1A53F07D0204BD3F80001D3F80011343100F08FFD1C4BD3F80C310AE043B94FF03F0383F31188BFF36F8FBFF34F8F76
:4053C000FEE7013B03EB83018A0013490A44126B002AECD008469900CC18A2000244546B64685463303019448A0008320244944206D1606803EB83018A0007490A44506305
:40540000054903EB830082000A44526BD268C1F80021C1F80C3110BD08FB020840B94FF03F0383F31188BFF36F8FBFF34F8FFEE710B50C46054BD3F800111831FFF73EF8D6
:4054400001212046FFF7B4FD10BD00BF08FB020838B540B94FF03F0383F31188BFF36F8FBFF34F8FFEE70C461546074AD2F800111831FFF717F80DB14FF0FF34294620469D
:40548000FFF796FD38BD00BF08FB020838B5C368DC6844B94FF03F0383F31188BFF36F8FBFF34F8FFEE704F118052846FFF720F8154BD3F81831ABB9251D2846FFF718F878
:4054C000E36A114AD2F80C21934202D90E4AC2F80C3103EB83039A0029460C481044FEF7E1FF03E029460A48FEF7DCFFE26A064BD3F80031DB6A9A4204D90120024BC3F8E0
:40550000280138BD002038BD08FB020838FB02081CFB0208034BD3F820210260D3F814314360704708FB0208F8B540B94FF03F0383F31188BFF36F8FBFF34F8FFEE70546F4
:4055400041B94FF03F0383F31188BFF36F8FBFF34F8FFEE70C4600F085FB124BD3F814016968421A2368B3F1FF3F14D02F680D4ED6F82061B74201D088420ED29A4206D296
:405580009B1A23602846FFF7C5FF002406E000232360012402E0002400E0012400F084FB2046F8BD08FB02080122024BC3F82821704700BF08FB0208014BD3F8000170474E
:4055C00008FB0208064BD3F804312BB1044BD3F818311BB902207047012070470020704708FB0208002849D038B50346C26A2549D1F80011C96A8A4237D28169002906DBBE
:405600002049D1F80011C96AC1F107018161586902EB820291001C4A1144884201D1012200E00022D2B11D461C1D2046FEF760FF144AD2F80031DB6AEB62D2F80C21934289
:4056400002D9104AC2F80C3103EB83039A0021460D481044FEF726FF012038BD094AD2F80021D26ADA62012038BD426C054BD3F80031DB6A9A4203D3002038BD0020704707
:40568000012038BD08FB020838FB020800283DD038B50346204AD2F80021904208D04FF03F0383F31188BFF36F8FBFF34F8FFEE7826C42B94FF03F0383F31188BFF36F8F42
:4056C000BFF34F8FFEE7013A8264C06A596C88421ED0FAB91C461D1D2846FEF709FF636CE362C3F10702A2610B4AD2F80C21934202D9094AC2F80C3103EB83039A0029461C
:4057000006481044FEF7CEFE012038BD00207047002038BD002038BD08FB020838FB020800284DD038B50346806C40B94FF03F0383F31188BFF36F8FBFF34F8FFEE75A6CCA
:405740008A4200D20A46D96A8A4238D0012836D11C48D0F80001834208D14FF03F0383F31188BFF36F8FBFF34F8FFEE7DA629869002802DBC2F107029A61586901EB81014C
:405780008A0011490A44904201D1012200E00022AAB11C461D1D2846FEF7AAFEE36A094AD2F80C21934202D9064AC2F80C3103EB83039A00294604481044FEF773FE38BDE6
:4057C000704700BF08FB020838FB0208064BD3F800312BB1044BD3F80021936C01339364014BD3F80001704708FB0208064B1A681368B3FA83F35B09036013B9D3681868C0
:4058000070470020704700BF34FC020808B54160006191420AD8D21A83699A4211D2011D0A4B5868FEF74AFE002008BD9A4201D2994208D2011D054B1868FEF73FFE0020DD
:4058400008BD012008BD012008BD00BF34FC020870B500F007FA0E4B9B68B3B90C4C04F10C063046FEF70EFE04F120052846FEF709FE2660656000220C210A20FEF744FF6A
:40588000A06010B10349FFF72BFA00F00DFA70BD34FC02083C1E091000B583B0FFF7D8FF0D4B9B6853B10D4B019303230093002380220B490B48FFF7AFFB00E0002040B931
:4058C0004FF03F0383F31188BFF36F8FBFF34F8FFEE703B05DF804FB34FC020868FC0208441E09107D5B081040B94FF03F0383F31188BFF36F8FBFF34F8FFEE730B585B011
:4059000015460446124A9068F0B11A46019102950394052913DCFFF755FE022807D10023089A01A90A488068FEF714FF0DE000231A4601A906488068FEF70CFF05E000233C
:4059400001A9FEF7E7FF00E0002005B030BD00BF34FC020870B582B029E0DB681E68DC68251D2846FEF7C4FD636A20469847E369012B1CD1A36933449E4207D26360246139
:405980002946104B1868FEF799FD10E0002100910B4632462046FFF7A7FF40B94FF03F0383F31188BFF36F8FBFF34F8FFEE7054B1B681A68002AD0D1024A516811605360AE
:4059C00002B070BD34FC020838B50546FFF79EFB0446074B9B6B984204D2FFF7BBFF01232B6001E000232B60014B9C63204638BD34FC020870B582B005460E46134B1B68D0
:405A0000DB68DC68201DFEF773FDE369012B18D1A1692B46324629442046FFF7F7FE80B1002100910B462A462046FFF75DFF40B94FF03F0383F31188BFF36F8FBFF34F8F06
:405A4000FEE7636A2046984702B070BD34FC020870B582B006460C46FFF74EFB01A8FFF7B3FF019B1BBB054644B9B04206D3FFF7D1FB29463046FFF7BDFF1AE02CB10E4B83
:405A80005B681C68B4FA84F464092246711B0A4B9868FFF739F9FFF7BDFB50B94FF08052064B1A60BFF34F8FBFF36F8F01E0FFF7B1FB02B070BD00BF34FC020804ED00E09C
:405AC00030B587B04DE0039B002B4ADB059C636913B1201DFEF70CFD02A8FFF775FF039B092B3ED8DFE803F00505053D273A05053D270499A5690B46024629442046FFF725
:405B000085FE70B3636A20469847E369012B28D1A269002100910B46049802442046FFF7E3FEF0B94FF03F0383F31188BFF36F8FBFF34F8FFEE70499A16141B94FF03F0397
:405B400083F31188BFF36F8FBFF34F8FFEE70346024601442046FFF759FE02E0204600F0F3F9002203A9044B9868FEF745FF0028A9D107B030BD00BF34FC020800B583B0C7
:405B800001A8FFF733FE0199FFF762FFFFF798FFF6E700BF82B0002301930D4B1B68B3F1FF3F08D04FF03F0383F31188BFF36F8FBFF34F8FFEE74FF03F0383F31188BFF386
:405BC0006F8FBFF34F8F019B002BFCD002B07047EC43020808480068006880F308884FF0000080F3148862B661B6BFF34F8FBFF36F8F00DF00BF000008ED00E0DFF80C00AC
:405C0000016841F4700101607047000088ED00E04FF0807340F8043C21F0010140F8081C054B40F80C3C40F8202C6FF0020340F8243C4438704700BF955B08100000000085
:405C4000074B19680868B0E8F04F80F30988BFF36F8F4FF0000080F311887047AFF3008008FC02084FF03F0383F31188BFF36F8FBFF34F8F0A4A136801331360012B0DD1D4
:405C8000084B1B6813F0FF0F08D04FF03F0383F31188BFF36F8FBFF34F8FFEE7704700BFEC43020804ED00E0094B1B6843B94FF03F0383F31188BFF36F8FBFF34F8FFEE768
:405CC000013B034A13600BB983F31188704700BFEC430208000000000000000000000000EFF30980BFF36F8F154B1A681EF0100F08BF20ED108A20E9F04F10602DE90900B7
:405D00004FF03F0080F31188BFF34F8FBFF36F8FFFF720FB4FF0000080F3118809BC19680868B0E8F04F1EF0100F08BFB0EC108A80F30988BFF36F8F704700BFAFF300803A
:405D400008FC020808B54FF03F0383F31188BFF36F8FBFF34F8FFFF7DFF918B14FF08052024B1A60002383F3118808BD04ED00E0084A0023136008490B60084B1B68084986
:405D8000A1FB03139B09013B06490B6007231360704700BF10E000E018E000E098420208D34D621014E000E010B582B02A4B1A78D2B20192FF221A701B78DBB28DF80330FA
:405DC0009DF80330254A03F03F0313700723536009E0224A5368013B53609DF803305B00DBB28DF803309DF8033013F0800FF0D11A4B5B68042B08D04FF03F0383F3118896
:405E0000BFF36F8FBFF34F8FFEE71B0203F4E063124A5360019BDBB20F4A1370104B1A6842F47F021A601A6842F07F421A60FFF79FFF00240B4B1C60FFF7E0FE0A4A1368A8
:405E400043F040431360FFF7C5FEFFF783FAFFF7A1FE204602B010BD00E400E070FC020820ED00E0EC43020834EF00E0EFF305830F2B0FD9104A9B5CDBB2104A12789342CD
:405E800008D24FF03F0383F31188BFF36F8FBFF34F8FFEE70A4B1B6803F4E063074A5268934208D94FF03F0383F31188BFF36F8FBFF34F8FFEE77047F0E300E070FC0208EB
:405EC0000CED00E008B54FF03F0383F31188BFF36F8FBFF34F8F4FF441710248FEF7D2F9FEE700BF4C1E091038B5044610F0070F02D020F007040834FFF7FEF8104B1B68D6
:405F00002BB90F4A02F10C0323F0070313600D4BD3F814361C4442F2F772944208D8A34208D2074A15681D44064BC3F8144602E0002500E00025FFF76DF9284638BD00BF94
:405F400078FC0208681E030840B14FF03F0383F31188BFF36F8FBFF34F8FFEE7704700BF08B5074B1B7833B900F068F800F0A4F80122034B1A7000F01FF800F093FC08BD46
:405F80008024030810B5FFF7EBFF044610B900F091FB044614B900F00DFB044614B900F01DFA044600F0AAF90028FBD100F00EF900F0D0F8204610BD70B500230AE01D4A85
:405FC000191D02EB8100002444604FF0FF3042F821000133002BF2D0174C032325E06668A27E144B2B4400211976012A03D0D2B1032A07D917E02069A8B1228BF17909F0DA
:4060000095FB10E023690BB1F2791A706168002307E003F1080201EB42024FF6FF7050800133002BF5D02C342B465D1E002BD6D170BD00BFB4B90308A41E091070B51C4C10
:40604000A4220021204609F071FB45F6E46323804FF41063638043F2D403A3800823A383A3770223E377134E203406F18C050FCD0FC40FCD0FC40FCD0FC495E8030084E861
:406080000300304606F1080403230CE0A268238B04E010F8013B53720A320B46591E002BF7D12C342B465D1E002BEFD170BD00BFB4B903089C1E09100023024AD380024A3A
:4060C00013607047B4B90308CC240308C9B2062902D083180021197130F8121000EB42035980024400231372704700BF70B506460D46012305E0224629463046FFF7E6FF95
:4061000023465C1E002BF6D170BD00BF08B52C23054A03FB0023986801EB81014A00997E1044FFF7E3FF08BDA41E091038B505462C23074A03FB00231B8B04E0214628462F
:40614000FFF7E4FF23465C1E002BF7D138BD00BFA41E091010B5032303E02046FFF7E6FF23465C1E002BF8D110BD00BFF8B505462C230F4A03FB00235E681B8B14E02C23FF
:406180000B4A03FB05239F6804EB8402500004EB44018A00596A0A44DB7E012B03D1318A385A01F067FE23465C1E002BE7D1F8BDA41E091010B5032303E02046FFF7D6FF78
:4061C00023465C1E002BF8D110BD00BF08B5FFF7F1FF08BD30B49F280ED940F2FE3399420AD9244CA1FB04454B1B05EB53035B0AC3EB832399422FD09F280DD9B1F5FF7FBC
:406200000AD91D4CA1FB04454B1B05EB53031B0AC3EB4323994221D09F280CD97E290AD9164CA1FB04454B1B05EB53039B09C3EBC313994214D09F2814D93E2914D9104C08
:40624000A1FB04454B1B05EB53035B09C3EB831399420BD000200AE0042008E0032006E0022004E0002002E0002000E0012030BC704700BF05104000214080001108040230
:40628000054110044A1E032A01D8102300E0002379B183B1642202FB03F3B3FBF0F3002001E001305B00092BFBD90A2B04D9013802E0002000E00020C0B2704708B501F0BF
:4062C0009DFC08BD08B50A4B1A689169094B5B1ADB09526902EB03135A6822F0F8525A60054A136823F00103136000F02FFF08BD60B9030880033240A8023640024BD86872
:4063000000F08000704700BFB4B90308034B0340034AD0681843D060704700BF80000100B4B90308034B0340034AD06820EA0300D060704780000100B4B9030810B5164BC6
:40634000DB6813F4803F0ED102280ED843090433114A52F8233000F01F02D34013F0010F05D1012404E0112402E0012400E0002484B92C23094A03FB0023DB7E022B02D1FB
:4063800001F04EFC06E0012B02D100F0F1FE01E04FF0FF34204610BDB4B90308A41E091008B50C4BDB6813F4803F0DD10A4B1B78012B05D0022B09D101F000FB002008BD49
:4063C00000F026FE002008BD112008BD4FF0FF3008BD00BFB4B90308D0240308124BDB6813F0800F1AD110B500244FF0FF3312E02046FFF7A3FF034660B9012C03D8012251
:406400000A4B5A7002E00022084B5A70FFF7C8FF034606E00134022CEAD902E0112318467047184610BD00BFB4B90308D0240308124B1B78834220D010B50446012B02D1CB
:40644000FFF740FF03E0022B01D1FFF737FF012C05D100F053FC0122084B1A7010BD022C05D101F0F7F80222044B1A7010BD032C02D00022014B1A7010BD7047D0240308A0
:4064800030B583B00025074C08E02179002300930E222068FBF7FEFC08340135082DF4D903B030BD601F091038B51B4A93780133DBB293709078FFF741FF044650B9164BB1
:4064C0009B78DBB2022B02D10022134B5A70FFF767FF1EE0104B9B78DBB2022B10D10F4D2B8901332B818020FFF71CFFEB6823F07F43EB60EB6843EA0464EC60002408E0FB
:40650000064BDA6822F07F42DA60DA6842EA0062DA60002CC9D138BDD0240308B4B9030810B50146124BB3F90030002B0DDB5A0903F01F03012404FA03F320320D4840F8B7
:406540002230BFF34F8FBFF36F8F094C2046FDF73BFEB4F90030002B08DB590903F01F03012202FA03F3034A42F8213010BD00BFCC18091000E100E070B5022801D80025BB
:4065800000E001258DB904462C23094A03FB0023DE7E022E02D1282101F00CF9012E04D15521204600F0B6FE0546284670BD00BFA41E091038B50024254604E02046FFF724
:4065C000DBFF05430134022CF8D9284638BD00BF70B5002519E02C230D4A03FB0523DB7E012B11D12C2303FB05F3D658002404E006EBC40000F054FD01342C23044A03FB6C
:4066000005231B7E9C42F3D30135022DE3D970BDA41E09102C23034A03FB002043685889704700BFA41E09102C23034A03FB002043685981704700BFA41E0910C0EB0032C8
:40664000012303FA01F101398A4205D9C0EB0020814203D30520704706207047002070472DE9F04180460E46FFF7D4FF07460022318800F00DFC01463846FFF7ABFD054636
:4066800020B931887800FFF7D9FF054629463846FFF7F8FD04466B1FDBB2012B03D839464046FFF7C1FF2001C0B228433073BDE8F08100BFF0B58BB04FF47A73ADF8003061
:4066C00040F65503ADF802304FF41663ADF80430534B9A7F534BB3FBF2F3ADF80C3000F00DFB00252E4652E02C234F4A03FB0523DB7E012B44D12C2303FB05235C680C2304
:40670000238000232373BDF80C30484AA2FB03235B09274627F80A3F5521284600F0FAFD0497434B1B788DF81830424B1A884FF47A7303FB02F2404BA3FB0213D21A03EBC1
:406740005203C3F3CF23ADF80E30684601F03AFB3A4B984203D9062601E05B006381BDF80C10638941F2707202FB03F29142F4D8032BF2D90AAB03EB850343F80C0C05E01F
:4067800001220AAB03EB850343F80C2C0135022DAAD9002427E02C23234A03FB0423DB7E012B1FD12C2303FB04235D685521204600F0B0FD064305F10A0304930AAB03EB77
:4067C000840353F80C3C0293194B1B788DF81830EB89ADF8063005F110030593684601F017FB28800134022CD5D9002413E02C230D4A03FB0423DB7E012B0BD12C2303FB3C
:40680000042359682046FFF72BFF5521204600F081FD06430134022CE9D930460BB0F0BDB4B90308A0860100A41E0910F1197605F4430208F643020801011000870D01002A
:40684000F8B5002427E02C23144A03FB04235D68DB7E012B02D0022B05D016E029462046FFF7FEFE16E02E88204601F01FFA07463146FFF7AFFC064601463846FFF702FD0C
:406880000001C0B23043287304E040F259710448FDF7F8FC0134022CD5D9F8BDA41E0910EC1F091008B5FFF7CBFFFFF7E9FD0020FFF7BEFD002008BD38B52D4D2A6893697A
:4068C0002C4CE31ADB09526902EB03135A6822F0F8525A60802363602B6893F87D20135923F0704343F0C04313512A689369E31ADB0951691B01CA5822F4F852CA500223B6
:4069000063602B6893F87D20135923F0F00343F0600313512A689369E31ADB0951691B01CA5822F4F812CA50042363602B6893F87D20135923F4706343F4C06313510120F2
:40694000FDF794FC2B6893F87D20135923F0704313512B6893F87D20135923F0F00313512B6893F87D20135923F47063135138BD60B90308800332400F4B19782C220F4B9B
:4069800001FB02335B680E4AD2F8D02091B2188801238340013B994206D20A4B1B680A49097823F811207047064A12680649097822F81130704700BFD2240308A41E091022
:4069C0000000364058BA0308A81F091038B5214C227821492C2302FB03125068227802FB03131A7E013A1D4B1B78DBB29A421BD91A4C23780133DBB22370164D29782C222E
:406A0000154B01FB02339968237803EB83035A000A44134B1A6000F013FA2878217800F02DFB00F077FA38BD00220C4B1A704FF48030FFF777FC0B4B1B78012B02D1FFF754
:406A400033FD38BD8020FFF76DFC074A13890133138138BDD2240308A41E0910D824030858BA0308D1240308B4B9030808B5074B4FF483721A601B68FFF77EFF044A13892F
:406A8000013313810348FFF74DFC08BDF0003640B4B903088000010010B50C4B1B782C2203FB02F30A4AD3580A4A147803EBC404094B4FF483721A601B68FFF75DFF20461A
:406AC00000F0EEFAFFF782FF10BD00BFD2240308A41E0910D8240308F000364001390843014B1860704700BF000236400E4B1B6823F4F8730D4A917F0D4AB2FBF1F20D4939
:406B00008A4204D843F02003074A136070470A498A4204D843F03003034A1360704743F04003014A13607047F0430208B4B9030800E1F505001BB70000366E01044A054B74
:406B40001A604FF0C17203F580731A60704700BF0000830100043640084A136803F07F0343F0C17343F48033136002F58072136803F07F0343F40003136070470004364093
:406B8000074A136843F0805343F001031360054A054B1A604FF0C17203F580731A607047A8023640000083010004364010B40488012000FA04F4013C04EB840303FA00F091
:406BC0000C4BA3FB00035B0901335818844200D220468B4201D8C91A00E00021914203D8904203D2062002E0062000E000205DF8044B70471F85EB510023164A136002F562
:406C0000927213600432136006212C3A11604FF48071083A11600121903A1160A2F580724FF48371116012680B4A136003220B4B1A604FF4FA6300E0013B094A126812F0FF
:406C4000040F01D1002BF7D113B90822034B1A60704700BF8C013640F800364040033640F00036401E4B4FF483721A601B681D4BB3F90030002B08DB590903F01F030122EE
:406C800002FA03F3184A42F821300023174A136030321360043213602C3A13605021983A11600121643A11600C3A13608032136843F08073136002220D4B1A604FF4FA63AD
:406CC00000E0013B0B4AD2F8842012F0070F01D0002BF6D140F20132074B1A60704700BFF0003640CC18091000E100E080023640F8003640000036404003364070B5FFF75F
:406D000067FCFFF7D9FD4FF48032404B1A604048036843F0805343F00103036000233D4A136002F5E07213600C32136060321360A2F5CE72136002F582721360083A1360AB
:406D4000354C2360A2F5807213604FF0487102F5A8721160314D2A6892F87D60304AB15821F07041B15029688D69521BD209496901EB0212516821F0F85141F08061516085
:406D800028490A6842F480520A604FF48071264A1160026842F0805242F0010202604FF0807222490A6040F64130A1F58E71086001F584710B602260FFF7C0FE1C4B9B7FAD
:406DC000013BFF2B0BD8154A12689068B2F87410425822F47F421B029BB213434350FFF785FE144B1B6843F0004343F48053124A13600F22114B1A600022A3F588731A60A7
:406E00000A2203F590731A6070BD00BF04023640A8023640F40036408402364060B903088003324094023640A0023640A4023640B4B90308F04302080000364000033640C6
:406E400038B50546FDF789FA0D490B6823F07F020C4B1C7825446B7A13430B60FDF781FAFDF77BFA08490B6823F07F02074B1B681C44637A13430B60FDF773FA38BD00BFF4
:406E800000043640A81F09100005364058BA030830B401248C40631E40B10F2904D9A4F10A03B3FBF0F301E0B3FBF0F3053A012A00D85B080BB9012000E0184630BC704774
:406EC00008B50C4B19782C220B4B01FB02335B6859891B7B18045A1F012A01D840F00070053B012B02D8490800D10121FFF7F6FD08BD00BFD2240308A41E091008B5027B97
:406F000001884089FFF7C4FF80B2014B186008BD1403364008B50D4BB3F90030002B0DDB5A0903F01F03012101FA03F32032084941F82230BFF34F8FBFF36F8F0122054B8E
:406F40001A60FFF759FEFFF78DFE08BDCC18091000E100E08001364008B50448FFF7D6F91720FDF783F9FFF7D5FF08BD80000100F8B50546FDF7F1F906462F682C79072C39
:406F800004D94FF471712048FDF77CF9A4001F4B1B6893F87D00C2590F23A34022EA0301062202FA04F30B43C3512C682D79072D04D94FF422711448FDF764F9134B1A68FA
:406FC0009369E31ADB0952691B01D118032D0BD8D158ED001F20A84021EA00000B2101FA05F50543D5500BE0043D4B68ED001F22AA4023EA02020B2303FA05F515434D60D9
:407000003046FDF7AEF9F8BDAC1F091060B90308F8B5144F3B78144D2C2603FB06535868124C002323703B7803FB06539968237803EB83035A000A440D4B1A60FFF700FF58
:407040003B7803FB06F3EB58207803EBC000094B1860FFF78DFF0848FFF762FAFFF77CFFF8BD00BFD2240308A41E0910D824030858BA03085CBA0308996A081008B52C23C0
:4070800003FB00F0044B185800EBC100034B1860FFF76EFF08BD00BFA41E09105CBA0308F8B50646FDF759F9074634683579072D04D94FF422712348FDF7E4F8224B1A68E7
:4070C0009369E31ADB0952691B01D118032D08D8D158ED001F2000FA05F521EA0505D55008E0043D4B68ED001F2202FA05F523EA05054D6035683479072C04D94FF471711D
:407100001048FDF7BFF8A4000F4B1B6893F87D0042590F23A34022EA03010E2202FA04F30B43435135683479072C04D940F281310448FDF7A7F80123A3406B603846FDF79D
:4071400010F9F8BDAC1F091060B9030808B5064B1B78012B06D1054B1868FFF7A1FF0022014B1A7008BD00BFD92403085CBA0308F8B5114E2C2707FB00635D68C0B20F4C44
:4071800020700120FFF754F9FFF7E0FF237803FB07F3F2580A4B1A600A4BDA6822F07F02DA602178DA680A43DA602846FFF7A6FEFFF786FEF8BD00BFA41E0910D2240308C2
:4071C0005CBA0308B4B9030838B52C23114A03FB00235D68C9B2104C21709968237803EB83035A000A440D4B1A60FFF7C1FF2846FFF726FE20780A4A136803EBC0001060C4
:40720000FFF7B6FE0122074B1A700748FFF788F938BD00BFA41E0910D824030858BA03085CBA0308D92403086D6A08102DE9F84307460D4690462E4908782C222D4B00FB95
